:020000040800F2
:10000000B80A0020C101000823350008BF2C0008F1
:1000100021350008350300081542000800000000E3
:10002000000000000000000000000000273700086A
:10003000E5070008000000004535000829370008E2
:10004000DB010008DB010008DB010008DB01000820
:10005000DB010008DB010008DB010008E7070008FE
:10006000DB010008DB010008DB010008DB01000800
:10007000DB010008DB010008DB010008DB010008F0
:10008000DB010008DB010008DB0100084D0300086C
:1000900039030008DB010008DB010008DB01000870
:1000A000DB010008DB010008DB010008DB010008C0
:1000B000DB0100082D380008DB010008DB01000827
:1000C000DB010008DB010008DB010008DB010008A0
:1000D000DB0100085D410008F1410008FD41000816
:1000E000DB010008DB010008DB010008DB01000880
:1000F000DB010008DB010008DB010008DB01000870
:10010000DB010008DB010008DB010008DB0100085F
:10011000DB010008DB01000839380008DB010008BA
:10012000DB010008DB01000835070008DB010008DF
:10013000DB010008DB010008DB0100087103000897
:1001400059030008DB01000865030008DB01000813
:10015000DB010008DB010008DB01000809420008A0
:10016000DB010008DB010008DB010008DB010008FF
:10017000DB010008DB010008DB01000800000000D3
:10018000DB010008DB010008DB010008DB010008DF
:10019000DB010008DB010008DB010008DB010008CF
:1001A0000000000000000000DB010008DFF80CD0B8
:1001B00000F040F800480047C9450008B80A002090
:1001C0000648804706480047FEE7FEE7FEE7FEE7F1
:1001D000FEE7FEE7FEE7FEE7FEE7FEE7D9370008A9
:1001E000AD01000840EA01039B0703D009E008C9FC
:1001F000121F08C0042AFAD203E011F8013B00F8EC
:10020000013B521EF9D2704730B50B460146002023
:100210002022012409E021FA02F59D4205D303FAC8
:1002200002F5491B04FA02F52844151EA2F1010249
:10023000F1DC30BD064C074D06E0E06840F00103FC
:1002400094E8070098471034AC42F6D3FFF7B2FFAA
:10025000F04700081048000830B58C1810F8012B42
:1002600012F00F0301D110F8013B120906D110F86A
:10027000012B03E010F8015B01F8015B5B1EF9D173
:1002800001E001F8013B521EFBD1A142E6D3002060
:1002900030BD00002DE9F0411E4C06461E4B2046A5
:1002A0000D46017862685F14DFF87080407803F1D2
:1002B000040C012A01D08AB127E0012E01D10129C5
:1002C00003D1012D21D101281FD04FF47A7018607D
:1002D000CCF8000000200246606012E0012E01D13F
:1002E000012903D1012D10D101280ED04FF4AF60A8
:1002F0001860CCF800000AA004F07AF80120024649
:1003000060603946404601F08BF926706570BDE8A3
:10031000F08100002C010020341800400018024039
:1003200073686F6F745F636F6E74726F6C5F50573A
:100330004D000000FEE7000002490120087002485D
:1003400000F04EBB3C010020FC020020014800F000
:1003500047BB0000FC020020014800F041BB000048
:100360003C030020014800F03BBB00003C030020A0
:10037000014800F035BB00003C03002010B54FF4ED
:10038000D872036802EB01129B5813F00404436B0C
:100390009C600468436BA45856D0E4085C60036812
:1003A0009A58436B02F00202DA604FF4DA72036883
:1003B00002EB01129B58446B03F00F032361436B64
:1003C000196203689A58436BC2F30722DA614FF44B
:1003D000DC72036802EB01129B58446B23750368BF
:1003E0009B58446B1B0A637503689B58446B1B0C3A
:1003F000A37503689A58436B120EDA754FF4DE72D8
:10040000036802EB01129B58446B237603689B58E8
:10041000446B1B0A637603689B58446B1B0CA376E2
:1004200003689A58436B120EDA762022002901687D
:100430000DD00A6101684A6922F010024A6190F801
:100440003810222909D00DE0640D1C60A7E7CA60AE
:1004500001684A6922F00202F0E701684A6922F461
:100460000F424A6190F83810322907D05FF001013D
:1004700080F8381000F0D8FC002010BD1221F7E7FA
:1004800000B58BB000210122CDE90612039108923C
:100490000E220F4B04910091019102910992984212
:1004A00004D105910B4901631C3141630A4988421B
:1004B00005D108490592403101631C314163694609
:1004C00000F010FA002801D000F090F90BB000BD48
:1004D000FC020020380600203C030020B3EE032A73
:1004E0002DE9F04120EE020A3F4E06F11404BDEE64
:1004F000C00A04F1140504F1280710EE100ABBEE3F
:10050000030A60EE800A21EE800A00B2F080FDEE60
:10051000E00ABDEEC00A10EE901A61EE020AE18018
:10052000FDEEE00A10EE901AE98010EE101A00EECF
:10053000100AF980B6F90200F8EEC00A00EE100ABF
:10054000B8EEC00A03F020FF86ED030AB4F90600F6
:1005500000EE100AB4F90200F8EEC00A00EE100A2C
:10056000B8EEC00A03F010FF84ED030AB5F90600E7
:1005700000EE100AB5F90200F8EEC00A00EE100A0B
:10058000B8EEC00A03F000FF85ED030AB7F90600D4
:1005900000EE100AB7F90200F8EEC00A00EE100AE9
:1005A000B8EEC00A03F0F0FE87ED030ABDEEC00A04
:1005B00010EE100A95ED030A03B2BDEEC00A10EE6C
:1005C000100A94ED030A02B2BDEEC00A10EE100A42
:1005D00096ED030ABDE8F041BDEEC00A01B210EE8F
:1005E000100A00B200F03CB88000002070B503464D
:1005F000164840F2FF12046B2260046B0022A260D6
:10060000046BE260056B08242C61056B1C0A2C75D9
:10061000046B6375046B0B0AA375036BD9750C49E6
:10062000046B09880B0A2376036B5976016B8A7673
:10063000016BCA76642100F063FC002804D0BDE899
:10064000704004A003F0D4BE70BD00003C03002045
:10065000380100206572726F725F79756E0000005C
:10066000F0B4044612484FF40075066B3560066B13
:100670000025B560066BF560066B08253561066BD5
:10068000250A3575056B6C75056B0C0AAC75046B2A
:10069000E175046B110A2176016B4A76026B190A27
:1006A0009176016BCB76F0BC0A2100F029BC0000EA
:1006B000FC0200200A88C2F30A0202804A788B7882
:1006C000D20842EA4312C2F30A0242808A78CB7807
:1006D000920942EA83020B7942EA8322C2F30A02B8
:1006E00082800A794B79520842EAC312C2F30A02A5
:1006F000C2804A79920902724A79C2F301124272A7
:10070000CA8842810A8982814A89C2810A7B02742D
:100710004A7B4274CA894282098A8182704712F0F8
:10072000FF0F04D0C2F3072008B10120704700205A
:1007300070470000014800F007BD0000440200209F
:1007400001681823CAB2103AB2FBF3F2054B6FF3FB
:100750000901032A9B5CC36500D9091D8165084610
:1007600070470000E847000810B5014600208B697B
:100770008A6A4FF0C07453B1B3F5005F15D072B1FF
:10078000012A0CD0022A0AD0032A09D104E01AB1A6
:10079000012A06D0022A03D1C96AC90100D5012065
:1007A00010BDC96AA142FAD010BD002AF7D0012AB3
:1007B000F2D0022AF3D0032AF3D010BD30B504687A
:1007C000256825F480252560046863608368402BD4
:1007D000036803D099600068C26030BD9A60006809
:1007E000C16030BD7047022000F028BEFEE7000067
:1007F00070B50D4C00220546A2606068012803D147
:10080000022D0AD0012908D04FF080404263E260F7
:100810000A2003F0C3FE257070BD0120A0604FF4D4
:100820007A70E060F4E700002C01002070B5294CDC
:10083000B4F90E0000EE100AB4F90800F8EEC00A90
:1008400000EE100AB8EEC00A02F07EFE224E84EDE1
:10085000040AF0EE400AB6F90C0000EE100AB8EEF9
:10086000C00A03F0D9FC04F1180584ED050AB5F9B6
:100870000E0000EE100AB5F90800F8EEC00A00EE0E
:10088000100AB8EEC00A02F09BFE85ED040AB6F924
:100890000A00F0EE400A00EE100AB8EEC00A03F0BB
:1008A00017FD85ED050ABDEEC00A10EE100A94EDA5
:1008B000050A01B2BDEEC00A10EE100A00B2FFF741
:1008C00095FEB4F90820B5F90810BDE8704003A002
:1008D00003F08EBDE80000209805002025642D2D32
:1008E00025640A0010B5087D012282403A48D0F8FC
:1008F000003243F00103C0F80032D0F8003223F494
:100900007C53C0F80032D0F800324C6A43EA04232A
:10091000C0F80032D0F81C329343C0F81C32CB69C7
:10092000B3B9D0F80C329343C0F80C328C894B68C1
:1009300064F31F434C6900EBC404C4F840320C89D3
:100940000B6864F31F434C6900EBC404C4F84432E1
:10095000CB69012B16D1D0F80C321343C0F80C32FE
:100960000C884B6864F31F434C6900EBC404C4F863
:1009700040320C89CB6864F31F434C6900EBC4041C
:10098000C4F844328B69002BD0F8043205D01343ED
:10099000C0F804320B6913B106E09343F8E7D0F8CE
:1009A00014329343C0F814320B69012B04D1D0F8F0
:1009B00014321343C0F81432096A012904D1D0F863
:1009C0001C121143C0F81C12D0F8001221F00101D2
:1009D000C0F80012002010BD006400407047000005
:1009E00070B50168044648694FF00105C043C0076F
:1009F0002ED18A686348904317D000208B68624AE2
:100A00009A4314D000228E68604BB34311D0002368
:100A1000104318431CD04A69204622F001024A6163
:100A200094F83810122906D00AE00120E6E70122E6
:100A3000E9E70123ECE701684A6922F40F424A61C1
:100A400090F8381032295BD080F8385000F022FB43
:100A50002168C868496910F0030FC1F3400104D050
:100A600019B100212046FFF789FC2068016940691F
:100A700011F0030FC0F3001004D018B1012120467B
:100A8000FFF77CFC20688169426911F0010F43691E
:100A9000C2F30022C3F3C03305D022B11BB1E16B16
:100AA00041F00101E1638169C1F340034169C1F390
:100AB00040224169C1F3C0312BB122B119B1E16BC0
:100AC00041F00201E1638169C1F380034169426938
:100AD000C1F38021C2F3C0322BB121B11AB1E16B55
:100AE00041F00401E163816911F0700F0CD0002323
:100AF00041694269C1F3C021C2F3C03233B125E07C
:100B0000222180F83810A1E70123F1E7F1B1EAB121
:100B1000816901F07001402928D006DC102909D034
:100B200020290BD030290DD11CE0502922D060297A
:100B300008D123E0E16B41F0080102E0E16B41F0F4
:100B40001001E163816921F070018161E06B00288F
:100B500007D021680420486084F838502046FFF709
:100B60003DFF70BDE16B41F02001EAE7E16B41F030
:100B70004001E6E7E16B41F08001E2E7E16B41F41F
:100B80008071DEE70300000400030008000003108A
:100B90002DE9F041040004D094F83800002518B184
:100BA00007E00120BDE8F08184F83950204600F0CC
:100BB00093F8022084F838002068016821F00201CF
:100BC00001602068016841F00101016000F02EFD24
:100BD0000746032605E000BF00F028FDC01B0A28D9
:100BE00063D820684068C007F6D020684168C9070C
:100BF00068D0A169012901683FD021F0800101601E
:100C0000E0690128206801683AD021F040010160C4
:100C1000206A01282068016835D021F02001016098
:100C2000606A01282068016830D021F0100101605D
:100C3000A06A0128206801682BD021F0080101601A
:100C4000E06A01282068016826D021F004010160D3
:100C5000D4E902010843D4E904121143084361684E
:100C6000491E08432168C8612068016821F001011C
:100C7000016000F0DBFC07461CE041F08001BEE7AC
:100C800041F04001C3E741F02001C8E741F0100105
:100C9000CDE741F00801D2E741F00401D7E700BFFA
:100CA00000F0C4FCC01B0A2804D904F8386F0320E4
:100CB000657077E720684068C007F1D12068406818
:100CC000C00703D0042084F838006AE7E5630120F8
:100CD00084F83800002065E7F0B5364B0768DFF888
:100CE000D0C0186803220224092533490026401C7D
:100CF00087B0674529D11860012807D1086840F0FE
:100D000000700860086800F0007005908DE85400DD
:100D1000CDE903256946294800F09CFB0122022108
:100D2000132000F0E7FD132000F0D9FD012202217D
:100D3000142000F0DFFD142000F0D1FD012202217B
:100D4000162000F0D7FD16202EE0DFF874C06745AE
:100D50002CD10F6847F080670F600F68012807F0FB
:100D600080670597186007D1086840F00070086038
:100D7000086800F0007005904FF440508DE8510075
:100D8000CDE9032569460F4800F064FB01221146B6
:100D90003F2000F0AFFD3F2000F0A1FD01221146F1
:100DA000402000F0A7FD402000F099FD07B0F0BD05
:100DB000006400400400002040380240000C024063
:100DC000006800400004024010B590F83820012A65
:100DD00001D0122A25D190F83920012A21D00122F0
:100DE00080F8392090F83820122A15D05FF02202BE
:100DF00080F838200022C26303685C6944F40F4421
:100E00005C6180F8392000680029416906D041F012
:100E100010014161002010BD3222E9E741F00201DA
:100E2000F7E7022010BD000010B501684A6942F0E2
:100E300002024A612A4988421FD1416B0A68A2F521
:100E40000072013A06D0012A08D0022A0AD0032AE9
:100E500013D10BE08A8A53BA224A0AE08A8A53BA2B
:100E6000214A06E08A8A53BA204A02E08A8A53BAA3
:100E70001F4A1380C98A49BA51801E49884225D128
:100E8000426B1068A0F50070053802D001281DD112
:100E900009E0908A40BA01B2174808E0A1F5F8517C
:100EA000FF3901810DE0908A40BA01B21348C18038
:100EB000D38A5BBA4381128B52BA82810181CA0400
:100EC000ECD489B2A1F6B83149420181002104482D
:100ED000FFF77AFFBDE8104000210648FFF774BF16
:100EE000FC0200208000002094000020A8000020C8
:100EF000BC0000203C030020E8000020000100208E
:100F00002DE9F05F0E46016804468868400105D46B
:100F10008868000102D48868C00067D594F8390059
:100F200001280ED0012784F8397094F8380022285F
:100F30000AD0122084F838008868400106D50025C0
:100F40000AE00220BDE8F09F3220F3E78868000144
:100F500001D5012500E002254FF4C07000EB05101B
:100F60000A5802F001020A50216B8A68EAB3D4F8E9
:100F700000C05CF800301343CA68496842EAC10106
:100F80000B434CF80030216B0A7C02F00F020A611F
:100F90004FF4C271226801EB0511535823F00F037F
:100FA000535022685358D4F830C0DCF810C043EADC
:100FB0000C035350216B4FF4C47303EB05130A7DEC
:100FC000D1F8151042EA01212268D150216B4FF46B
:100FD000C67303EB05130A7ED1F8191042EA01210A
:100FE0002268D15021680A5801E00DE046E042F045
:100FF00001020A5000F01AFB81464FF00008DFF8AA
:1010000088A0DFF888B019E022681358D1F80CC026
:10101000098843EA0C0343EA41511150B3E7701CBD
:101020000CD02EB100F002FBA0EB0900B04205D9B4
:10103000032084F8380084F8398083E795B120686C
:10104000012D816813D0124888430028E7D194F815
:10105000380032280ED084F8387000BF84F8398008
:1010600000206FE7206881682AEA0100EDE72BEA9B
:101070000100EAE7222084F83800EFE7042084F832
:10108000380001205EE700000300000400030008B0
:101090000000031070472DE9F0410446876D00F011
:1010A000C5FA064694F835000025022806D08020AF
:1010B000606584F834500120BDE8F0812068016843
:1010C00021F0160101602068416921F08001416131
:1010D000206C08B9A06C20B12068016821F00801DB
:1010E00001602068016821F0010101600BE000F05F
:1010F0009DFA801B052806D92020606504F8345F1E
:1011000003206070D8E720680068C007EFD194F82A
:101110005C103F208840B86004F8345F01206070A4
:101120000020C9E790F83510022903D080214165DD
:1011300001207047052180F835100068016821F012
:1011400001010160002070472DE9F84304464FF08B
:101150000008CDF8008064484FF41651A56D006872
:10116000B0FBF1F72E6894F85C10082000FA01F14A
:1011700031420FD021680A6852070BD50A6822F065
:1011800004020A6094F85C108840A860606D40F02A
:101190000100606594F85C1054488840304208D0E3
:1011A00021684969090604D5A860606D40F0020015
:1011B00060654E4894F85C10C01C8840304208D0EE
:1011C00021680968890704D5A860606D40F00400B3
:1011D000606594F85C1010208840304218D0216877
:1011E0000968090714D5A86020680168490304D577
:1011F0000068000308D5A16C07E00168C90503D4A5
:10120000016821F008010160216C09B1204688477E
:1012100094F85C102020884030424FF0010631D015
:1012200021680968C9062DD5A86094F835000528FD
:101230002068016806D0490347D5006800031DD423
:10124000616C1CE021F0160101602068416921F009
:1012500080014161206C08B9A06C20B12068016850
:1012600021F00801016094F85C103F208840A860DC
:1012700084F8348084F83560216D1FE0E16B09B19A
:1012800020468847606D00282BD0606DC00714D0C1
:10129000052084F835002068016821F00101016013
:1012A0000098401C0090B84203D820680068C0072E
:1012B000F6D184F8348084F83560E16C002910D0D0
:1012C00001B02046BDE8F04308470168C905D5D400
:1012D000016821F01001016084F8348084F83560E1
:1012E000CCE7BDE8F88300000C000020010080007E
:1012F0002DE9F041044600F099F906465CB100255D
:1013000084F83450022084F835002068016821F008
:10131000010101600DE00120BDE8F08100F086F9D7
:10132000801B052805D920206065032084F835003E
:10133000F2E720680068C007F0D1226811681F48F2
:101340000140D4E901031843D4E903363343184379
:1013500063691843A3691843E3691843236A184370
:101360000843616A042903D1D4E90B1319430843E4
:10137000106020684069666A20F0070130460E431D
:10138000012704280AD1A06A06432046FFF7ECF99A
:1013900020B14020606584F83570BCE72068466164
:1013A0002046FFF7CDF994F85C203F219140816001
:1013B000656584F835700020AEE700003F8010F0CE
:1013C0002DE9F0410446866D90F83400002501288F
:1013D0000DD0012084F8340094F835700020012FDE
:1013E00007D084F8340002252846BDE8F0810220A9
:1013F000FBE7022784F8357060652046FFF7DEF9C9
:1014000094F85C103F208840B0602068016841F08B
:10141000160101602068416941F080014161206C42
:1014200020B12068016841F008010160206801686E
:1014300041F001010160D7E770470000044910B591
:101440000A68024202D00860FFF7F6FF10BD0000F4
:10145000143C01402DE9F84FDFF890B100224FF025
:1014600001084FF0030A4FF00F090BF1040E00BF03
:101470000B6808FA02F42340A3426ED14D68022D96
:1014800001D0122D0ED1D50800EB850CDCF82050D0
:101490005607F70E09FA07F6B5430E69BE402E430C
:1014A000CCF82060066855000F790AFA05FC07F0B1
:1014B000030726EA0C06AF40374307604E68012E4B
:1014C00005D0022E03D0112E01D0122E0ED1876826
:1014D000CE6827EA0C07AE403E4386604668A643C6
:1014E0000C79C4F30014944034434460C4688E689B
:1014F00024EA0C04AE402643C6604C68E4006FD575
:101500003B4C256845F480452560246822F003059E
:1015100004F480440094374C2E19D6F808489507F7
:101520002F0F09FA07F5AC43334DA84201D100252E
:101530002EE0324DA84201D1012529E0304DA842CC
:1015400001D1022524E02F4DA84201D103251FE03F
:101550002D4DA84202D104251AE041E02B4DA842AE
:1015600001D1052514E02A4DA84201D106250FE03E
:10157000284DA84201D107250AE0274DA84201D1F4
:10158000082505E0254DA84201D1092500E00A25DE
:10159000BD402543C6F80858DBF800405D464E685C
:1015A0009C43F60300D51C432C60DEF800407546D2
:1015B0004E689C43B60300D51C432C600B4D083588
:1015C0002C684E689C43F60200D51C432C60074DE6
:1015D0000C352C684E689C43B60200D51C432C6029
:1015E000521C102AFFF444AFBDE8F88F003C0140C4
:1015F0004438024000300140000002400004024034
:1016000000080240000C024000100240001402409A
:1016100000180240001C024000200240002402404A
:101620000AB1816170470904FBE7000001480068C6
:10163000704700000000002070B5040004D094F84A
:101640003D00002510B106E0012070BD84F83C503B
:10165000204600F075F8242084F83D0020680168D9
:1016600021F00101016000F03BFA33492268B0FB30
:10167000F1F15160314A6368934206D94FF4967391
:1016800059434FF47A73B1FBF3F12368491C196293
:10169000616891420BD84900B0FBF1F2C2F30B0232
:1016A000042A01D2042019E0B0FBF1F016E0A3688F
:1016B0009BB301EBC10202EB0112B0FBF2F242F468
:1016C0008042120530D04BB301EBC10202EB011195
:1016D000B0FBF1F040F4804040F400402168C86164
:1016E000D4E90701084321680860D4E903100843DE
:1016F00021688860D4E9050108432168C860206832
:10170000016841F0010101602564202084F83D005A
:10171000256384F83E50002070BD00E006E001EB38
:101720004102B0FBF2F2CCE70120D7E701EB410127
:10173000B0FBF1F0D0E7000040420F00A0860100AE
:1017400000B500680E4987B0884216D1032000908A
:1017500012200190012002900020039004200490A8
:1017600069460848FFF776FE0748016841F48001A2
:101770000160006800F48000059007B000BD000023
:1017800000580040001402404038024002480168FE
:10179000491C016070470000000000200B4810B594
:1017A000016841F400710160016841F480610160E9
:1017B000016841F480710160032000F0BBF8002053
:1017C00000F006F800F018F8002010BD003C0240C0
:1017D00010B5044607484FF47A710068B0FBF1F089
:1017E00000F0D1FC00222146501E00F083F80020BA
:1017F00010BD00000C00002010B5052000F09AF884
:10180000002211466FF00B0000F074F80022114620
:101810006FF00A0000F06EF8002211466FF0090028
:1018200000F068F800221146501F00F063F8002213
:101830001146101F00F05EF800221146901E00F0C5
:1018400059F80022BDE810401146501E00F052B871
:101850002DE9F04116460F46040004D094F83900F3
:10186000002518B107E00120BDE8F08184F8385068
:10187000204601F07FF8242084F839002068C168F0
:1018800021F40051C160204602F0AEFA20680169DF
:1018900021F4904101612068416921F02A014161F0
:1018A0002068016921F00F01016120680169394355
:1018B00001612068C16821F40061C1602068C168CD
:1018C0003143C1602068C16841F40051C160E563E3
:1018D000202084F8390084F83A000020C4E700F0A2
:1018E0001F02012191404009800000F1E020C0F872
:1018F00000117047F0B40E4B1B680C46C3F3022373
:10190000C3F10705042D00D90425191D072901D2AB
:10191000002300E0DB1E012606FA05F1491E2140E6
:1019200099409E40761E16403143F0BC01F0FABD4E
:101930000CED00E0064900F0070208684FF6FF03CF
:10194000184040EA0220034A104308607047000034
:101950000CED00E00000FA052DE9F047DFF8649196
:1019600005460F46D9F8000000F00F01F8B2804696
:10197000B94208D2014689F80010D9F8000000F0F9
:101980000F00B84274D128784F4C800705D52068E5
:10199000A96820F0F000084320602878C00759D0DB
:1019A00049496868083901281AD002281BD0032841
:1019B00019D00968890700295ADA216821F0030142
:1019C00001432160FFF732FE6968064641F2883024
:1019D000012911D002291DD00329824627D035E0E4
:1019E00009688903E7E709688901E4E7FFF71EFE54
:1019F000811B514501D926E082462068C0F3810051
:101A00000128F3D126E000BFFFF710FE811B5145EE
:101A100001D918E082462068C0F381000228F3D182
:101A200018E000BFFFF702FE811B51450BD820686C
:101A3000C0F381000328F5D10CE000BFFFF7F6FDED
:101A4000811B514502D90320BDE8F087206810F0C2
:101A50000C0FF3D1D9F80010484601F00F01B9423C
:101A600008D980F80080006800F00F00B84201D06B
:101A70000120E9E72878400705D52068E96820F4C7
:101A8000E050084320602878000706D520682969BF
:101A900020F4604040EAC100206000F051F8216865
:101AA000F02292FAA2F201F0F001B2FA82F2D140F1
:101AB000064A515CC840064908600020FFF788FECE
:101AC0000020C1E7003C024008380240D847000827
:101AD0000C00002001480068704700000C00002046
:101AE00008480949006809684FF4E05292FAA2F2E6
:101AF00001F4E051B2FA82F2D140044A515CC8408C
:101B0000704700000C00002008380240D847000849
:101B100008480949006809684FF4604292FAA2F245
:101B200001F46041B2FA82F2D140044A515CC840EB
:101B3000704700000C00002008380240D847000819
:101B400030B51948006810F00C01184812D0184C34
:101B500004290ED008290DD11349091F0A6802F083
:101B60003F030A68550247F6C07204D5B4FBF3F090
:101B700003E0204630BDB0FBF3F00B68096813406A
:101B800092FAA2F2B2FA82F2D34058434FF44032B2
:101B900092FAA2F201F44031B2FA82F2D140491C29
:101BA0004900B0FBF1F030BD083802400024F400D9
:101BB000001BB7002DE9F84F0546DFF8FC920078CE
:101BC000A9F1040BC007ABF1040449D0D9F8001007
:101BD0004846C1F38101012908D00068C0F38100A3
:101BE00002280AD1DBF80000400206D520688003F5
:101BF00036D5686800286ED032E06868B0F5803F5E
:101C000010D0B0F5A02F206810D020F480302060D4
:101C1000206820F4802020606868A0B1FFF706FDEE
:101C200006460CE0206840F48030F4E740F4802061
:101C30002060F7E7FFF7FAFC801B642871D8206862
:101C40008003F7D50CE0FFF7F1FC064605E000BF86
:101C5000FFF7ECFC801B6428F0D820688003F7D4E1
:101C60002878964F80074FF0010A4FF0000841D5C1
:101C7000D9F80010484611F00C0F08D00068C0F3E6
:101C8000810002280AD1DBF80000400206D4206857
:101C9000800713D5E86801281DD10FE0E868D8B1A6
:101CA000C7F800A0FFF7C2FC064604E0FFF7BEFC41
:101CB000801B0228C2D820688007F7D52068F82248
:101CC00092FAA2F22969B2FA82F220F0F800914069
:101CD000084320600EE0ECE0C7F80080FFF7A6FCA8
:101CE000064604E0FFF7A2FC801B022819D82068F2
:101CF0008007F7D42878000724D57148696989B12D
:101D0000C0F800A0FFF792FC064604E0FFF78EFC47
:101D1000801B022805D868486C3000688007F5D51C
:101D200010E07AE0C0F80080FFF780FC064604E08F
:101D3000FFF77CFC801B02286FD85F486C3000687E
:101D40008007F5D42878400753D55B4838300168C0
:101D500041F080510160006800F0805000905948C7
:101D6000016841F480710160FFF760FC064604E001
:101D7000FFF75CFC801B02284FD852480068C00562
:101D8000F6D54D4EA868683601280FD00528306872
:101D900010D020F001003060306820F00400306086
:101DA000A868B8B1FFF742FC00900FE0306840F03F
:101DB0000100F4E740F004003060F7E7FFF736FC7D
:101DC0000099411A41F2883081426AD83068800710
:101DD000F4D50EE0FFF72AFC009007E0FFF726FCA1
:101DE0000099411A41F2883081425AD83068800700
:101DF000F4D4A869E8B3D9F80010C1F3810102292D
:101E000057D00228C7F8608003D0FFF70FFC0546C3
:101E10004AE0FFF70BFC064605E042E0FFF706FC50
:101E2000801B02283DD820688001F7D4D5E907013E
:101E3000084347F6C07292FAA2F2696AB2FA82F2D5
:101E40009140AA6A4FF0FF3303EB52024FF4403344
:101E500093FAA3F3B3FA83F39A40114308434FF084
:101E6000706292FAA2F2E96AB2FA82F291400843F1
:101E700000E01CE0CBF80000C7F860A0FFF7D6FB3D
:101E8000054604E0FFF7D2FB401B022809D8206872
:101E90008001F7D50BE000BFFFF7C8FB401B02280D
:101EA00002D90320BDE8F88F20688001F4D4002017
:101EB000F8E70120F6E7000008380240000047423A
:101EC000800E47420070004070B5040005D0002528
:101ED000A56294F8510010B106E0012070BD84F8AD
:101EE0005050204600F030F8022084F8510020685D
:101EF000016821F040010160D4E901010843D4E9FF
:101F000003121143084361690843218B01F40071F6
:101F10000843E1690843216A0843A16A084321682C
:101F20000860A069042101EA1040616A0843216841
:101F300048602068C16921F40061C16165650120C4
:101F400084F85100002070BD00B500680E4987B0CC
:101F5000884217D10D480021026842F480120260C5
:101F6000006800F4801005904FF46070009002202B
:101F7000CDE901010320039005200490694604483F
:101F8000FFF768FA07B000BD005001404438024036
:101F9000001402402DE9F84F044690F85000002646
:101FA0000A9F9A4693460D464FF0010801280ED02D
:101FB000012084F85000FFF739FB814694F8510066
:101FC000616801280CD0B1F5827F07D102E00220C0
:101FD000BDE8F88FA16809B9042801D00226BDE048
:101FE00055B1BBF1000F07D0BAF1000F04D094F83F
:101FF0005100012802D004E00126AFE0052084F85A
:10200000510000206065C4F838B0A4F83EA0A4F8E0
:102010003CA02563A4F836A0A4F834A02064606432
:1020200020680168490603D4016841F0400101605D
:10203000E068B0F5006F606804D0E8B3E08E012876
:102040003BD06AE010B1E08E01282ED1216835F82E
:10205000020BC860E08E401EE08626E0B8F1000F5B
:102060000DD0E08E58B120688168890707D535F812
:10207000021BC160E08E401EE0864FF00008E08F3A
:1020800058B120688168C90707D0C0682BF8020BD7
:10209000E08F401EE0874FF00108781C05D0FFF765
:1020A000C5FAA0EB0900B84246D2E08E0028D5D18F
:1020B000E08F0028D2D136E0FFE7216815F8010B48
:1020C0000873E08E401EE08627E000BFB8F1000FE5
:1020D0000DD0E08E58B120688168890707D515F8C2
:1020E000011B0173E08E401EE0864FF00008E08F78
:1020F00058B120688168C90707D0C0680BF8010B88
:10210000E08F401EE0874FF00108781C05D0FFF7F4
:102110008DFAA0EB0900B8420ED2E08E0028D5D18E
:10212000E08F0028D2D13B46012202212046CDF883
:10213000009001F0ADFA08B103260FE04A46394697
:10214000204601F095FA18B101262020606505E0CF
:10215000A06818B92068C16880680090012084F8E0
:102160005100002084F85000304631E74FF0E02164
:102170000428086903D020F004000861704740F08B
:102180000400FAE7704710B5401EB0F1807F01D31C
:10219000012010BD4FF0E02460610F21601701F0B5
:1021A000C1F90020A06107202061002010BD10B5FA
:1021B000FFF7E8FF10BD7047704730B590F8382042
:1021C000012A19D0012200F8382F02234370D1E9E7
:1021D00000342343D1E902452C4323430C692343B4
:1021E0004C69896923430B4350F8381C4B64427097
:1021F00000210170084630BD022030BD30B590F896
:102200003820012A20D0012280F83820022380F8CB
:10221000393003685C6824F070045C6003685C68B3
:102220000D682C435C6003689C6824F080049C600B
:1022300003689C6849680C439C6080F83920002141
:1022400080F83810084630BD022030BD90F83900C3
:10225000704710B5040003D094F8390010B107E0BE
:10226000012010BD002084F83800204600F00CF852
:10227000022084F83900211D206801F0EDFA0120C8
:1022800084F83900002010BD08B501683048B1F16C
:10229000804F11D02F4A914216D1016841F00201BE
:1022A00001600068002200F00200009011461D202D
:1022B000FFF720FB1D202FE0016841F001010160C4
:1022C000006800F0010009E0234A914208D101684A
:1022D00041F004010160006800F00400009008BDB6
:1022E0001E4A914207D1016841F00801016000686F
:1022F00000F00800F2E71A4A914211D1016841F05A
:10230000100101600068012200F01000009000211F
:102310003620FFF7EFFA3620BDE80840FFF7DFBAB6
:10232000104A914209D10A48001D016841F002019A
:102330000160006800F00200D0E70B4A9142CED164
:10234000016841F040010160006800F04000C5E70D
:10235000403802400004004000080040000C0040EB
:102360000010004000040140001800400168CA68E5
:1023700042F00102CA600068016841F00101016099
:102380000020704770B5044690F83800012817D037
:10239000012584F83850022084F8390020688268CA
:1023A00022F0770222F47F4282600868502837D0FA
:1023B0000DDC202859D005DC88B3102841D151E02C
:1023C000022070BD302853D040283AD13FE0602829
:1023D0002ED070280BD0B0F5805F03D0B0F5005F31
:1023E0002FD110E02068816821F0070115E0CB684B
:1023F000D1E90121206801F09AFA2168886840F04B
:10240000770088601DE0CB68D1E90121206801F0E8
:102410008EFA2068816841F48041816011E01EE0FD
:10242000CA684968206801F04BFB5021206806E02B
:10243000CA684968206801F054FB6021206801F0F7
:1024400080FA84F83950002084F8380070BDCA68DA
:102450004968206801F034FB40212068EFE7002143
:102460002068ECE710212068E9E720212068E6E7F2
:1024700030212068E3E7704770B5044600680169C1
:102480004FF00005C943890715D4C168C9438907BE
:1024900011D4E91E0161012020762068806980073F
:1024A000204602D0FFF7E7FF04E000F0E3F8204603
:1024B00000F065F9257620680169C943490717D4FA
:1024C000C168C943490713D46FF0040101610220B8
:1024D00020762068806910F4407F204602D0FFF704
:1024E000CAFF04E000F0C6F8204600F048F925765F
:1024F00020680169C943090716D4C168C94309079F
:1025000012D46FF008010161042020762068C069B0
:102510008007204602D0FFF7AEFF04E000F0AAF8E3
:10252000204600F02CF9257620680169C943C906C8
:1025300017D4C168C943C90613D46FF010010161F3
:10254000082020762068C06910F4407F204602D021
:10255000FFF791FF04E000F08DF8204600F00FF93E
:10256000257620680169C943C90708D1C168C943F4
:10257000C90704D1891E0161204600F01DF92068B9
:102580000169C943090609D4C168C943090605D4CC
:102590006FF0800101612046FFF70DFE20680169A0
:1025A000C943490609D4C168C943490605D46FF037
:1025B00040010161204600F027F920680169C94304
:1025C00089060BD4C168C943890607D46FF020017E
:1025D00001612046BDE87040FFF7EEBD70BD000010
:1025E00010B5016800200222012386B0B1F1804FAE
:1025F0000ED0194CA14214D14FF470408DE80D005B
:102600000392694615480492FEF724FF06B010BDF8
:102610000F210091CDE90120CDE90303694610485F
:10262000F2E7104B994209D1E4210091CDE9012054
:1026300003900320049069460B48E5E70B4B994251
:10264000E4D14FF410710091CDE9012003900920ED
:10265000049069460648D7E700080040000C024095
:102660000000024000040140002002400018004029
:10267000001C0240704770B5044690F838000D46C3
:1026800001280DD0012684F83860022084F8390032
:1026900042B1042A18D0082A2AD00C2A4DD139E098
:1026A000022070BD206801F055F92068816941F071
:1026B000080181612068816921F00401816120683D
:1026C00081692A69114311E0206801F06FF92068DF
:1026D000816941F4006181612068816921F4806130
:1026E0008161206881692A6941EA0221816124E0CF
:1026F000206801F08DF92068C16941F00801C161CD
:102700002068C16921F00401C1612068C1692A699A
:10271000114311E0206801F0ABF92068C16941F470
:102720000061C1612068C16921F48061C1612068D4
:10273000C1692A6941EA0221C16184F83960002037
:1027400084F8380070BD10B5040003D094F8390047
:1027500010B107E0012010BD002084F838002046A9
:1027600000F00CF8022084F83900211D206801F0E7
:1027700073F8012084F83900002010BD70477047BD
:1027800010B504460068012201F0C6F80849206827
:10279000884202D00749884203D1416C41F400418C
:1027A00041642068016841F001010160002010BD12
:1027B000000001400004014000B51149006889B0E3
:1027C0000968884219D100F07BFA0E481622016987
:1027D0000091808AADF804000A4902A8FDF702FDC5
:1027E0000DF1080C9CE80F00FDF799FF002804D0BC
:1027F00009B05DF804EBFEF719B809B000BD0000A0
:102800000C04002074050020704710B504460068D1
:10281000416994F83920C1F3C011212A0BD151B17B
:10282000416921F080014161206B08B1FEF733FC62
:10283000204601F089FA2068416994F83A20C1F3F2
:102840008011222A0BD151B1416921F0400141612F
:10285000606B08B1FEF71FFC204601F067FA00200C
:1028600010BD704770B5026804461068D16853699E
:1028700010F00F0F50D003F0010501F490763543AE
:102880005DD0C20705D0CA0503D5E26B42F0010254
:10289000E263420705D5DA0703D0E26B42F0020299
:1028A000E263820705D5DA0703D0E26B42F0040247
:1028B000E263020705D5DA0703D0E26B42F00802B3
:1028C000E263E26B002A33D0800604D5880602D585
:1028D000204601F042FA20684069E16BC0F38010A5
:1028E000090700D428B3204601F020FA2068416986
:1028F00049061AD5416921F040014161606BA0B1E0
:102900001B490165606BFEF70DFC002810D0606B61
:10291000016DBDE870400847830610D58B060ED5C3
:102920002046BDE8704001F018BA2046FFF799FF35
:1029300070BD2046FFF795FF0020E06370BD0306E1
:1029400006D50B0604D52046BDE8704001F0A2BBB9
:102950004006F3D54806F1D5D168204621F0400164
:10296000D160202184F8391000F0A8F970BD000072
:102970008D3C0008F0B50746D0F800C04748002459
:10298000474902230326072587B0844530D10868CC
:1029900040F0100008600868049500F010000590F1
:1029A000C0208DE8590069463E48FEF753FD3F4D73
:1029B0003D4828604FF00060C5E901044014C5E9B6
:1029C00003406C61AC61EC612C62C5E90946EC62C4
:1029D00028462C63FEF78CFC08B1FDF707FF7D63EA
:1029E000002211462520AF63FEF784FF25201AE060
:1029F0002B4A2F4F121F2F48BC4518D1116841F4A4
:102A0000003111601168049501F4003105916021D5
:102A10008DE85A006946FEF71DFD0022012126209F
:102A2000FEF768FF2620FEF75AFF07B0F0BD224FE1
:102A3000BC4516D1116841F48021116011680495DC
:102A400001F4802105914FF440718DE85A006946E8
:102A5000FEF700FD002201212720FEF74BFF272073
:102A6000E1E716488445E0D1086840F0200008609E
:102A70000868694600F0200005904FF484408DE816
:102A80005900082004900E48FEF7E4FC00220121C2
:102A90004720FEF72FFF4720C5E700000010014048
:102AA00044380240000402404064024044020020D6
:102AB00000440040000C0240004800400014014067
:102AC0000018024070B5044690F83A00202839D129
:102AD000A9B3A2B394F83800012833D0012084F8B8
:102AE0003800A162A2850025E563222084F83A001F
:102AF000636B1548D863636B14481864636B1448A0
:102B0000D864606B134605650846666B216802460B
:102B10003046091DFEF754FC2068C16841F48071FD
:102B2000C1602068416941F001014161206841694B
:102B300041F04001416184F83850002070BDFFE74A
:102B40000120FBE70220F9E7E73C0008233D0008ED
:102B50009D3C000890F83A30202B1DD1D1B1CAB16C
:102B600090F83830012B17D081628285C285002110
:102B7000C163222280F83A2080F8381001684A693F
:102B800042F001024A610068C16841F49071C1607D
:102B900000207047012070470220704738B5044676
:102BA000144884420ED100680168406800900122F8
:102BB00011491048FFF7CEFF0A2301220E490D48A4
:102BC00000F01FF80D48844213D100680168406886
:102BD00009490090012232310848FFF7BBFF01B0DC
:102BE0000549BDE830400A2301223231034800F094
:102BF00008B838BDC4010020C00500200402002030
:102C000070472DE9F843044690F839001F461646F0
:102C10000D46202850D1A5B19EB194F83800012866
:102C20004AD0012084F838004FF00008C4F83C80F6
:102C3000212084F83900FEF7F9FCA6848146E68459
:102C400026E00120BDE8F883E08C401EE084A06807
:102C50004B46B0F5805F4FF000024FF080012046F8
:102C6000009703D001F047FAE8B90DE001F043FA0C
:102C7000C8B928882168C0F308004860206908B1F5
:102C80006D1C05E0AD1C03E0216815F8010B4860E0
:102C9000E08C0028D8D14B460022402120460097E6
:102CA00001F029FA08B10320CCE7202084F839008C
:102CB00084F838800020C5E70220C3E77047FEE7AC
:102CC0001FB50E2269463B2000F05CF8BDF80000FD
:102CD00041BA16480180BDF8021049BA4180BDF8DA
:102CE000041049BA8180BDF8061049BAC18000F1CC
:102CF00014019DF809200B89D21A9DF8083042EA88
:102D0000032202819DF80B204B89D21A9DF80A30CC
:102D100042EA032242819DF80D208989511A9DF8CB
:102D20000C2041EA022181811FBD0000980500208E
:102D300010B50A2001F026FC0A48FFF717FB0948E6
:102D4000FFF714FB28B108A001F052FB0548FFF77C
:102D50000DFB09A001F04CFBBDE810400A2001F07A
:102D600011BC00000C04002074696D65723320648E
:102D7000656661756C740A0074696D657233206FE5
:102D80006B0A0000F8B5134F15460E4604460022A4
:102D900040213846FEF744FC0F4944F080003724B8
:102DA0008871C91D8A1E08700123491E0B480094B2
:102DB000FFF7F0F808492B463246C91D0748009432
:102DC000FFF7E8F8012240213846FEF729FC0020F1
:102DD000F8BD000000140240D0000020A402002032
:102DE000104810B50E4901600321416000214FF4E5
:102DF00000228160C0E903124FF44012C0E90521AE
:102E0000C1610162416281620121C162FDF7C0FEC0
:102E1000002803D0BDE81040FDF7E8BC10BD00005D
:102E200000640040FC020020104810B50E4901600B
:102E30000321416000214FF400228160C0E90312A8
:102E40004FF44012C0E90521C16101624162816213
:102E50000121C162FDF79CFE002803D0BDE81040AF
:102E6000FDF7C4BC10BD0000006800403C0300201A
:102E7000094808B5016841F480010160006800223A
:102E800000F48000009011463A20FEF733FDBDE8C3
:102E900008403A20FEF723BD303802402DE9F047C4
:102EA0004D4886B00024016841F0100101600168BE
:102EB00001F010010591016841F0400101600168D5
:102EC00001F040010591016841F0020101600168D3
:102ED00001F002010591016841F0080101600168FB
:102EE00001F008010591016841F4807101600168F9
:102EF00001F480710591016841F0200101600168D1
:102F000001F020010591016841F080010160016834
:102F100001F080010591016841F001010160006844
:102F2000DFF8B8A000F00100059000228C21504687
:102F3000FEF776FBDFF8A8804FF4005600223146FA
:102F40004046FEF76DFBDFF89C9044F240070022FC
:102F500039464846FEF764FB0C200125CDE9000503
:102F60000320CDE9024069465046FEF773FA02207D
:102F700000901D48CDE9010469465046FEF76AFA03
:102F80000096CDE90154694640460394FEF762FA83
:102F90000097CDE90154694648460394FEF75AFA72
:102FA000A802CDE90004694610480294FEF752FADF
:102FB00080200090CDE90154694650460394FEF705
:102FC00049FA022200210720FEF794FC0720FEF7B1
:102FD00086FC06B0BDE8F0873038024000100240A1
:102FE000001802400014024000001110000C0240C2
:102FF0000D4810B50B4901600C49416000214FF4A8
:1030000080428160C0E9031241618161C161016256
:10301000FEF712FB002803D0BDE81040FDF7E6BB29
:1030200010BD0000005800407C030020A086010075
:10303000104810B50E4901604FF4827141600021C3
:103040008160C1604FF400720161C0E90512302255
:10305000C0E90721416281620A21C162FEF734FFA3
:10306000002803D0BDE81040FDF7C0BB10BD000034
:1030700000500140A402002010B520488CB01E4929
:10308000016053210024C0E9011440F6C411C0E9D5
:103090000314FFF7DEF808B1FDF7A8FB4FF48050EA
:1030A000079007A91548FFF76DF908B1FDF79EFBDA
:1030B0001248FFF748FB08B1FDF798FB602000902D
:1030C0004FF47A70CDE90104002269460B4804945C
:1030D000FFF7D1FA08B1FDF789FB042269460748DA
:1030E0000194FFF7C8FA08B1FDF780FB0348FFF72A
:1030F00077FA0CB010BD0000001800403805002021
:1031000010B52A488EB04FF080410160A7210024FD
:10311000C0E9011444F62061C0E90314FFF799F8EF
:1031200008B1FDF763FB4FF48050079007A91F48D3
:10313000FFF728F908B1FDF759FB1C48FFF703FB1F
:1031400008B1FDF753FB0B940BA918480C94FFF73B
:1031500055F808B1FDF74AFB6020CDE90004029460
:103160000022694611480494FFF785FA08B1FDF77B
:103170003DFB042269460D48FFF77DFA08B1FDF7D3
:1031800035FB082269460948FFF775FA08B1FDF7D3
:103190002DFB0C2269460548FFF76DFA08B1FDF7D3
:1031A00025FB0248FFF71CFA0EB010BDD00300202B
:1031B00010B5154886B01349016040F2473100242C
:1031C000C0E9011440F2E731C0E90314FFF741F808
:1031D00008B1FDF70BFB4FF48050009069460A4898
:1031E000FFF7D0F808B1FDF701FB049404A90648E5
:1031F0000594FFF703F8002801D0FDF7F7FA06B0B1
:1032000010BD0000000400400C04002010B5294847
:103210008EB027490024C0E900148460C4600461B2
:10322000FFF717F808B1FDF7E1FA4FF48050079067
:1032300007A92048FFF7A6F808B1FDF7D7FA1D48FF
:10324000FFF781FA08B1FDF7D1FA0B940BA91948E1
:103250000C94FEF7D3FF08B1FDF7C8FA6020CDE962
:10326000000402940022694612480494FFF703FA0E
:1032700008B1FDF7BBFA042269460E48FFF7FBF9D7
:1032800008B1FDF7B3FA082269460A48FFF7F3F9D7
:1032900008B1FDF7ABFA0C2269460648FFF7EBF9D7
:1032A00008B1FDF7A3FA0348FFF79AF90EB010BD75
:1032B000000800404804002010B5154886B01349A6
:1032C000016042F2CF010024C0E9011442F20F7103
:1032D000C0E90314FEF7BDFF08B1FDF787FA4FF40C
:1032E0008050009069460A48FFF74CF808B1FDF796
:1032F0007DFA049404A906480594FEF77FFF002890
:1033000001D0FDF773FA06B010BD0000000C0040BC
:10331000840400201CB50E480C4900240160532190
:10332000C0E901144FF47A71C160FEF792FF08B151
:10333000FDF75CFA0094694605480194FEF75EFFCC
:10334000002801D0FDF752FA1CBD0000001000401B
:10335000C004002010B5344894B032490160A72160
:103360000024C0E90114C46004614461FEF771FFE8
:1033700008B1FDF73BFA4FF480500E900EA92A4891
:10338000FFF700F808B1FDF731FA2748FFF7DBF93E
:1033900008B1FDF72BFA129412A923481394FEF7F3
:1033A0002DFF08B1FDF722FA6020CDE90004029458
:1033B000039404940594002269461B480694FFF781
:1033C0005AF908B1FDF712FA042269461648FFF7C8
:1033D00052F908B1FDF70AFA082269461248FFF7C8
:1033E0004AF908B1FDF702FA0C2269460E48FFF7C8
:1033F00042F908B1FDF7FAF90794089409944FF4DB
:1034000000500A94CDE90B4007A907480D94FEF738
:10341000D4FE08B1FDF7EAF90348FFF7E1F814B06C
:1034200010BD000000040140FC0400200D4810B550
:103430000B4901600C49416000214FF480628160BA
:10344000C0E903120422C0E905210A46C161FEF762
:10345000FFF9002803D0BDE81040FDF7C7B910BD43
:103460000010014044010020A08601000D4810B565
:103470000B4901604FF4E1314160002181600C2271
:10348000C160C0E9041281610A46C161FEF7E0F93A
:10349000002803D0BDE81040FDF7A8B910BD00001A
:1034A00000440040840100200D4810B50B49016024
:1034B0004FF416514160002181600C22C160C0E9C7
:1034C000041281610A46C161FEF7C2F9002803D0E7
:1034D000BDE81040FDF78AB910BD0000004800406B
:1034E000C40100200D4810B50B4901604FF4E131D3
:1034F0004160002181600C22C160C0E90412816139
:103500000A46C161FEF7A4F9002803D0BDE81040C7
:10351000FDF76CB910BD000000140140040200204A
:10352000FEE770470907090E002806DA00F00F00D1
:1035300000F1E02080F8141D704700F1E02080F8D1
:103540000014704770470000184870EEC00AF0EE93
:10355000002A90ED011A9FED132A20EEA20A80EDB9
:10356000001A90ED021ADFED101A80ED011A00EE3C
:10357000820AC0ED020A70EEC10A0D4A0D4900EE42
:10358000A10A10EE100A904202DD9FED0B0A05E041
:1035900010EE100A884201D99FED080AB1EE400AE8
:1035A000704700000AD7233CCDCCCC3D8C050020D1
:1035B00000803B4500803BC500803B4500803BC50B
:1035C000134830EEC00AF6EE001A90ED011A114AC7
:1035D00080ED001A80ED010A3C380F49D0ED020A57
:1035E00070EE200AC0ED020A70EE410A00EEA10A58
:1035F00010EE100A904202DD9FED080A05E010EE81
:10360000100A884201D99FED060AB1EE400A7047C0
:103610004C00002000803B4500803BC500803B45BE
:1036200000803BC5F0B510F0400100F0800200D0F2
:10363000012102B101220B48436883B901290ED14F
:103640000368094DD3F10103084F40F60E3441F2EF
:103650002436036001D1EC81FE81EC81FE81C0E95A
:103660000112F0BD18010020E80000200001002038
:1036700038B50B46009204460022802100F008F87D
:10368000002804D0606D40F020006065032038BD44
:103690002DE9F0411D4617460E460446DDF8188018
:1036A00035E0681C33D02DB1FDF7C0FFA0EB08005A
:1036B000A8422CD32068416821F0E0014160606895
:1036C000B0F5827F0BD1A068B0F5004F02D0B0F505
:1036D000806F04D12068016821F040010160A06A78
:1036E000B0F5005F0AD1206801684DF6FF72114005
:1036F00001602068016841F400510160012084F8F4
:103700005100002084F850000320BDE8F0812068BB
:10371000806836EA000004D00020B842C1D1002001
:10372000F3E70120F9E7704710B5FEF72FF8BDE881
:103730001040FEF73CBD000030B5254893B0002591
:10374000016841F080510160006800F080501190E4
:103750002048016841F4404101600068022400F4FF
:103760004040119001200090000401908001CDE9BB
:1037700006400C2008904FF4A870CDE909040420FD
:103780000B906846FEF716FA00B1FEE70CA90F2071
:1037900081E831004FF4A0500F904FF4805010900A
:1037A00005210CA8FEF7D8F800B1FEE7FEF792F964
:1037B0004FF47A71B0FBF1F0FEF7E5FC0420FEF760
:1037C000D5FC00221146501EFEF794F813B030BD10
:1037D00040380240007000401048016841F4700118
:1037E00001600F48016841F0010101600C4A0021AD
:1037F0000832116002680B4B1A400260031D0A4A2E
:103800001A60026822F48022026005480C300160D0
:1038100002495806803908607047000088ED00E0D2
:1038200000380240FFFFF6FE103000240148FEF78A
:1038300023BE00000C04002010B50648FEF71CFE55
:103840000448FEF703FD002803D0BDE81040FCF754
:10385000EDBF10BDC0040020F0B50268234B244D1D
:10386000244E254F254C4FF0804C984209D060459E
:1038700007D0A84205D0B04203D0B84201D0A04240
:1038800004D122F0700E4A6842EA0E0298421BD020
:10389000604519D0A84217D0B04215D0B84213D015
:1038A000A04211D0164DA8420ED0164DA8420BD002
:1038B000154DA84208D0154DA84205D0144DA84278
:1038C00002D0144DA84203D122F44075CA682A439D
:1038D00002608A68C2620A688262984201D0A0428D
:1038E00001D10969016301214161F0BD000001407E
:1038F0000004004000080040000C004000040140AB
:1039000000400140004401400048014000180040D0
:10391000001C00400020004010B50123046A8B40C9
:103920009C430462036A8A401343036210BD10B5CE
:10393000846842EA032224F47F440A4322438260DB
:1039400010BD826822F070020A4342F007018160D4
:103950007047000030B5026A22F001020262026A7A
:10396000436884690D6824F07304254322F002043F
:103970008A6822430B4CA04202D00B4CA0420BD1D0
:1039800022F00804CA6823F4407322434C6922F0F1
:1039900004021C438B69234343608561496841638A
:1039A000026230BD000001400004014030B5026AEF
:1039B00022F010020262026A436884690D6824F4EE
:1039C000E64444EA05248D6822F0200242EA05120A
:1039D0000D4DA84202D00D4DA8420ED1CD6822F067
:1039E000800242EA05124D6923F4406343EA8503ED
:1039F0008D6922F0400243EA85034360846149688F
:103A00008163026230BD00000000014000040140FB
:103A100030B5026A22F480720262036A4268C469A5
:103A200023F4007324F073050C682C438D6843EA7B
:103A300005230D4DA84202D00C4DA8420ED1CD68F1
:103A400023F4006343EA05234D6922F4405242EA1D
:103A500005128D6923F4806342EA05124260C46155
:103A60004968C163036230BD0000014000040140A9
:103A700030B5026A22F480520262046A4268C36965
:103A80000D6823F4E64343EA05238D6824F40054CB
:103A900044EA0534084DA84202D0084DA84204D19A
:103AA0004D6922F4804242EA85124260C36149684E
:103AB0000164046230BD00000000014000040140C8
:103AC00010B5036A046A24F001040462846924F0D6
:103AD000F00444EA021423F00A020A4384610262F9
:103AE00010BD10B5036A23F0100303628369046AF2
:103AF00023F4704343EA023224F0A00343EA0111A5
:103B00008261016210BDF0B44D42002901DD0E4614
:103B100000E02E465442002A01DD174600E0274609
:103B2000BE4205DD002901DD0E4606E02E4604E01A
:103B3000002A01DD164600E026464742002801DD46
:103B4000844600E0BC46664505DA002801DD0646ED
:103B500018E03E4616E0002901DD0E4600E02E4644
:103B6000002A01DD944600E0A446664505DD0029F3
:103B700001DD0E4606E02E4604E0002A01DD164671
:103B800000E026465E434FF4257396FBF3F60028CB
:103B900000DD0746002900DD0D467B19002A00DD07
:103BA00014464FF000071C193D463B4608D07143B0
:103BB0007043724391FBF4F790FBF4F592FBF4F33E
:103BC0007819C11A00EE101A791BCA18F8EEC01A3B
:103BD00000EE102AC91A1844B8EEC01A00EE101AE6
:103BE000F0BCF8EEC00A00EE100AB8EEC00AFCF70E
:103BF00075BC0000234810B5B0F90E40B0F9003094
:103C00009C4200DAC381B0F90E40B0F902309C4208
:103C100000DDC3811B4C1834032902DDE089C01E7E
:103C2000E08111F1030F02DAE089C01CE081A2F506
:103C3000806200EE102A9FED141AB4F90E00B8EE5F
:103C4000C00AC0EE010A00EE100AB8EEC00A30EE5B
:103C5000800ABDEEC00A10EE100AE0814FF4FA703F
:103C600000F09CFCB4F90E10B4F90000814200DAB7
:103C7000E081B4F90E10B4F90200814200DDE08168
:103C800010BD0000E80000200000C84210B5806BA5
:103C90000021C185C184FEF7E4FD10BD70B5846BC1
:103CA0002068406994F83910C0F3C010002521291C
:103CB00004D118B1E584204600F046F82068406938
:103CC00094F83A10C0F38010222904D118B1E58588
:103CD000204600F02BF8E06B40F01000E063204637
:103CE000FEF7BFFD70BD10B50146806B096809681D
:103CF000C90513D40021C1850168CA6822F4807205
:103D0000CA6001684A6922F001024A6101684A6991
:103D100022F040024A61202180F83A10FEF73EFF6F
:103D200010BD10B5806BFEF76BFF10BD0168CA684F
:103D300022F49072CA6001684A6922F001024A6165
:103D4000202180F83A1070470168CA6822F0C0024A
:103D5000CA60202180F83910704710B590F83A10E9
:103D6000222901D0022010BD8168B1F5805F11D0F9
:103D70000169002901681FD0496801F07F03816A49
:103D80004A1C82620B70C18D491E0904090CC18551
:103D900018D026E00269816A002A0268526805D0BC
:103DA000D2B20A80816A491C8162ECE7C2F3080240
:103DB0000A80816A891CF7E74A68816A4B1C836222
:103DC0000A70E0E70168CA6822F49072CA6001686C
:103DD0004A6922F001024A61202180F83A10FEF778
:103DE000DDFE002010BD00002DE9F0410446006812
:103DF000016921F44052E168114301612168C868FA
:103E000049F20C6290432369A268E5691A43636929
:103E10002B431A430243CA602168486920F4407268
:103E2000A06910434861E1696425B1F5004F9748E6
:103E3000974A21684FF032083FD0914201D0814229
:103E40007CD1FDF765FE00EBC00101EB001061685D
:103E50008900B0FBF1F6FDF75BFE00EBC00101EB62
:103E6000001061688900B0FBF1F0B0FBF5F06FF075
:103E70001801484306EB800108EB0110B0FBF5F098
:103E800000F0F006FDF744FE00EBC00101EB00106E
:103E900061688900B0FBF1F0B0FBF5F006EB0016AD
:103EA000FDF736FE00EBC00101EB001061688900F0
:103EB000B0FBF1F7FDF72CFED2E0914201D0814238
:103EC0003DD1FDF725FE00EBC00101EB001061685C
:103ED0004900B0FBF1F0B0FBF5F00601FDF718FE6C
:103EE00000EBC00101EB001061684900B0FBF1F785
:103EF000FDF70EFE00EBC00101EB00106168490008
:103F0000B0FBF1F0B0FBF5F06FF01801484307EBA0
:103F1000800108EBC100B0FBF5F000F0F80006EB03
:103F20004006FDF7F5FD00EBC00101EB00106168F4
:103F30004900B0FBF1F7FDF7EBFD3CE055E0FDF784
:103F4000CFFD00EBC00101EB001061684900B0FB40
:103F5000F1F0B0FBF5F00601FDF7C2FD00EBC0018A
:103F600001EB001061684900B0FBF1F7FDF7B8FD07
:103F700000EBC00101EB001061684900B0FBF1F0FB
:103F8000B0FBF5F06FF01801484307EB800108EB38
:103F9000C100B0FBF5F000F0F80006EB4006FDF7BD
:103FA0009FFD00EBC00101EB001061684900B0FB10
:103FB000F1F7FDF795FD00EBC00101EB0010616822
:103FC0004900B0FBF1F0B0FBF5F06FF01801484389
:103FD00007EB800108EBC100B0FBF5F000F0070033
:103FE000216830448860BDE8F081FDF779FD00EB81
:103FF000C00101EB001061688900B0FBF1F6FDF72C
:104000006FFD00EBC00101EB001061688900B0FB9F
:10401000F1F0B0FBF5F06FF01801484306EB8001BA
:1040200008EB0110B0FBF5F000F0F006FDF758FDCD
:1040300000EBC00101EB001061688900B0FBF1F0FA
:10404000B0FBF5F006EB0016FDF74AFD00EBC001F2
:1040500001EB001061688900B0FBF1F7FDF740FD4E
:1040600000EBC00101EB001061688900B0FBF1F0CA
:10407000B0FBF5F06FF01801484307EB800108EB47
:104080000110B0FBF5F000F00F00A9E700140140AB
:104090000010014090F83910212901D0022070470A
:1040A0008168B1F5805F016A0BD04A1C0262026828
:1040B00009785160C18C491E0904090CC1840ED0D5
:1040C00017E009880268C1F30801516001690029FD
:1040D000016A02D0491C0162ECE7891CFBE7016818
:1040E000CA6822F08002CA600068C16841F04001DD
:1040F000C160002070472DE9F041984617460E46F2
:104100000446069D1DE0681C1BD02DB1FDF78EFAFC
:10411000A0EB0800A84214D92068C16821F4D0712E
:10412000C1602068416921F001014161202084F8CB
:10413000390084F83A00002084F838000320BDE8F4
:10414000F0812068006836EA000004D00020B84200
:10415000D9D00020F3E70120F9E7000038B51E4868
:1041600000680168C1F3001141B101684068009026
:104170001948FEF74AFB19490120087018491948E7
:10418000FCF798FA174C608AFFF74CFA164D28682E
:1041900030B9E288B4F90C10B4F90A00FFF72AFD2F
:1041A0002868012816D1B4F90C101048032902DD43
:1041B000C2890F3AC28111F1030F02DAC1890F31AE
:1041C000C181E1882122A1F5806191FBF2F1C289D0
:1041D0001144C18138BD00004401002008000020C6
:1041E0002406002074050020180100200001002092
:1041F0000148FEF737BB0000840100200148FEF7AC
:1042000031BB0000C40100200148FEF72BBB0000B9
:1042100004020020FEE7000026482749DFED241AAB
:1042200090ED012AB2EE001A80ED002AB1F90810D3
:1042300002EE101AB8EEC22A80ED012A9FED1F2A65
:1042400020EE020AB5EEC00AF1EE10FA02DDB0EE81
:10425000402A01E0B1EE402AB5EEC02AF1EE10FA94
:1042600001D2B0EE610A134830EEC00A0830144A99
:10427000D0ED011AC0ED001A80ED010A20EE010A0E
:104280004C3810EE101A80ED030A914203DD9FEDC9
:104290000D0A80ED030A10EE101A0B4A914203D961
:1042A0009FED0A0A80ED030AB1EE400A7047000054
:1042B0000000000054000020E80000200AD7233C42
:1042C00000803B4500803B4500803BC500803BC5EE
:1042D00026482749DFED241A90ED012AB2EE041A90
:1042E00080ED002AB1F9081002EE101AB8EEC22AC9
:1042F00080ED012A9FED1F2A20EE020AB5EEC00ACA
:10430000F1EE10FA02DDB0EE402A01E0B1EE402AF3
:10431000B5EEC02AF1EE10FA01D2B0EE610A1348F0
:1043200030EEC00A0830144AD0ED011AC0ED001A70
:1043300080ED010A20EE010A343810EE101A80EDEB
:10434000000A914203DD9FED0D0A80ED000A10EE98
:10435000101A0B4A914203D99FED0A0A80ED000A18
:10436000B1EE400A70470000000000003C00002051
:10437000000100200AD7233C00803B4500803B45DC
:1043800000803BC500803BC5144870EEC00AB6EE05
:10439000002A90ED011AF2EE041A80ED001AC0ED29
:1043A000010A54380E4A90ED060A0E4930EE800A92
:1043B00080ED060A30EEC10A20EE020A00EEA10AE4
:1043C00010EE100A904202DD9FED070A704710EED2
:1043D000100A8842FAD99FED050A70476400002050
:1043E00000803B4500803BC500803B4500803BC5CD
:1043F0000FB4054B10B503A9044A029800F018F851
:1044000010BC5DF814FB0000B1450008400100201D
:1044100002E008C8121F08C1002AFAD1704770478D
:10442000002001E001C1121F002AFBD170470000EB
:104430002DE9FF4F89B09B460446002506E025285C
:104440000BD05A460B999047641C6D1C20780028AD
:10445000F5D10DB02846BDE8F08F0027B8460122FF
:10446000474900E0074314F8013F203B02FA03F0FC
:104470000842F7D120782E2819D114F8010F47F0FF
:1044800004072A280ED06FF02F022078A0F1300107
:1044900009290CD808EB880102EB410100EB010867
:1044A000641CF2E70A98641C50F8048B0A90207888
:1044B0000028CED0642808D0692806D075281ED0E0
:1044C0005A460B9990476D1C58E00A994FF00A091B
:1044D00001C90A91002802DA40422D2102E0390583
:1044E00004D52B218DF82010012103E0F90704D019
:1044F0002021F7E78A4608AE0DE00021FAE70A9985
:104500004FF00A0901C90A91F7E74946FBF77CFE1B
:10451000303106F8011D0028F7D1ADEB060000F19F
:104520002009780701D44FF00108C84502DDA8EB47
:10453000090000E000208046002706E008A85A464F
:10454000C05D0B9990476D1C7F1C5745F6DB04E05E
:1045500030205A460B9990476D1CB8F10001A8F124
:104560000108F5DC05E016F8010B5A460B99904757
:104570006D1CB9F10001A9F10109F4DC641C65E7C7
:104580000928010010B500214DF6BE2403E02246A3
:10459000521EFDD2491C8142F9D310BD002103E017
:1045A0003622521EFDD2491C8142F9D370470000C9
:1045B00013B54FF6FF73012269460248FEF721FB4F
:1045C00000981CBD0402002088B0FDF7E7F8FFF753
:1045D000B3F8FEF763FCFEF74BFCFEF701FCFEF7B9
:1045E00023FCFEF725FDFEF78BFDFEF7E1FDFEF750
:1045F0000DFEFEF761FEFEF78DFEFEF7ABFEFEF749
:104600003BFDFEF713FFFEF731FFFEF74DFFFEF710
:1046100069FFFEF7EDFC00213448FEF7B1F80421F4
:104620003248FEF7ADF832480068C16841F0100129
:10463000C16001222F493048FEF78CFA01222F4930
:104640002F48FEF787FA0120FFF79CFF2D48FBF764
:1046500017FF2D48FBF714FF00212A48FCF7B4FB95
:1046600000B1FEE729A0FFF7C3FE0A20FFF78AFF8B
:10467000FEF75EFB4FF4FA60FFF784FF264C122230
:1046800026491B48FEF71EFA20690090A08AADF863
:1046900004001622204902A8FBF7A4FD0DF1080C26
:1046A0009CE80F00FCF73BF80028E8D0B4F90A00BA
:1046B000032802DDA1881431A18010F1030F02DA72
:1046C000A0881438A0800021608ACDE90001237AF7
:1046D000A2886188208800F023F8617C607AFBF76B
:1046E000D9FD217C607AFCF783F8C8E73805002003
:1046F00044010020C0050020C4010020F205002074
:1047000004020020FC0200203C0300206863616E6C
:1047100031204F4B210A00007405002024060020A0
:104720002DE9F05F8346DDE90A0E91468A4610F0D6
:10473000100700F0200200F0010600F0040500F070
:10474000020100F0080000D0012702B1012206B1E9
:10475000012605B1012501B1012100B101201D4C47
:104760004FF0B40C4FF03208C4F800C04FF0E60C24
:10477000012B04D0032B07D0022B03D004E0C4F894
:1047800000C001E0C4F80080012A01D1C4F8008013
:10479000012F01D1C4F800C0711ACEEB0E1309EB42
:1047A000430201EB411101EB81030AEB8301401B42
:1047B00000EB401000EB80030BEB83002368BDE8A7
:1047C000F05FA0F58060A1F58061A2F58062FFF73F
:1047D0009AB900007C0000200000000001020304E0
:1047E0000102030406070809000610160006101649
:1047F0001048000800000020440100005802000892
:1048000038480008440100207409000020440008D2
:10481000E1038224F4021401021402021403B2041C
:104820000211FF97A406740E0E0B930E0B97FE1049
:084830001815241303352413AD
:04000005080001AD41
:00000001FF
