:020000040800F2
:10000000180A0020C1010008173300082B27000838
:100010001533000859020008413E000800000000A6
:100020000000000000000000000000000B35000888
:100030003505000800000000393300080D350008C0
:10004000DB010008DB010008DB010008DB01000820
:10005000DB010008DB010008DB01000837050008B0
:10006000DB010008DB010008DB010008DB01000800
:10007000DB010008DB010008DB010008DB010008F0
:10008000DB010008DB010008DB0100086902000851
:100090005D020008DB010008DB010008DB0100084D
:1000A000DB010008DB010008DB010008DB010008C0
:1000B000DB01000811360008DB010008DB01000845
:1000C000DB010008DB010008DB010008DB010008A0
:1000D000DB010008113E00081D3E0008293E000813
:1000E000DB010008DB010008DB010008DB01000880
:1000F000DB010008DB010008DB010008DB01000870
:10010000DB010008DB010008DB010008DB0100085F
:10011000DB010008DB0100081D360008DB010008D8
:10012000DB010008DB0100081D040008DB010008FA
:10013000DB010008DB010008DB0100088102000888
:1001400075020008DB010008DB010008DB01000884
:10015000DB010008DB010008DB010008353E000878
:10016000DB010008DB010008DB010008DB010008FF
:10017000DB010008DB010008DB01000800000000D3
:10018000DB010008DB010008DB010008DB010008DF
:10019000DB010008DB010008DB010008DB010008CF
:1001A0000000000000000000DB010008DFF80CD0B8
:1001B00000F040F80048004719410008180A0020E4
:1001C0000648804706480047FEE7FEE7FEE7FEE7F1
:1001D000FEE7FEE7FEE7FEE7FEE7FEE7BD350008C7
:1001E000AD01000840EA01039B0703D009E008C9FC
:1001F000121F08C0042AFAD203E011F8013B00F8EC
:10020000013B521EF9D2704730B50B460146002023
:100210002022012409E021FA02F59D4205D303FAC8
:1002200002F5491B04FA02F52844151EA2F1010249
:10023000F1DC30BD064C074D06E0E06840F00103FC
:1002400094E8070098471034AC42F6D3FFF7B2FFAA
:100250001C4300083C430008FEE70000014800F092
:10026000AFB9000038020020014800F0A9B9000031
:1002700038020020014800F0A3B9000078020020F5
:10028000014800F09DB900007802002010B54FF43D
:10029000D872036802EB01129B5813F00404436BFD
:1002A0009C600468436BA45856D0E4085C60036803
:1002B0009A58436B02F00202DA604FF4DA72036874
:1002C00002EB01129B58446B03F00F032361436B55
:1002D000196203689A58436BC2F30722DA614FF43C
:1002E000DC72036802EB01129B58446B23750368B0
:1002F0009B58446B1B0A637503689B58446B1B0C2B
:10030000A37503689A58436B120EDA754FF4DE72C8
:10031000036802EB01129B58446B237603689B58D9
:10032000446B1B0A637603689B58446B1B0CA376D3
:1003300003689A58436B120EDA762022002901686E
:100340000DD00A6101684A6922F010024A6190F8F2
:100350003810222909D00DE0640D1C60A7E7CA609F
:1003600001684A6922F00202F0E701684A6922F452
:100370000F424A6190F83810322907D05FF001012E
:1003800080F8381000F038FB002010BD1221F7E78C
:1003900070B505460C461DA003F0DCFD0A20288040
:1003A0006078A178C00840EA4110C0F30A00688074
:1003B000A078E178800940EA8100217940EA812033
:1003C000C0F30A00A88020796179400840EAC11092
:1003D000C0F30A00E8806079800928726079C0F370
:1003E00001106872E08868812089A8816089E881AD
:1003F000207B2874607B6874E0896882208AA882E8
:10040000BDE8704003A003F0A5BD000066726F6EEA
:10041000740D0A006261636B0D0A000070B5184824
:1004200000F01FFB38B3174C608A02F0EDFF164D49
:10043000286830B9E288B4F90C10B4F90A0003F066
:1004400049FA2868012816D1B4F90C100F4803297D
:1004500002DDC2890F3AC28111F1030F02DAC189AC
:100460000F31C181E1882122A1F5806191FBF2F178
:10047000C2891144C181BDE87040014800F0F4BA5E
:10048000D801002008050020B000002098000020BE
:1004900001681823CAB2103AB2FBF3F2054B6FF3AE
:1004A0000901032A9B5CC36500D9091D81650846C3
:1004B000704700000043000810B5014600208B691A
:1004C0008A6A4FF0C07453B1B3F5005F15D072B1B2
:1004D000012A0CD0022A0AD0032A09D104E01AB159
:1004E000012A06D0022A03D1C96AC90100D5012018
:1004F00010BDC96AA142FAD010BD002AF7D0012A66
:10050000F2D0022AF3D0032AF3D010BD30B504682C
:10051000256825F480252560046863608368402B86
:10052000036803D099600068C26030BD9A600068BB
:10053000C16030BD7047022000F01ABCFEE7000029
:1005400070B51C4CB4F90E0000EE100AB4F90800A6
:10055000F8EEC00A00EE100AB8EEC00A02F0EEFE95
:10056000154D84ED040AF0EE400A95ED050AB1EE52
:10057000400A03F067FC84ED050A1834B4F90E0054
:1005800000EE100AB4F90800F8EEC00A00EE100AF6
:10059000B8EEC00A02F008FF84ED040AF0EE400A4B
:1005A00095ED040AB1EE400A03F090FC84ED050AD3
:1005B00070BD00008000002054050020704700003E
:1005C00070B50168044648694FF00105C043C00793
:1005D0002ED18A686348904317D000208B68624A06
:1005E0009A4314D000228E68604BB34311D000238D
:1005F000104318431CD04A69204622F001024A6188
:1006000094F83810122906D00AE00120E6E701220A
:10061000E9E70123ECE701684A6922F40F424A61E5
:1006200090F8381032295BD080F8385000F006FA84
:100630002168C868496910F0030FC1F3400104D074
:1006400019B100212046FFF721FE206801694069A9
:1006500011F0030FC0F3001004D018B1012120469F
:10066000FFF714FE20688169426911F0010F4369A8
:10067000C2F30022C3F3C03305D022B11BB1E16B3A
:1006800041F00101E1638169C1F340034169C1F3B4
:1006900040224169C1F3C0312BB122B119B1E16BE4
:1006A00041F00201E1638169C1F38003416942695C
:1006B000C1F38021C2F3C0322BB121B11AB1E16B79
:1006C00041F00401E163816911F0700F0CD0002347
:1006D00041694269C1F3C021C2F3C03233B125E0A0
:1006E000222180F83810A1E70123F1E7F1B1EAB146
:1006F000816901F07001402928D006DC102909D059
:1007000020290BD030290DD11CE0502922D060299E
:1007100008D123E0E16B41F0080102E0E16B41F018
:100720001001E163816921F070018161E06B0028B3
:1007300007D021680420486084F838502046FFF72D
:100740003DFF70BDE16B41F02001EAE7E16B41F054
:100750004001E6E7E16B41F08001E2E7E16B41F443
:100760008071DEE7030000040003000800000310AE
:100770002DE9F041040004D094F83800002518B1A8
:1007800007E00120BDE8F08184F83950204600F0F0
:1007900093F8022084F838002068016821F00201F3
:1007A00001602068016841F00101016000F0DCFB9C
:1007B0000746032605E000BF00F0D6FBC01B0A2851
:1007C00063D820684068C007F6D020684168C90730
:1007D00068D0A169012901683FD021F08001016042
:1007E000E0690128206801683AD021F040010160E9
:1007F000206A01282068016835D021F020010160BD
:10080000606A01282068016830D021F01001016081
:10081000A06A0128206801682BD021F0080101603E
:10082000E06A01282068016826D021F004010160F7
:10083000D4E902010843D4E9041211430843616872
:10084000491E08432168C8612068016821F0010140
:10085000016000F089FB07461CE041F08001BEE723
:1008600041F04001C3E741F02001C8E741F0100129
:10087000CDE741F00801D2E741F00401D7E700BF1E
:1008800000F072FBC01B0A2804D904F8386F03205B
:10089000657077E720684068C007F1D1206840683C
:1008A000C00703D0042084F838006AE7E56301201C
:1008B00084F83800002065E7F0B5324B0768DFF8B0
:1008C000C0C018680322022409252F490026401CB5
:1008D00087B0674521D11860012807D1086840F02A
:1008E00000700860086800F0007005908DE8540002
:1008F000CDE903256946254800F046FA0122114654
:10090000132000F093FD132000F085FD0122114615
:10091000142000F08BFD14202EE0DFF874C0674532
:100920002CD10F6847F080670F600F68012807F02F
:1009300080670597186007D1086840F0007008606C
:10094000086800F0007005904FF440508DE85100A9
:10095000CDE9032569460F4800F016FA0122114639
:100960003F2000F063FD3F2000F055FD01221146BD
:10097000402000F05BFD402000F04DFD07B0F0BDD1
:10098000006400400400002040380240000C024097
:10099000006800400004024010B590F83820012A99
:1009A00001D0122A25D190F83920012A21D0012224
:1009B00080F8392090F83820122A15D05FF02202F2
:1009C00080F838200022C26303685C6944F40F4455
:1009D0005C6180F8392000680029416906D041F047
:1009E00010014161002010BD3222E9E741F002010F
:1009F000F7E7022010BD000010B5406B0168A1F5BB
:100A00000071013902D0012907D102E0007D0849B7
:100A100002E00749007D0831087000210548FFF712
:100A2000BBFFBDE8104000210348FFF7B5BF000041
:100A3000C40000203802002078020020704790F89F
:100A40003510022903D0802141650120704705211E
:100A500080F835100068016821F001010160002074
:100A6000704790F8350070472DE9F84304464FF081
:100A70000008CDF8008064484FF41651A56D006859
:100A8000B0FBF1F72E6894F85C10082000FA01F131
:100A900031420FD021680A6852070BD50A6822F04C
:100AA00004020A6094F85C108840A860606D40F011
:100AB0000100606594F85C1054488840304208D0CA
:100AC00021684969090604D5A860606D40F00200FC
:100AD00060654E4894F85C10C01C8840304208D0D5
:100AE00021680968890704D5A860606D40F004009A
:100AF000606594F85C1010208840304218D021685E
:100B00000968090714D5A86020680168490304D55D
:100B10000068000308D5A16C07E00168C90503D48B
:100B2000016821F008010160216C09B12046884765
:100B300094F85C102020884030424FF0010631D0FC
:100B400021680968C9062DD5A86094F835000528E4
:100B50002068016806D0490347D5006800031DD40A
:100B6000616C1CE021F0160101602068416921F0F0
:100B700080014161206C08B9A06C20B12068016837
:100B800021F00801016094F85C103F208840A860C3
:100B900084F8348084F83560216D1FE0E16B09B181
:100BA00020468847606D00282BD0606DC00714D0A8
:100BB000052084F835002068016821F001010160FA
:100BC0000098401C0090B84203D820680068C00715
:100BD000F6D184F8348084F83560E16C002910D0B7
:100BE00001B02046BDE8F04308470168C905D5D4E7
:100BF000016821F01001016084F8348084F83560C8
:100C0000CCE7BDE8F8830000080000200100800068
:100C10002DE9F041044600F0A7F906465CB1002535
:100C200084F83450022084F835002068016821F0EF
:100C3000010101600DE00120BDE8F08100F094F9B0
:100C4000801B052805D920206065032084F8350025
:100C5000F2E720680068C007F0D1226811681F48D9
:100C60000140D4E901031843D4E903363343184360
:100C700063691843A3691843E3691843236A184357
:100C80000843616A042903D1D4E90B1319430843CB
:100C9000106020684069666A20F0070130460E4304
:100CA000012704280AD1A06A06432046FFF704FC66
:100CB00020B14020606584F83570BCE7206846614B
:100CC0002046FFF7E5FB94F85C203F2191408160CE
:100CD000656584F835700020AEE700003F8010F0B5
:100CE0002DE9F0410446866D90F834000025012876
:100CF0000DD0012084F8340094F835700020012FC5
:100D000007D084F8340002252846BDE8F08102208F
:100D1000FBE7022784F8357060652046FFF7F6FB95
:100D200094F85C103F208840B0602068016841F072
:100D3000160101602068416941F080014161206C29
:100D400020B12068016841F0080101602068016855
:100D500041F001010160D7E731B500F005F9044623
:100D600000F002F90099001B8842F9D338BD7047A2
:100D7000044910B50A68024202D00860FFF7F7FF85
:100D800010BD0000143C01402DE9F84FDFF890B190
:100D900000224FF001084FF0030A4FF00F090BF14A
:100DA000040E00BF0B6808FA02F42340A3426ED180
:100DB0004D68022D01D0122D0ED1D50800EB850C07
:100DC000DCF820505607F70E09FA07F6B5430E690E
:100DD000BE402E43CCF82060066855000F790AFA11
:100DE00005FC07F0030726EA0C06AF40374307600F
:100DF0004E68012E05D0022E03D0112E01D0122EE6
:100E00000ED18768CE6827EA0C07AE403E43866065
:100E10004668A6430C79C4F30014944034434460FC
:100E2000C4688E6824EA0C04AE402643C6604C6851
:100E3000E4006FD53B4C256845F480452560246867
:100E400022F0030504F480440094374C2E19D6F8A0
:100E5000084895072F0F09FA07F5AC43334DA84210
:100E600001D100252EE0324DA84201D1012529E013
:100E7000304DA84201D1022524E02F4DA84201D1D6
:100E800003251FE02D4DA84202D104251AE041E0C0
:100E90002B4DA84201D1052514E02A4DA84201D1CD
:100EA00006250FE0284DA84201D107250AE0274D6D
:100EB000A84201D1082505E0254DA84201D1092508
:100EC00000E00A25BD402543C6F80858DBF800407D
:100ED0005D464E689C43F60300D51C432C60DEF84B
:100EE000004075464E689C43B60300D51C432C60F9
:100EF0000B4D08352C684E689C43F60200D51C4308
:100F00002C60074D0C352C684E689C43B60200D50A
:100F10001C432C60521C102AFFF444AFBDE8F88F2C
:100F2000003C0140443802400030014000000240D3
:100F30000004024000080240000C02400010024081
:100F40000014024000180240001C02400020024031
:100F50000024024042694A40426170470AB18161FF
:100F600070470904FBE70000014800687047000073
:100F70000000002070B5040004D094F83D00002566
:100F800010B106E0012070BD84F83C50204600F00E
:100F900073F9242084F83D002068016821F00101E4
:100FA000016000F039FB33492268B0FBF1F1516078
:100FB000314A6368934206D94FF4967359434FF40C
:100FC0007A73B1FBF3F12368491C1962616891429D
:100FD0000BD84900B0FBF1F2C2F30B02042A01D294
:100FE000042019E0B0FBF1F016E0A3689BB301EB1D
:100FF000C10202EB0112B0FBF2F242F48042120590
:1010000030D04BB301EBC10202EB0111B0FBF1F0A8
:1010100040F4804040F400402168C861D4E90701F1
:10102000084321680860D4E90310084321688860F8
:10103000D4E9050108432168C8602068016841F0CF
:10104000010101602564202084F83D00256384F8B7
:101050003E50002070BD00E006E001EB4102B0FB15
:10106000F2F2CCE70120D7E701EB4101B0FBF1F050
:10107000D0E7000040420F00A08601002DE9FF4F9D
:1010800083B09A46DDE9117893460446DDF8409036
:10109000FFF76AFF054694F83D00202873D1192315
:1010A000012272492046009501F0CCFB0028F5D1C1
:1010B00094F83C00012866D0012084F83C002068A8
:1010C0000168C90703D1016841F00101016020688E
:1010D000016821F400610160222084F83D00402075
:1010E00084F83E0000262664C4F824906785604892
:1010F000E062608D2085CDE9008553465A46204642
:10110000049901F027FB28B1206C84F83C60042886
:1011100043D076E0208DC8B1012820D00228206875
:1011200023D0416980690090208D03286BD8012865
:101130002AD05049022F43464FF0000200955BD061
:101140008946204601F07EFBF0BB40E02068416903
:1011500081690091016841F40071016076E02068C6
:10116000016821F480610160F0E7016821F4806189
:1011700001602068016841F40061016020684169F4
:101180008069009062E06EE02A464146204601F008
:10119000CDFB30B1206C202833D0012007B0BDE852
:1011A000F08F206847E02068016841F40071016019
:1011B00020680169606A421C62620170208D401ED5
:1011C0002085608D401E00E01BE06085E9E7206817
:1011D000016821F48061016020680169606A421C35
:1011E00062620170208D401E2085608D401E6085EA
:1011F0004346002249460095204601F023FB002883
:10120000D1D00320CAE72A464146204601F08EFB92
:101210000028BFD120680169606A421C62620170C7
:10122000208D401E2085608D401E608520684169AC
:10123000C94349070AD40169606A421C62620170AD
:10124000208D401E2085608D401E6085208D0028E9
:101250007FF46AAF202084F83D0084F83E6084F873
:101260003C6000209AE7022098E70000020010008E
:101270000000FFFF0400010000B500680E4987B0C0
:10128000884216D103200090122001900120029084
:10129000002003900420049069460848FFF774FD7D
:1012A0000748016841F480010160006800F4800093
:1012B000059007B000BD0000005800400014024037
:1012C0004038024002480168491C01607047000034
:1012D000000000200B4810B5016841F40071016066
:1012E000016841F480610160016841F4807101602E
:1012F000032000F0BBF8002000F006F800F018F81A
:10130000002010BD003C024010B5044607484FF4D1
:101310007A710068B0FBF1F000F0D1FC00222146A8
:10132000501E00F083F8002010BD000008000020CF
:1013300010B5052000F09AF8002211466FF00B005E
:1013400000F074F8002211466FF00A0000F06EF809
:10135000002211466FF0090000F068F800221146E3
:10136000501F00F063F800221146101F00F05EF8D5
:1013700000221146901E00F059F80022BDE81040EE
:101380001146501E00F052B82DE9F04116460F46A6
:10139000040004D094F83900002518B107E00120BA
:1013A000BDE8F08184F83850204601F025F824206B
:1013B00084F839002068C16821F40051C1602046DA
:1013C00002F06CFB2068016921F490410161206802
:1013D000416921F02A0141612068016921F00F0172
:1013E000016120680169394301612068C16821F405
:1013F0000061C1602068C1683143C1602068C16874
:1014000041F40051C160E563202084F8390084F87C
:101410003A000020C4E700F01F020121914040097A
:10142000800000F1E020C0F800117047F0B40E4BCE
:101430001B680C46C3F30223C3F10705042D00D932
:101440000425191D072901D2002300E0DB1E012617
:1014500006FA05F1491E214099409E40761E16402D
:101460003143F0BC01F058BF0CED00E0064900F03C
:10147000070208684FF6FF03184040EA0220034ABB
:1014800010430860704700000CED00E00000FA0512
:101490002DE9F047DFF8649105460F46D9F80000C2
:1014A00000F00F01F8B28046B94208D2014689F82F
:1014B0000010D9F8000000F00F00B84274D128786D
:1014C0004F4C800705D52068A96820F0F00008433C
:1014D00020602878C00759D0494968680839012830
:1014E0001AD002281BD0032819D0096889070029BF
:1014F0005ADA216821F0030101432160FFF734FD2E
:101500006968064641F28830012911D002291DD0B0
:101510000329824627D035E009688903E7E709688F
:101520008901E4E7FFF720FD811B514501D926E041
:1015300082462068C0F381000128F3D126E000BF75
:10154000FFF712FD811B514501D918E08246206842
:10155000C0F381000228F3D118E000BFFFF704FDBB
:10156000811B51450BD82068C0F381000328F5D1B9
:101570000CE000BFFFF7F8FC811B514502D90320A6
:10158000BDE8F087206810F00C0FF3D1D9F80010F7
:10159000484601F00F01B94208D980F80080006880
:1015A00000F00F00B84201D00120E9E72878400799
:1015B00005D52068E96820F4E050084320602878C9
:1015C000000706D52068296920F4604040EAC10080
:1015D000206000F051F82168F02292FAA2F201F0A6
:1015E000F001B2FA82F2D140064A515CC840064985
:1015F00008600020FFF788FE0020C1E7003C0240A1
:1016000008380240F0420008080000200148006845
:101610007047000008000020084809490068096870
:101620004FF4E05292FAA2F201F4E051B2FA82F2DF
:10163000D140044A515CC8407047000008000020B7
:1016400008380240F0420008084809490068096863
:101650004FF4604292FAA2F201F46041B2FA82F2CF
:10166000D140044A515CC840704700000800002087
:1016700008380240F042000830B51948006810F000
:101680000C01184812D0184C04290ED008290DD18D
:101690001349091F0A6802F03F030A68550247F61A
:1016A000C07204D5B4FBF3F003E0204630BDB0FBBC
:1016B000F3F00B680968134092FAA2F2B2FA82F2D0
:1016C000D34058434FF4403292FAA2F201F4403131
:1016D000B2FA82F2D140491C4900B0FBF1F030BDB2
:1016E000083802400024F400001BB7002DE9F84F31
:1016F0000546DFF8FC920078A9F1040BC007ABF1B6
:10170000040449D0D9F800104846C1F381010129E9
:1017100008D00068C0F3810002280AD1DBF800007D
:10172000400206D52068800336D5686800286ED050
:1017300032E06868B0F5803F10D0B0F5A02F206887
:1017400010D020F480302060206820F480202060B9
:101750006868A0B1FFF708FC06460CE0206840F47A
:101760008030F4E740F480202060F7E7FFF7FCFBCF
:10177000801B642871D820688003F7D50CE0FFF740
:10178000F3FB064605E000BFFFF7EEFB801B642875
:10179000F0D820688003F7D42878964F80074FF060
:1017A000010A4FF0000841D5D9F80010484611F061
:1017B0000C0F08D00068C0F3810002280AD1DBF8C2
:1017C0000000400206D42068800713D5E86801288D
:1017D0001DD10FE0E868D8B1C7F800A0FFF7C4FB3F
:1017E000064604E0FFF7C0FB801B0228C2D8206831
:1017F0008007F7D52068F82292FAA2F22969B2FA96
:1018000082F220F0F8009140084320600EE0ECE006
:10181000C7F80080FFF7A8FB064604E0FFF7A4FB2B
:10182000801B022819D820688007F7D42878000781
:1018300024D57148696989B1C0F800A0FFF794FB0D
:10184000064604E0FFF790FB801B022805D8684895
:101850006C3000688007F5D510E07AE0C0F80080B1
:10186000FFF782FB064604E0FFF77EFB801B0228A1
:101870006FD85F486C3000688007F5D4287840073F
:1018800053D55B483830016841F0805101600068F1
:1018900000F0805000905948016841F48071016067
:1018A000FFF762FB064604E0FFF75EFB801B0228A1
:1018B0004FD852480068C005F6D54D4EA868683626
:1018C00001280FD00528306810D020F001003060CA
:1018D000306820F004003060A868B8B1FFF744FB1E
:1018E00000900FE0306840F00100F4E740F00400A1
:1018F0003060F7E7FFF738FB0099411A41F2883072
:1019000081426AD830688007F4D50EE0FFF72CFBDF
:10191000009007E0FFF728FB0099411A41F2883058
:1019200081425AD830688007F4D4A869E8B3D9F85E
:101930000010C1F38101022957D00228C7F8608046
:1019400003D0FFF711FB05464AE0FFF70DFB064603
:1019500005E042E0FFF708FB801B02283DD8206825
:101960008001F7D4D5E90701084347F6C07292FA1F
:10197000A2F2696AB2FA82F29140AA6A4FF0FF338A
:1019800003EB52024FF4403393FAA3F3B3FA83F319
:101990009A40114308434FF0706292FAA2F2E96A4A
:1019A000B2FA82F29140084300E01CE0CBF800005C
:1019B000C7F860A0FFF7D8FA054604E0FFF7D4FAAD
:1019C000401B022809D820688001F7D50BE000BF32
:1019D000FFF7CAFA401B022802D90320BDE8F88F9E
:1019E00020688001F4D40020F8E70120F6E7000029
:1019F0000838024000004742800E47420070004015
:101A000070B5040005D00025A56294F8510010B10E
:101A100006E0012070BD84F85050204600F030F8F8
:101A2000022084F851002068016821F04001016023
:101A3000D4E901010843D4E9031211430843616961
:101A40000843218B01F400710843E1690843216ACE
:101A50000843A16A084321680860A069042101EADB
:101A60001040616A0843216848602068C16921F418
:101A70000061C1616565012084F85100002070BDDE
:101A800000B500680E4987B0884217D10D48002183
:101A9000026842F480120260006800F48010059031
:101AA0004FF4607000900220CDE901010320039003
:101AB0000520049069460448FFF766F907B000BDA9
:101AC0000050014044380240001402402DE9F84F14
:101AD000044690F8500000260A9F9A4693460D4609
:101AE0004FF0010801280ED0012084F85000FFF7C4
:101AF0003BFA814694F85100616801280CD0B1F599
:101B0000827F07D102E00220BDE8F88FA16809B901
:101B1000042801D00226BDE055B1BBF1000F07D06B
:101B2000BAF1000F04D094F85100012802D004E06B
:101B30000126AFE0052084F8510000206065C4F85C
:101B400038B0A4F83EA0A4F83CA02563A4F836A0C1
:101B5000A4F834A02064606420680168490603D4B6
:101B6000016841F040010160E068B0F5006F606815
:101B700004D0E8B3E08E01283BD06AE010B1E08EDB
:101B800001282ED1216835F8020BC860E08E401E76
:101B9000E08626E0B8F1000F0DD0E08E58B1206845
:101BA0008168890707D535F8021BC160E08E401EA9
:101BB000E0864FF00008E08F58B120688168C907BF
:101BC00007D0C0682BF8020BE08F401EE0874FF073
:101BD0000108781C05D0FFF7C7F9A0EB0900B8424F
:101BE00046D2E08E0028D5D1E08F0028D2D136E051
:101BF000FFE7216815F8010B0873E08E401EE086B0
:101C000027E000BFB8F1000F0DD0E08E58B120687A
:101C10008168890707D515F8011B0173E08E401E06
:101C2000E0864FF00008E08F58B120688168C9074E
:101C300007D0C0680BF8010BE08F401EE0874FF023
:101C40000108781C05D0FFF78FF9A0EB0900B84216
:101C50000ED2E08E0028D5D1E08F0028D2D13B46AD
:101C6000012202212046CDF8009001F003FC08B1CA
:101C700003260FE04A463946204601F0EBFB18B137
:101C800001262020606505E0A06818B92068C168B9
:101C900080680090012084F85100002084F85000F2
:101CA000304631E74FF0E0210428086903D020F0E6
:101CB00004000861704740F00400FAE7704710B56F
:101CC000401EB0F1807F01D3012010BD4FF0E02411
:101CD00060610F21601701F01FFB0020A061072049
:101CE0002061002010BD10B5FFF7E8FF10BD704760
:101CF000704730B590F83820012A19D0012200F839
:101D0000382F02234370D1E900342343D1E902453F
:101D10002C4323430C6923434C69896923430B43B8
:101D200050F8381C4B64427000210170084630BDE9
:101D3000022030BD30B590F83820012A20D0012291
:101D400080F83820022380F8393003685C6824F07A
:101D500070045C6003685C680D682C435C60036819
:101D60009C6824F080049C6003689C6849680C436C
:101D70009C6080F83920002180F83810084630BD7A
:101D8000022030BD90F83900704710B5040003D030
:101D900094F8390010B107E0012010BD002084F84C
:101DA0003800204600F00CF8022084F83900211D8C
:101DB000206801F043FC012084F83900002010BDA8
:101DC00008B501683048B1F1804F11D02F4A9142D7
:101DD00016D1016841F0020101600068002200F0A4
:101DE0000200009011461D20FFF720FB1D202FE070
:101DF000016841F001010160006800F0010009E0A4
:101E0000234A914208D1016841F004010160006851
:101E100000F00400009008BD1E4A914207D10168FD
:101E200041F008010160006800F00800F2E71A4A7A
:101E3000914211D1016841F0100101600068012256
:101E400000F01000009000213620FFF7EFFA362056
:101E5000BDE80840FFF7DFBA104A914209D10A48AD
:101E6000001D016841F002010160006800F00200FD
:101E7000D0E70B4A9142CED1016841F040010160A8
:101E8000006800F04000C5E7403802400004004010
:101E900000080040000C0040001000400004014019
:101EA000001800400168CA6842F00102CA60006878
:101EB000016841F0010101600020704770B50446DF
:101EC00090F83800012817D0012584F838500220F6
:101ED00084F839002068826822F0770222F47F4279
:101EE00082600868502837D00DDC202859D005DCE6
:101EF00088B3102841D151E0022070BD302853D062
:101F000040283AD13FE060282ED070280BD0B0F5A1
:101F1000805F03D0B0F5005F2FD110E020688168AA
:101F200021F0070115E0CB68D1E90121206801F01B
:101F3000E5FB2168886840F0770088601DE0CB6889
:101F4000D1E90121206801F0D9FB2068816841F4C2
:101F50008041816011E01EE0CA684968206801F094
:101F600095FC5021206806E0CA684968206801F0A5
:101F70009EFC6021206801F0CBFB84F839500020E2
:101F800084F8380070BDCA684968206801F07EFC9A
:101F900040212068EFE700212068ECE7102120684D
:101FA000E9E720212068E6E730212068E3E7704771
:101FB00070B50446006801694FF00005C943890700
:101FC00015D4C168C943890711D4E91E01610120F4
:101FD0002076206880698007204602D0FFF7E7FF5F
:101FE00004E000F0E3F8204600F065F9257620686B
:101FF0000169C943490717D4C168C943490713D4C4
:102000006FF004010161022020762068806910F4DD
:10201000407F204602D0FFF7CAFF04E000F0C6F878
:10202000204600F048F9257620680169C943090770
:1020300016D4C168C943090712D46FF008010161C1
:10204000042020762068C0698007204602D0FFF770
:10205000AEFF04E000F0AAF8204600F02CF9257647
:1020600020680169C943C90617D4C168C943C906B4
:1020700013D46FF010010161082020762068C06938
:1020800010F4407F204602D0FFF791FF04E000F0FB
:102090008DF8204600F00FF9257620680169C943C4
:1020A000C90708D1C168C943C90704D1891E0161A4
:1020B000204600F001F920680169C943090609D4E6
:1020C000C168C943090605D46FF08001016120464B
:1020D000FFF70DFE20680169C943490609D4C168AC
:1020E000C943490605D46FF040010161204600F064
:1020F000F9F820680169C94389060BD4C168C9434E
:10210000890607D46FF0200101612046BDE87040C8
:10211000FFF7EEBD70BD000010B50168002002227F
:10212000012386B0B1F1804F0ED0194CA14214D1D9
:102130004FF470408DE80D000392694615480492F3
:10214000FEF722FE06B010BD0F210091CDE901205F
:10215000CDE9030369461048F2E7104B994209D1D3
:10216000E4210091CDE90120039003200490694609
:102170000B48E5E70B4B9942E4D14FF41071009105
:10218000CDE9012003900920049069460648D7E76D
:1021900000080040000C0240000002400004014022
:1021A0000020024000180040001C0240704770B53B
:1021B000044690F838000D4601280DD0012684F819
:1021C0003860022084F8390042B1042A18D0082A65
:1021D0002AD00C2A4DD139E0022070BD206801F0D0
:1021E0009FFA2068816941F0080181612068816956
:1021F00021F004018161206881692A69114311E09D
:10220000206801F0B9FA2068816941F400618161B8
:102210002068816921F480618161206881692A696F
:1022200041EA0221816124E0206801F0D7FA2068A8
:10223000C16941F00801C1612068C16921F0040150
:10224000C1612068C1692A69114311E0206801F069
:10225000F5FA2068C16941F40061C1612068C16973
:1022600021F48061C1612068C1692A6941EA0221C3
:10227000C16184F83960002084F8380070BD10B561
:10228000040003D094F8390010B107E0012010BD1C
:10229000002084F83800204600F00CF8022084F872
:1022A0003900211D206801F0C9F9012084F83900A6
:1022B000002010BD7047704710B5084900680968D4
:1022C000884209D180210648FEF744FE01F08CFFC8
:1022D000BDE8104000F082BB10BD00004C030020A0
:1022E000001002407047704770B5026804461068DD
:1022F000D168536910F00F0F51D003F0010501F4BC
:10230000907635435DD0C20705D0CA0503D5E26B90
:1023100042F00102E263420705D5DA0703D0E26B1F
:1023200042F00202E263820705D5DA0703D0E26BCE
:1023300042F00402E263020705D5DA0703D0E26B3C
:1023400042F00802E263E26B002A34D0800604D532
:10235000880602D5204601F05AFB20684069E16BEF
:10236000C0F3801001F008010143204624D001F0A1
:1023700037FB2068416949061AD5416921F04001BF
:102380004161606BA0B11B490165606BFEF757FBB3
:10239000002810D0606B016DBDE8704008478306CF
:1023A0000FD58B060DD52046BDE8704001F02FBB40
:1023B0002046FFF798FF70BDFFF795FF0020E06310
:1023C00070BD030606D50B0604D52046BDE8704057
:1023D00001F0BABC4006F3D54806F1D5D1682046D5
:1023E00021F04001D160202184F8391000F09CF9DF
:1023F00070BD000041390008F0B50646D0F800C0B5
:1024000044480024444902230325072787B0844514
:102410002DD1086840F0100008600868694600F097
:1024200010000590C0208DE8B9003C48FEF7ACFCD8
:102430003C4D3B4828604FF00060C5E90104401462
:10244000C5E9034080106C61C5E906402C6228464E
:102450006C62FEF7DDFB08B1FEF770F875630022D1
:1024600011462520AE63FEF7E1FF252019E02A4A38
:102470002D4E121F2D48B44517D1116841F400317B
:102480001160116801F40031059160218DE8BA00F6
:102490006946FEF779FC002201212620FEF7C6FFDF
:1024A0002620FEF7B8FF07B0F0BD214EB44515D188
:1024B000116841F480211160116801F480210591B7
:1024C0004FF440718DE8BA006946FEF75DFC0022CA
:1024D00001212720FEF7AAFF2720E2E715488445BF
:1024E000E1D1086840F0200008600868694600F003
:1024F000200005904FF484408DE8390008200490B6
:102500000D48FEF741FC002201214720FEF78EFF17
:102510004720C6E700100140443802400004024052
:1025200040640240D801002000440040000C0240FA
:1025300000480040001401400018024070B50446F5
:1025400090F83A00202839D1A9B3A2B394F8380002
:10255000012833D0012084F83800A162A28500252B
:10256000E563222084F83A00636B1548D863636BF7
:1025700014481864636B1448D864606B134605658F
:102580000846666B216802463046091DFEF7A8FB27
:102590002068C16841F48071C1602068416941F0E0
:1025A000010141612068416941F04001416184F8C5
:1025B0003850002070BDFFE70120FBE70220F9E75B
:1025C0009B390008D73900085139000890F83A3093
:1025D000202B1DD1D1B1CAB190F83830012B17D0C2
:1025E00081628285C2850021C163222280F83A205F
:1025F00080F8381001684A6942F001024A610068B7
:10260000C16841F49071C16000207047012070479B
:102610000220704738B504461148844208D100684A
:1026200001684068009001220E490D48FFF7CEFF77
:102630000D4DAC4212D10B4964230622323128469B
:1026400000F015F828680168406800902846BDE849
:102650003840044906223231FFF7B8BF38BD0000C8
:10266000580100209C0500209801002070472DE9AA
:10267000F843044690F839001F4616460D462028B8
:1026800050D1A5B19EB194F8380001284AD001205C
:1026900084F838004FF00008C4F83C80212084F80A
:1026A0003900FEF761FCA6848146E68426E001201D
:1026B000BDE8F883E08C401EE084A0684B46B0F58E
:1026C000805F4FF000024FF080012046009703D05A
:1026D00001F06BFBE8B90DE001F067FBC8B9288891
:1026E0002168C0F308004860206908B16D1C05E04E
:1026F000AD1C03E0216815F8010B4860E08C002850
:10270000D8D14B46002240212046009701F04DFBD6
:1027100008B10320CCE7202084F8390084F8388001
:102720000020C5E70220C3E77047FEE701684A6959
:10273000D24352050CD46FF480624A6104210164D3
:10274000002140F8301F202242730173012070479E
:10275000002070472DE9F84F0446006889460B9D1C
:1027600001689846174641F480610160206801685D
:1027700041F48071016000954FF0011A002251462A
:1027800020460A9B00F05EF8F0BB216809F0FE00CD
:1027900008610AF1010B2B46594620460A9A00F0BF
:1027A00081F818B1206C042812D03AE02068416901
:1027B000806900902A4620460A9900F0E8F850B156
:1027C000206C04282DD12068016841F4007101605B
:1027D0000120BDE8F88FFEB2B8F1010F09D02168E1
:1027E000380A08612A4620460A9900F0D0F80028E5
:1027F000E6D1206806612A4620460A9900F0C7F80B
:102800000028DDD1206800E00BE0016841F4807110
:10281000016000950022514620460A9B00F012F804
:1028200008B10320D5E7216809F0FF0040F001005E
:1028300008612B46594620460A9A00F033F80028D2
:10284000B0D1C6E72DE9F0471E4690460D46044636
:10285000C1F30747DDF8209012E0701C10D02EB1B4
:10286000FEF782FBA0EB0900B04209D9002044F832
:10287000300F20216173A07320730320BDE8F0871F
:102880002068012F0AD0806925EA00000004000CAE
:1028900006D000214145E0D00020EFE74069F3E792
:1028A0000121F7E72DE9F0479A4691460D46044687
:1028B00000264FF02008C1F307472AE0206840694E
:1028C000C043400512D42068016841F400710160E2
:1028D00021686FF48060486104202064266384F8D6
:1028E0003D8084F83C600120BDE8F087B9F1FF3FEE
:1028F0000FD0B9F1000F05D0FEF736FBA0EB0A01AF
:10290000494506D944F8306F84F80D8026730320BA
:10291000EAE72068012F07D0D0F8180025EA000068
:102920000004000CE0D0C9E74069F7E72DE9F04169
:10293000002590460E460446202721E04069C0430A
:10294000C0060CD421686FF010004861256425632F
:1029500084F83D7084F83C500120BDE8F0812EB130
:10296000FEF702FBA0EB0800B04209D954F8400F73
:1029700040F0200044F80409677025700320ECE75C
:1029800020684169C9434906D8D40020E5E770B5FD
:1029900016460D4604461AE02046FFF7C7FE08B16A
:1029A000012070BD681C12D025B1FEF7DDFA801B36
:1029B000A8420CD954F8400F40F0200044F8100908
:1029C00000202060202161732073032070BD2068E7
:1029D0004069C0430006DFD4002070BD1FB50E2241
:1029E00069463B2000F092F8BDF8000041BA164855
:1029F0000180BDF8021049BA4180BDF8041049BAFF
:102A00008180BDF8061049BAC18000F114019DF81B
:102A100009200B89D21A9DF8083042EA032202816C
:102A20009DF80B204B89D21A9DF80A3042EA032206
:102A300042819DF80D208989511A9DF80C2041EAA8
:102A4000022181811FBD00002C05002010B500F07F
:102A50000DF8012001F048FB0348FFF723FABDE819
:102A60001040012001F040BB4C03002030B585B080
:102A7000002414220F496846FDF7B4FB6420FEF7DA
:102A80006BF9752000F01AF80B494FEA0D05087034
:102A900005EB4400417815F8140000F065F80120BA
:102AA000FEF75AF9641CE4B20A2CF1D305B00020F9
:102AB00030BD00000843000868000020F8B5104E43
:102AC0000446002240213046FEF748FA44F08000D8
:102AD0000C4C3725E21C20710123511C0A4800953B
:102AE000FEF7F4FFE21C0123511C07480095FEF796
:102AF000EDFF012240213046FEF730FAE078F8BDC4
:102B00000014024068000020B8020020F8B5134FFE
:102B100015460E460446002240213846FEF71EFAAE
:102B20000F4944F0800037248871C91D8A1E08703F
:102B30000123491E0B480094FEF7C8FF08492B46A5
:102B40003246C91D07480094FEF7C0FF012240210C
:102B50003846FEF703FA0020F8BD000000140240DA
:102B600068000020B8020020F8B5114F0E46044658
:102B7000002240213846FEF7F1F904F07F000D4CA9
:102B80003725621CA0700123511C0B480095FEF7ED
:102B90009DFFA670621C0123511C07480095FEF79B
:102BA00095FF012240213846FEF7D8F90020F8BDF4
:102BB0000014024068000020B8020020114810B53F
:102BC0000F490160032141604FF080418160002185
:102BD0004FF40022C0E903124FF44012C0E905216E
:102BE000C1610162416281620121C162FDF7C0FDE4
:102BF000002803D0BDE81040FDF7A0BC10BD0000C8
:102C00000064004038020020114810B50F490160EF
:102C1000032141604FF08041816000214FF4002288
:102C2000C0E903124FF44012C0E90521C1610162FD
:102C3000416281620121C162FDF79AFD002803D043
:102C4000BDE81040FDF77ABC10BD000000680040F0
:102C500078020020094808B5016841F4800101604C
:102C60000068012200F48000009000213A20FEF765
:102C7000DDFBBDE808403A20FEF7CDBB303802400E
:102C80002DE9F047514886B00024016841F0100159
:102C90000160016801F010010591016841F04001F7
:102CA0000160016801F040010591016841F00201F5
:102CB0000160016801F002010591016841F008011D
:102CC0000160016801F008010591016841F480711B
:102CD0000160016801F480710591016841F02001F3
:102CE0000160016801F020010591016841F0800157
:102CF0000160016801F080010591016841F0010166
:102D000001600068DFF8C8A000F001000590002213
:102D10008C215046FEF722F9DFF8B8804FF40057B7
:102D2000002239464046FEF719F9DFF8AC90002240
:102D300044F240014846FEF711F90C2000900125AD
:102D4000CDE90154694650460394FEF71DF802266A
:102D500022480096CDE9010469465046FEF714F872
:102D60000097CDE90154694640460394FEF70CF8FC
:102D700040200090CDE90154694648460394FEF78F
:102D800003F8A802CDE90004694615480294FDF74E
:102D9000FBFFA803CDE90005CDE902466946484698
:102DA000FDF7F2FF8020CDE90005CDE90246694636
:102DB0005046FDF7E9FF022200210720FEF736FB0F
:102DC0000720FEF728FB06B0BDE8F0873038024048
:102DD00000100240001802400014024000001110D0
:102DE000000C02400D4810B50B4901600C494160D0
:102DF00000214FF480428160C0E90312416181618A
:102E0000C1610162FEF7B6F8002803D0BDE81040AA
:102E1000FDF794BB10BD000000580040B404002032
:102E2000A0860100104810B50E4901604FF4827170
:102E3000416000218160C1604FF400720161C0E90E
:102E400005123022C0E90721416281620A21C16274
:102E5000FEF7D6FD002803D0BDE81040FDF76EBB9D
:102E600010BD000000500140B802002010B52048FD
:102E70008CB01E49016053210024C0E9011440F6C2
:102E8000C411C0E90314FEF780FF08B1FDF756FB3B
:102E90004FF48050079007A91548FFF70FF808B1C5
:102EA000FDF74CFB1248FFF7EAF908B1FDF746FBC6
:102EB000602000904FF47A70CDE901040022694649
:102EC0000B480494FFF773F908B1FDF737FB0422B0
:102ED000694607480194FFF76AF908B1FDF72EFB30
:102EE0000348FFF719F90CB010BD000000180040AE
:102EF0007804002010B52A488EB04FF08041016060
:102F0000A7210024C0E9011444F62061C0E903149C
:102F1000FEF73BFF08B1FDF711FB4FF4805007901F
:102F200007A91F48FEF7CAFF08B1FDF707FB1C48B9
:102F3000FFF7A5F908B1FDF701FB0B940BA91848A1
:102F40000C94FEF7F7FE08B1FDF7F8FA6020CDE922
:102F5000000402940022694611480494FFF727F9FF
:102F600008B1FDF7EBFA042269460D48FFF71FF997
:102F700008B1FDF7E3FA082269460948FFF717F997
:102F800008B1FDF7DBFA0C2269460548FFF70FF997
:102F900008B1FDF7D3FA0248FFF7BEF80EB010BD36
:102FA0001003002010B5154886B01349016042F2A5
:102FB000CF010024C0E9011442F20F71C0E90314EB
:102FC000FEF7E3FE08B1FDF7B9FA4FF48050009028
:102FD00069460A48FEF772FF08B1FDF7AFFA04949C
:102FE00004A906480594FEF7A5FE002801D0FDF7C8
:102FF000A5FA06B010BD0000000400404C030020FC
:1030000010B529488EB027490024C0E90014846017
:10301000C4600461FEF7B9FE08B1FDF78FFA4FF402
:103020008050079007A92048FEF748FF08B1FDF738
:1030300085FA1D48FFF723F908B1FDF77FFA0B94D5
:103040000BA919480C94FEF775FE08B1FDF776FA46
:103050006020CDE9000402940022694612480494DD
:10306000FFF7A5F808B1FDF769FA042269460E4892
:10307000FFF79DF808B1FDF761FA082269460A4892
:10308000FFF795F808B1FDF759FA0C226946064892
:10309000FFF78DF808B1FDF751FA0348FFF73CF848
:1030A0000EB010BD000800408803002010B5154880
:1030B00086B01349016042F2CF010024C0E9011437
:1030C00042F20F71C0E90314FEF75FFE08B1FDF78D
:1030D00035FA4FF48050009069460A48FEF7EEFE3C
:1030E00008B1FDF72BFA049404A906480594FEF7ED
:1030F00021FE002801D0FDF721FA06B010BD000026
:10310000000C0040C40300201CB50E480C490024EC
:1031100001605321C0E901144FF47A71C160FEF7D8
:1031200034FE08B1FDF70AFA009469460548019497
:10313000FEF700FE002801D0FDF700FA1CBD0000DC
:10314000001000400004002010B5344894B032490B
:103150000160A7210024C0E90114C4600461446136
:10316000FEF713FE08B1FDF7E9F94FF480500E9019
:103170000EA92A48FEF7A2FE08B1FDF7DFF927489D
:10318000FFF77DF808B1FDF7D9F9129412A9234889
:103190001394FEF7CFFD08B1FDF7D0F96020CDE91B
:1031A00000040294039404940594002269461B4889
:1031B0000694FEF7FCFF08B1FDF7C0F9042269464A
:1031C0001648FEF7F4FF08B1FDF7B8F90822694682
:1031D0001248FEF7ECFF08B1FDF7B0F90C22694682
:1031E0000E48FEF7E4FF08B1FDF7A8F9079408942C
:1031F00009944FF400500A94CDE90B4007A9074801
:103200000D94FEF776FD08B1FDF798F90348FEF737
:1032100083FF14B010BD0000000401403C040020F6
:103220000D4810B50B4901600C49416000214FF475
:1032300080628160C0E903120422C0E905210A46C8
:10324000C161FEF7A1F8002803D0BDE81040FDF7EA
:1032500075B910BD00100140D8000020A086010003
:103260000D4810B50B4901604FF4E1314160002178
:1032700081600C22C160C0E9041281610A46C1610B
:10328000FEF782F8002803D0BDE81040FDF756B9DC
:1032900010BD000000440040180100200D4810B58A
:1032A0000B4901604FF4E1314160002181600C2243
:1032B000C160C0E9041281610A46C161FEF764F889
:1032C000002803D0BDE81040FDF738B910BD00005C
:1032D00000480040580100200D4810B50B4901601E
:1032E0004FF4E1314160002181600C22C160C0E9EE
:1032F000041281610A46C161FEF746F8002803D036
:10330000BDE81040FDF71AB910BD000000140140DF
:1033100098010020FEE770470907090E002806DA29
:1033200000F00F0000F1E02080F8141D704700F15C
:10333000E02080F80014704770470000154870EED8
:10334000C00A9FED132A90ED011AF0EE001A80EDED
:10335000001A90ED021A104A80ED011A30EEC10AEF
:10336000C0ED020A0D4920EE020A00EEA10A10EE9D
:10337000100A904202DD9FED0A0A05E010EE100AE5
:10338000884201D99FED070AB1EE400A704700005C
:10339000CDCCCC3D2005002000803B4500803BC5C6
:1033A00000803B4500803BC5124830EEC00A124AFF
:1033B00090ED011A114980ED001A80ED010A3438B0
:1033C000D0ED020A70EE200AC0ED020A70EE410A4A
:1033D00030EE800A10EE100A904202DD9FED080ADE
:1033E00005E010EE100A884201D99FED060AB1EE01
:1033F000400A70474000002000803B4500803BC5EC
:1034000000803B4500803BC5F0B510F0400100F066
:10341000800200D0012102B101220B48436883B928
:1034200001290ED10368094DD3F10103084F4FF470
:103430002F644FF09606036001D1EC81FE81EC8190
:10344000FE81C0E90112F0BDB00000208000002024
:103450009800002038B50B460092044600228021D7
:1034600000F008F8002804D0606D40F0200060658E
:10347000032038BD2DE9F0411D4617460E4604468F
:10348000DDF8188035E0681C33D02DB1FDF76CFDF8
:10349000A0EB0800A8422CD32068416821F0E0018D
:1034A00041606068B0F5827F0BD1A068B0F5004F35
:1034B00002D0B0F5806F04D12068016821F040018E
:1034C0000160A06AB0F5005F0AD1206801684DF67E
:1034D000FF72114001602068016841F400510160F1
:1034E000012084F85100002084F850000320BDE83A
:1034F000F0812068806836EA000004D00020B842DD
:10350000C1D10020F3E70120F9E7704710B5FDF7BE
:10351000D9FEBDE81040FEF7E6BB000030B52548F7
:1035200093B00025016841F080510160006800F00F
:10353000805011902048016841F4404101600068CA
:10354000022400F4404011900120009000040190FA
:103550008001CDE906400C2008904FF4A870CDE919
:10356000090404200B906846FEF7C0F800B1FEE79E
:103570000CA90F2081E831004FF4A0500F904FF4B8
:103580008050109005210CA8FDF782FF00B1FEE7E6
:10359000FEF73CF84FF47A71B0FBF1F0FEF78FFBC9
:1035A0000420FEF77FFB00221146501EFDF73EFF70
:1035B00013B030BD40380240007000401048016830
:1035C00041F4700101600F48016841F001010160A0
:1035D0000C4A00210832116002680B4B1A4002604D
:1035E000031D0A4A1A60026822F48022026005481C
:1035F0000C300160024958068039086070470000AD
:1036000088ED00E000380240FFFFF6FE1030002495
:103610000148FEF7CDBC00004C03002010B5064861
:10362000FEF7C6FC0448FEF7ADFB002803D0BDE85A
:103630001040FCF785BF10BD00040020F0B5026803
:10364000234B244D244E254F254C4FF0804C98425F
:1036500009D0604507D0A84205D0B04203D0B84297
:1036600001D0A04204D122F0700E4A6842EA0E0254
:1036700098421BD0604519D0A84217D0B04215D04F
:10368000B84213D0A04211D0164DA8420ED0164D0C
:10369000A8420BD0154DA84208D0154DA84205D020
:1036A000144DA84202D0144DA84203D122F4407513
:1036B000CA682A4302608A68C2620A6882629842C3
:1036C00001D0A04201D10969016301214161F0BD2E
:1036D000000001400004004000080040000C0040D1
:1036E0000004014000400140004401400048014006
:1036F00000180040001C00400020004010B5846805
:1037000042EA032224F47F440A432243826010BD2C
:10371000826822F070020A4342F00701816070471C
:1037200030B5026A22F001020262026A43688469CB
:103730000D6824F07304254322F002048A682243B2
:103740000B4CA04202D00B4CA0420BD122F008043B
:10375000CA6823F4407322434C6922F004021C43DC
:103760008B6923434360856149684163026230BDD0
:10377000000001400004014030B5026A22F010024E
:103780000262026A436884690D6824F4E64444EAEC
:1037900005248D6822F0200242EA05120D4DA84250
:1037A00002D00D4DA8420ED1CD6822F0800242EA2F
:1037B00005124D6923F4406343EA85038D6922F0C5
:1037C000400243EA85034360846149688163026281
:1037D00030BD0000000001400004014030B5026A25
:1037E00022F480720262036A4268C46923F400739F
:1037F00024F073050C682C438D6843EA05230D4DB6
:10380000A84202D00C4DA8420ED1CD6823F400632B
:1038100043EA05234D6922F4405242EA05128D69BC
:1038200023F4806342EA05124260C4614968C163BF
:10383000036230BD000001400004014030B5026A5F
:1038400022F480520262046A4268C3690D6823F45C
:10385000E64343EA05238D6824F4005444EA053422
:10386000084DA84202D0084DA84204D14D6922F467
:10387000804242EA85124260C36149680164046281
:1038800030BD0000000001400004014010B5036A93
:10389000046A24F001040462846924F0F00444EA18
:1038A000021423F00A020A438461026210BD10B5BB
:1038B000036A23F0100303628369046A23F47043EC
:1038C00043EA023224F0A00343EA0111826101625B
:1038D00010BD0000194810B5B0F90E40B0F9003025
:1038E0009C4200DAC381B0F90E40B0F902309C422C
:1038F00000DDC38111481830032902DDC3890F3B65
:10390000C38111F1030F02DAC1890F31C181212175
:10391000A2F5806292FBF1F1C28911440AB2C28120
:10392000B0F900108A4200DAC181B0F90E20B0F976
:1039300002108A4200DDC18110BD0000800000201D
:1039400010B5806B0021C185C184FEF7CCFC10BD91
:1039500070B5846B2068406994F83910C0F3C010CA
:103960000025212904D118B1E584204600F046F84D
:103970002068406994F83A10C0F38010222904D1DD
:1039800018B1E585204600F02BF8E06B40F0100000
:10399000E0632046FEF7A7FC70BD10B50146806BC2
:1039A00009680968C90513D40021C1850168CA687E
:1039B00022F48072CA6001684A6922F001024A61F9
:1039C00001684A6922F040024A61202180F83A10D9
:1039D000FEF720FE10BD10B5806BFEF747FE10BD50
:1039E0000168CA6822F49072CA6001684A6922F0CC
:1039F00001024A61202180F83A1070470168CA68C4
:103A000022F0C002CA60202180F83910704710B53A
:103A100090F83A10222901D0022010BD8168B1F53A
:103A2000805F11D00169002901681FD0496801F049
:103A30007F03816A4A1C82620B70C18D491E090492
:103A4000090CC18518D026E00269816A002A026843
:103A5000526805D0D2B20A80816A491C8162ECE7C3
:103A6000C2F308020A80816A891CF7E74A68816A02
:103A70004B1C83620A70E0E70168CA6822F4907206
:103A8000CA6001684A6922F001024A61202180F877
:103A90003A10FEF7BFFD002010BD00002DE9F041F7
:103AA00004460068016921F44052E1681143016154
:103AB0002168C86849F20C6290432369A268E569ED
:103AC0001A4363692B431A430243CA602168486959
:103AD00020F44072A06910434861E1696425B1F5A2
:103AE000004F9748974A21684FF032083FD09142E3
:103AF00001D081427CD1FDF7A7FD00EBC00101EBB5
:103B0000001061688900B0FBF1F6FDF79DFD00EB48
:103B1000C00101EB001061688900B0FBF1F0B0FB5F
:103B2000F5F06FF01801484306EB800108EB011037
:103B3000B0FBF5F000F0F006FDF786FD00EBC001EC
:103B400001EB001061688900B0FBF1F0B0FBF5F00B
:103B500006EB0016FDF778FD00EBC00101EB00104D
:103B600061688900B0FBF1F7FDF76EFDD2E091428C
:103B700001D081423DD1FDF767FD00EBC00101EBB3
:103B8000001061684900B0FBF1F0B0FBF5F00601F0
:103B9000FDF75AFD00EBC00101EB00106168490020
:103BA000B0FBF1F7FDF750FD00EBC00101EB001099
:103BB00061684900B0FBF1F0B0FBF5F06FF018015F
:103BC000484307EB800108EBC100B0FBF5F000F0C3
:103BD000F80006EB4006FDF737FD00EBC00101EBF6
:103BE000001061684900B0FBF1F7FDF72DFD3CE0E6
:103BF00055E0FDF711FD00EBC00101EB001061681D
:103C00004900B0FBF1F0B0FBF5F00601FDF704FD53
:103C100000EBC00101EB001061684900B0FBF1F757
:103C2000FDF7FAFC00EBC00101EB001061684900F0
:103C3000B0FBF1F0B0FBF5F06FF01801484307EB73
:103C4000800108EBC100B0FBF5F000F0F80006EBD6
:103C50004006FDF7E1FC00EBC00101EB00106168DC
:103C60004900B0FBF1F7FDF7D7FC00EBC00101EB19
:103C7000001061684900B0FBF1F0B0FBF5F06FF0A7
:103C80001801484307EB800108EBC100B0FBF5F0D9
:103C900000F00700216830448860BDE8F081FDF73E
:103CA000BBFC00EBC00101EB001061688900B0FBB8
:103CB000F1F6FDF7B1FC00EBC00101EB001061680B
:103CC0008900B0FBF1F0B0FBF5F06FF0180148434C
:103CD00006EB800108EB0110B0FBF5F000F0F006F8
:103CE000FDF79AFC00EBC00101EB00106168890050
:103CF000B0FBF1F0B0FBF5F006EB0016FDF78CFC25
:103D000000EBC00101EB001061688900B0FBF1F726
:103D1000FDF782FC00EBC00101EB00106168890037
:103D2000B0FBF1F0B0FBF5F06FF01801484307EB82
:103D3000800108EB0110B0FBF5F000F00F00A9E7DF
:103D4000001401400010014090F83910212901D0E1
:103D5000022070478168B1F5805F016A0BD04A1C70
:103D60000262026809785160C18C491E0904090C7D
:103D7000C1840ED017E009880268C1F308015160C0
:103D800001690029016A02D0491C0162ECE7891C23
:103D9000FBE70168CA6822F08002CA600068C16857
:103DA00041F04001C160002070472DE9F041984684
:103DB00017460E460446069D1DE0681C1BD02DB11B
:103DC000FDF7D2F8A0EB0800A84214D92068C1681A
:103DD00021F4D071C1602068416921F00101416185
:103DE000202084F8390084F83A00002084F8380054
:103DF0000320BDE8F0812068006836EA000004D0A6
:103E00000020B842D9D00020F3E70120F9E70000F4
:103E10000148FEF769BA0000D80000200148FEF70B
:103E200063BA0000180100200148FEF75DBA0000E7
:103E3000580100200148FEF757BA00009801002001
:103E4000FEE70000DFED1B1AB5EEC00AB3EE041A60
:103E5000F1EE10FA02DDB0EE402A01E0B1EE402AA8
:103E6000B5EEC02AF1EE10FA01D2B0EE610A1248A6
:103E700030EEC00A114AD0ED011AC0ED001A80EDF3
:103E8000010A20EE010A3C3810EE101A80ED030AF8
:103E9000914203DD9FED0A0A80ED030A10EE101A2D
:103EA000084A914203D99FED080A80ED030AB1EE5A
:103EB000400A7047000000004800002000803B4599
:103EC00000803B4500803BC500803BC5DFED1B1AF1
:103ED000B5EEC00AB3EE041AF1EE10FA02DDB0EE50
:103EE000402A01E0B1EE402AB5EEC02AF1EE10FA08
:103EF00001D2B0EE610A124830EEC00A114AD0ED8C
:103F0000011AC0ED001A80ED010A20EE010A2C38DA
:103F100010EE101A80ED000A914203DD9FED0A0AAF
:103F200080ED000A10EE101A084A914203D99FED65
:103F3000080A80ED000AB1EE400A70470000000058
:103F40003800002000803B4500803B4500803BC599
:103F500000803BC50FB4054B10B503A9044A029875
:103F600000F018F810BC5DF814FB000001410008D7
:103F7000D400002002E008C8121F08C1002AFAD1AC
:103F800070477047002001E001C1121F002AFBD1D9
:103F9000704700002DE9FF4F89B09B46044600257D
:103FA00006E025280BD05A460B999047641C6D1CDF
:103FB00020780028F5D10DB02846BDE8F08F002705
:103FC000B8460122474900E0074314F8013F203B6F
:103FD00002FA03F00842F7D120782E2819D114F8FC
:103FE000010F47F004072A280ED06FF02F02207827
:103FF000A0F1300109290CD808EB880102EB41013E
:1040000000EB0108641CF2E70A98641C50F8048B6A
:104010000A9020780028CED0642808D0692806D0DD
:1040200075281ED05A460B9990476D1C58E00A9986
:104030004FF00A0901C90A91002802DA40422D21F5
:1040400002E0390504D52B218DF82010012103E071
:10405000F90704D02021F7E78A4608AE0DE00021D9
:10406000FAE70A994FF00A0901C90A91F7E74946A8
:10407000FCF7CAF8303106F8011D0028F7D1ADEB86
:10408000060000F12009780701D44FF00108C84567
:1040900002DDA8EB090000E000208046002706E0D2
:1040A00008A85A46C05D0B9990476D1C7F1C574568
:1040B000F6DB04E030205A460B9990476D1CB8F1AE
:1040C0000001A8F10108F5DC05E016F8010B5A46DD
:1040D0000B9990476D1CB9F10001A9F10109F4DCBD
:1040E000641C65E70928010010B500214DF6BE24C7
:1040F00003E02246521EFDD2491C8142F9D310BD75
:1041000013B54FF6FF73012269460248FEF7AFFA76
:1041100000981CBD98010020FDF7DCF8FFF7FEF9C0
:10412000FEF7AEFDFEF796FDFEF748FDFEF76CFDCF
:10413000FEF778FEFEF7DEFEFEF734FFFEF760FFC7
:10414000FEF7B4FFFEF7E0FFFEF7FEFFFEF78EFE80
:10415000FFF766F8FFF784F8FFF7A0F8FFF7BCF861
:10416000FEF740FEFEF772FC122214491448FEF7D7
:10417000E5F9012213491448FEF728FA01221349F0
:104180001348FEF723FA134C4FF4FA7512220B4929
:104190000B48FEF7D3F909490E48FCF7F9F8284611
:1041A000FFF7A2FF0CA0FFF7D5FE21880CA0FFF7B8
:1041B000D1FE61880AA0FFF7CDFEE7E700060020E8
:1041C000D80000209C05002058010020CE050020CA
:1041D000980100200805002068656C6C6F0D0A00CE
:1041E00025640D0A000000003EB5384C102018214F
:1041F0000094CDE9011001233422A1213448FCF7B9
:104200003DFF10B133A0FFF7A5FE6078000200EE7D
:10421000100A2E48B8EE400A303880ED000AE178E6
:10422000090200EE101AB8EE400A80ED010A617929
:10423000090200EE101AB8EE400A80ED020AE17998
:10424000090200EE101AB8EE400A80ED030A617A06
:10425000090200EE101AB8EE400A80ED040AE17A75
:10426000090200EE101AB8EE400A80ED050AA18995
:1042700000EE101AB8EE400A80ED060AE18900EE61
:10428000101AB8EE400A80ED070A218A00EE101AD3
:10429000B8EE400A80ED080AE17C090200EE101A2F
:1042A000B8EE400A80ED090A617D090200EE101A9D
:1042B000B8EE400A80ED0A0AE17D090200EE101A0C
:1042C000B8EE400A80ED0B0A3EBD000084050020D8
:1042D000B40400200D0A48414C5F4932435F4D65EC
:1042E0006D5F52656164204572726F720D0A000045
:1042F000000000000102030401020304060708098C
:1043000000061016000610166B806B036C001A0274
:104310001B181C101D026A20000000003C4300080E
:1043200000000020D8000000743F0008144400087A
:10433000D800002040090000843F00080000000071
:10434000000000000024F400000000000000000055
:10435000000000000000000000000000000000005D
:10436000000000000000000000000000000000004D
:10437000000000000000000000000000000000003D
:10438000000000000000000000000000000000002D
:10439000000000000000000000000000000000001D
:1043A0000000000000000000000000FF000000000E
:1043B000000000000000000000000000EE021013EA
:1043C000F00A0000000000000000F00A00000000F9
:1043D00000000000D4FE070396000000000000006B
:1043E0000000960000000000000000000000000037
:1043F00000000000000000000000000000000000BD
:1044000000000000000000000000000000000000AC
:0444100000000000A8
:04000005080001AD41
:00000001FF
