:020000040800F2
:100000003855002049030008BF370008432F000877
:10001000BD370008AD050008E14100080000000000
:100020000000000000000000000000008D02000839
:100030003D08000800000000E1020008B93900088E
:1000400063030008630300086303000863030008F8
:1000500063030008630300086303000863030008E8
:1000600063030008630300086303000863030008D8
:1000700069070008630300086303000863030008BE
:10008000750700086303000863030008BD05000846
:10009000B105000863030008630300086303000858
:1000A0006303000863030008630300086303000898
:1000B0006303000863030008630300086303000888
:1000C0006303000863030008630300086303000878
:1000D000630300088141000899410008B14100080C
:1000E0006303000863030008630300086303000858
:1000F0006303000863030008630300086303000848
:100100006303000863030008630300086303000837
:100110006303000863030008B53A0008630300089E
:1001200063030008810700088D07000863030008C7
:10013000630300086303000863030008D505000893
:10014000C90500086303000863030008630300088F
:10015000630300086303000863030008C941000843
:1001600063030008630300086303000863030008D7
:100170006303000863030008630300080000000035
:1001800063030008630300086303000863030008B7
:1001900063030008630300086303000863030008A7
:1001A00000000000000000006303000800F002F8F7
:1001B00000F05CF80AA090E8000C82448344AAF1A5
:1001C0000107DA4501D100F051F8AFF2090EBAE8A3
:1001D0000F0013F0010F18BFFB1A43F0010318477B
:1001E000DC650000FC6500000A444FF0000C10F8CC
:1001F000013B13F0070408BF10F8014B1D1108BFA5
:1002000010F8015B641E05D010F8016B641E01F844
:10021000016BF9D113F0080F1EBF10F8014BAD1C94
:100220000C1B09D16D1E58BF01F801CBFAD505E0B2
:1002300014F8016B01F8016B6D1EF9D59142D6D30C
:10024000704700000023002400250026103A28BF34
:1002500078C1FBD8520728BF30C148BF0B60704738
:100260001FB506F021FA1FBD10B510BD00F016F93C
:100270001146FFF7F5FF04F0B1FF00F034F903B4C5
:10028000FFF7F2FF03BC00F037F900002B4B1968B1
:100290000868B0E8F04F80F30988BFF36F8F4FF024
:1002A000000080F3118870470000000006480068D5
:1002B000006880F3088862B661B6BFF34F8FBFF362
:1002C0006F8F00DF00BF00BF08ED00E0DFF80C001B
:1002D000016841F470010160704700BF88ED00E0E3
:1002E000EFF30980BFF36F8F144B1A681EF0100FE5
:1002F00008BF20ED108A20E9F04F106008B44FF0DD
:10030000500080F31188BFF34F8FBFF36F8F05F05C
:100310004BFF4FF0000080F3118808BC1968086893
:10032000B0E8F04F1EF0100F08BFB0EC108A80F359
:100330000988BFF36F8F704700BF00BFC000002067
:10034000EFF30580704700000948804709480047DF
:10035000FEE7FEE7FEE7FEE7FEE7FEE7FEE7FEE775
:10036000FEE7FEE704480549054A064B70470000D2
:10037000613A0008AD010008384F002038550020D0
:10038000385100203851002010B5203AC0F00B80C1
:10039000B1E81850203AA0E81850B1E81850A0E889
:1003A0001850BFF4F5AF5FEA027C24BFB1E81850E3
:1003B000A0E8185044BF18C918C0BDE810405FEA53
:1003C000827C24BF51F8043B40F8043B08BF7047CF
:1003D000D20728BF31F8023B48BF11F8012B28BFD4
:1003E00020F8023B48BF00F8012B704702F0FF03E2
:1003F00043EA032242EA024200F02CB84FF0000226
:1004000000B5134694469646203922BFA0E80C500A
:10041000A0E80C50B1F12001BFF4F7AF090728BFE5
:10042000A0E80C5048BF0CC05DF804EB890028BF61
:1004300040F8042B08BF704748BF20F8022B11F08A
:10044000804F18BF00F8012B704770477047704706
:100450004FF000020429C0F0128010F0030C3FF4AA
:10046000CFAFCCF1040CBCF1020F18BF00F8012B88
:10047000A8BF20F8022BA1EB0C01FFF7C1BF5FEA78
:10048000C17C24BF00F8012B00F8012B48BF00F805
:10049000012B704700487047D84E00207546FFF783
:1004A000F9FFAE4605006946534620F00700854631
:1004B00018B020B5FFF756FFBDE820404FF000060A
:1004C0004FF000074FF000084FF0000B21F007013C
:1004D000AC46ACE8C009ACE8C009ACE8C009ACE87F
:1004E000C0098D46704710B50446AFF30080204622
:1004F000BDE81040FFF7C3BE01491820ABBEFEE7C0
:100500002600020070470000064804A140F8131FAF
:1005100005A1C16005A18161704700006779726F14
:1005200000000000A04E0020616363006D61670061
:10053000352202490248FFF727BF000000001E08CD
:10054000A04E00203521014800F002B8A04E002046
:100550002DE9F041124C06460D46204600F0FEFA09
:10056000074601F0A9F90F4800210160022101614D
:100570000121C0E902710C4901F008F940B1FEE720
:10058000002332782146184601F058F9641C761C85
:100590006D1EF5D201F048F90020BDE8F0810000A1
:1005A00000001E083446002004010020FEE7000081
:1005B000014800F005BC000068010020014800F07F
:1005C000FFBB000068010020014800F0F9BB0000FB
:1005D000A8010020014800F0F3BB0000A8010020A2
:1005E00010B54FF4D872036802EB01129B5813F058
:1005F0000404436B9C600468436BA45854D0E40823
:100600005C6003689A58436B02F00202DA604FF4B0
:10061000DA72036802EB01129B58446B03F00F037C
:10062000236103689A58436BC2F30722DA614FF4DF
:10063000DC72036802EB01129B58446B237503685C
:100640009B58446B1B0A637503689B58446B1B0CD7
:10065000A37503689A58436B120EDA754FF4DE7275
:10066000036802EB01129B58446B237603689B5886
:10067000446B1B0A637603689B58446B1B0CA37680
:1006800003689A58436B120EDA762022002901681B
:100690000DD00A6101684A6922F010024A6190F89F
:1006A0003810222909D021E0640D1C60A9E7CA6036
:1006B00001684A6922F00202F0E701684A6922F4FF
:1006C00080724A6101684A6922F400724A610168D5
:1006D0004A6922F480624A6101684A6922F4006230
:1006E0004A6101684A6922F400424A6190F8381070
:1006F000322907D05FF0010180F8381000F078FD52
:10070000002010BD1221F7E710B501684A6922F0F8
:1007100001024A6190F83810122918D101684A691B
:1007200022F480724A6101684A6922F400724A61C7
:1007300001684A6922F480624A6101684A6922F4C8
:1007400000624A6101684A6922F400424A6190F8F5
:100750003810322906D0012180F8381000F098FEB8
:10076000002010BD2221F7E7014800F0A5BE0000DF
:1007700000040020014800F09FBE0000A0030020FC
:10078000014800F099BE000060040020014800F01C
:1007900093BE00004003002001681823CAB2103A3B
:1007A000B2FBF3F2054B6FF30901032A9B5CC365AF
:1007B00000D9091D816508467047000014670008CC
:1007C00010B5014600208B698A6A4FF0C07453B19E
:1007D000B3F5005F15D072B1012A0CD0022A0AD0FD
:1007E000032A09D104E01AB1012A06D0022A03D152
:1007F000C96AC90100D5012010BDC96AA142FAD059
:1008000010BD002AF7D0012AF2D0022AF3D0032A21
:10081000F3D010BD30B50468256825F48025256027
:10082000046863608368402B036803D099600068A4
:10083000C26030BD9A600068C16030BD70470A7800
:1008400052B94A7842B98A7832B9CA7822B90A7953
:1008500012B94A79002A39D00A88C2F30A02A2F5ED
:10086000806202804A788B78D20842EA4312C2F34F
:100870000A02A2F5806242808A78CB78920942EA25
:1008800083020B7942EA8322C2F30A02A2F5806254
:1008900082800A794B79520842EAC312C2F30A02F3
:1008A000A2F58062C2804A79920902724A79C2F343
:1008B00001124272CA8842810A8982814A89C281B0
:1008C0000A7B02744A7B4274C989418270470000E6
:1008D00010B505F001FE064C2168884207D105F0ED
:1008E0000FFEA168401AE06021690844206110BD34
:1008F00080000020FEE70000002229B1012922D05B
:10090000022923D04FF440720B2800D9001D114951
:100910000B6823F440730B600B6813430B600A6889
:1009200022F0F8020A600A68F82393FAA3F3B3FAF4
:1009300083F3984040F0020002430A60086840F4E4
:100940008030086070474FF48072DDE74FF400722A
:10095000DAE70000103C02401348016889050FD512
:10096000016821F400710160016841F400610160D7
:10097000016821F400610160016841F400710160C7
:10098000016849050FD5016821F4806101600168A3
:1009900041F480510160016821F4805101600168D7
:1009A00041F4806101607047003C02400E4A1368C8
:1009B00023F44073136003290DD0012911680FD06F
:1009C00041F40041116011684FF4803343EA002084
:1009D000014311607047116848F204031943F1E7BD
:1009E00041F00401EEE70000103C0240064A1368A3
:1009F00023F44073136013681360136843F001031A
:100A00001360017070470000103C0240084910B5A7
:100A10000C6824F440740C600C6844F440740C605E
:100A20000C6844F001040C600260436010BD0000DB
:100A3000103C0240074A136823F4407313601368A4
:100A400043F480731360136843F001031360018063
:100A500070470000103C0240074A136823F44073BB
:100A60001360136843F400731360136843F00103C9
:100A70001360016070470000103C02401F49086885
:100A8000C043C2061E4805D4C26942F01002C261CA
:100A900010220A600A68D243920605D4C26942F065
:100AA0000802C26120220A600A68D243520605D4B5
:100AB000C26942F00402C26140220A600A68D2435D
:100AC000120605D4C26942F00202C26180220A60A5
:100AD0000A68D243D20506D4C26942F00102C2615B
:100AE0004FF480720A600A68D243920705D4C26943
:100AF00042F02002C2610220086070470C3C0240B4
:100B00004C44002070B5134904460020C86100F031
:100B1000D3FF0646104D09E0601C07D024B100F059
:100B2000CBFF801BA04201D9032070BD2868C043C1
:100B3000C003F1D52868C00701D0012028602968CA
:100B40004FF4F970884301D0002070BDFFF796FF85
:100B5000012070BD4C4400200C3C024010B5002127
:100B6000A0F100634FF48042934204D3454901440D
:100B7000914201D2012182E043490144914201D2D4
:100B800002217CE041490144914201D2032176E0F7
:100B90003F494FF480330144994201D204216EE071
:100BA0003C4944184FF400318C4201D2052166E0E3
:100BB000394C04448C4201D2062160E0374C044495
:100BC0008C4201D207215AE0354C04448C4201D2B8
:100BD000082154E0334C04448C4201D209214EE0F8
:100BE000314C04448C4201D20A2148E02F4C044489
:100BF0008C4201D20B2142E0A0F10164944201D267
:100C00000C213CE02A4C0444944201D20D2136E0F0
:100C1000284C0444944201D20E2130E0264C044476
:100C2000944201D20F212AE0244A02449A4201D27E
:100C3000102124E0224A02448A4201D211211EE0FE
:100C4000204A02448A4201D2122118E01E4A02447C
:100C50008A4201D2132112E01C4A02448A4201D284
:100C600014210CE01A4A02448A4201D2152106E0FE
:100C7000184A1044884201D2162100E01721084684
:100C800010BD000000C0FFF70080FFF70040FFF735
:100C90000000FFF70000FEF70000FCF70000FAF785
:100CA0000000F8F70000F6F70000F4F70000F2F794
:100CB00000C0EFF70080EFF70040EFF70000EFF71C
:100CC0000000EEF70000ECF70000EAF70000E8F79C
:100CD0000000E6F70000E4F7F0B50A7D012090403F
:100CE000344A136843F001031360136823F47C5300
:100CF000136013684C6A43EA042313602D4B1C33C2
:100D00001C6884431C602B4D2B4CCE690C35A6B956
:100D10002E6886432E608F894E6867F31F464F69A1
:100D200004EBC707C7F840660F890E6867F31F46D4
:100D30004F6904EBC707C7F84466CE69012E14D18A
:100D40002E6806432E600E884D6866F31F454E6977
:100D500004EBC606C6F840560E89CD6866F31F45FB
:100D60004E6904EBC604C4F84456124C8D69241D28
:100D7000002D256806D0054325600E4C0D691434FE
:100D800015B104E08543F7E72568854325600D69C3
:100D9000012D02D1256805432560096A012902D188
:100DA000196801431960106820F0010010600020EC
:100DB000F0BD000000660040006000407047000089
:100DC00010B5044600684169C943C90714D1826857
:100DD0005849914368D000218368574A9A4365D0A7
:100DE000002283685548984362D000201143014394
:100DF00002D02046FFF788FC2068C168406911F0E6
:100E0000030FC0F3400004D018B100212046FFF7C3
:100E1000E7FB21680869496910F0030FC1F300116D
:100E200004D019B101212046FFF7DAFB206881695F
:100E3000426911F0010FC2F300234269C2F3C032CC
:100E400005D023B11AB1E16B41F00101E163816981
:100E5000C1F3400341694269C1F34021C2F3C0328A
:100E60002BB121B11AB1E16B41F00201E16381695B
:100E70004269C1F38001C2F380234269C2F3C032E8
:100E800029B123B11AB1E16B41F00401E163816939
:100E900011F0700F0ED0002142694369C2F3C022E5
:100EA000C3F3C03341B127E0012195E7012298E760
:100EB00001209BE70121EFE7F2B1EBB1816901F07D
:100EC0007001402929D006DC102909D020290BD037
:100ED00030290DD11DE0502923D0602908D124E00C
:100EE000E16B41F0080102E0E16B41F01001E163C8
:100EF000816921F070018161E06B002808D02168D0
:100F000004204860012084F838002046FFF756FF8F
:100F100010BDE16B41F02001E9E7E16B41F04001D8
:100F2000E5E7E16B41F08001E1E7E16B41F48071BD
:100F3000DDE70000030000040003000800000310C8
:100F40002DE9F041040004D094F83800002518B1D0
:100F500007E00120BDE8F08184F83950204600F018
:100F600093F8022084F838002068016821F002011B
:100F700001602068016841F00101016000F09CFD02
:100F80000746032605E000BF00F096FDC01B0A28B7
:100F900063D820684068C007F6D020684168C90758
:100FA00068D0A169012901683FD021F0800101606A
:100FB000E0690128206801683AD021F04001016011
:100FC000206A01282068016835D021F020010160E5
:100FD000606A01282068016830D021F010010160AA
:100FE000A06A0128206801682BD021F00801016067
:100FF000E06A01282068016826D021F00401016020
:10100000D4E902010843D4E904121143084361689A
:10101000491E08432168C8612068016821F0010168
:10102000016000F049FD07461CE041F08001BEE789
:1010300041F04001C3E741F02001C8E741F0100151
:10104000CDE741F00801D2E741F00401D7E700BF46
:1010500000F032FDC01B0A2804D904F8386F0320C1
:10106000657077E720684068C007F1D12068406864
:10107000C00703D0042084F838006AE7E563012044
:1010800084F83800002065E7F0B5324B0768DFF8D8
:10109000C0C018680322022409252F490026401CDD
:1010A00087B0674521D11860012807D1086840F052
:1010B00000700860086800F0007005908DE854002A
:1010C000CDE903256946254800F00AFC00220521E8
:1010D000132000F08BFD132000F07CFD0022052181
:1010E000142000F083FD14202EE0DFF874C0674563
:1010F0002CD10F6847F080670F600F68012807F058
:1011000080670597186007D1086840F00070086094
:10111000086800F0007005904FF440508DE85100D1
:10112000CDE9032569460F4800F0DAFB002211469D
:101130003F2000F05BFD3F2000F04CFD00221146F7
:10114000402000F053FD402000F044FD07B0F0BD0A
:10115000006400400400002040380240000C0240BF
:10116000006800400004024010B590F83820012AC1
:1011700001D0122A39D190F83920012A35D0012224
:1011800080F8392090F83820122A29D05FF0220206
:1011900080F838200022C26303685C6944F48074DC
:1011A0005C6103685C6944F400745C6103685C69B9
:1011B00044F480645C6103685C6944F400645C61CD
:1011C00003685C6944F400445C6180F8392000687D
:1011D0000029416906D041F010014161002010BD95
:1011E0003222D5E741F00201F7E7022010BD0000EE
:1011F00070B5426B014640F205251068384CA0F2EC
:101200000523A8422DD00ADCA0F50072013A0ED0C9
:10121000012A0CD0022A0AD0032A54D107E0012B5C
:1012200024D0022B28D0B3F5FE7F4CD133E0401EF2
:10123000C0B200EB4002207002EBC002294800EB74
:101240008200826A531C8362322A02D803F01AFB9E
:1012500001E003F0EDFA207810F1020003F06EFADD
:1012600031E0214803F0E4FA0920F7E71E482C3862
:1012700003F0DEFA0A20F1E71B4A2C32906A401C88
:1012800090620A28104602D803F0FCFA01E003F04D
:10129000CFFA0B20E2E75069D17D00BA20F0FF00C1
:1012A000084300EE100ADFED110A0120B8EEC00A73
:1012B00020EE200A84ED010A03F040FA0C4894ED78
:1012C000010A80ED080A0B480068416941F00201FB
:1012D000416109480068416941F00201416170BD06
:1012E000FC00002080440020DC4500200AD7233C7D
:1012F0002806002068010020A80100202DE9F05FE9
:101300000E46016804468868400105D488680001DB
:1013100002D48868C00067D594F8390001280ED03F
:10132000012784F8397094F8380022280AD0122056
:1013300084F838008868400106D500250AE00220BC
:10134000BDE8F09F3220F3E78868000101D5012550
:1013500000E002254FF4C07000EB05100A5802F0BF
:1013600001020A50216B8A68EAB3D4F800C05CF825
:1013700000301343CA68496842EAC1010B434CF884
:101380000030216B0A7C02F00F020A614FF4C27137
:10139000226801EB0511535823F00F0353502268C4
:1013A0005358D4F830C0DCF810C043EA0C03535053
:1013B000216B4FF4C47303EB05130A7DD1F81510AC
:1013C00042EA01212268D150216B4FF4C67303EB2E
:1013D00005130A7ED1F8191042EA01212268D15082
:1013E00021680A5801E00DE046E042F001020A508F
:1013F00000F062FB81464FF00008DFF888A0DFF8BC
:1014000088B019E022681358D1F80CC0098843EA63
:101410000C0343EA41511150B3E7701C0CD02EB1BC
:1014200000F04AFBA0EB0900B04205D9032084F884
:10143000380084F8398083E795B12068012D8168F0
:1014400013D0124888430028E7D194F83800322896
:101450000ED084F8387000BF84F8398000206FE720
:10146000206881682AEA0100EDE72BEA0100EAE73B
:10147000222084F83800EFE7042084F838000120A7
:101480005EE70000030000040003000800000310F2
:10149000704790F83510022903D080214165012062
:1014A0007047052180F835100068016821F00101BE
:1014B00001600020704700002DE9F84304464FF01A
:1014C0000008CDF8008064484FF41651A56D0068FF
:1014D000B0FBF1F72E6894F85C10082000FA01F1D7
:1014E00031420FD021680A6852070BD50A6822F0F2
:1014F00004020A6094F85C108840A860606D40F0B7
:101500000100606594F85C1054488840304208D06F
:1015100021684969090604D5A860606D40F00200A1
:1015200060654E4894F85C10C01C8840304208D07A
:1015300021680968890704D5A860606D40F004003F
:10154000606594F85C1010208840304218D0216803
:101550000968090714D5A86020680168490304D503
:101560000068000308D5A16C07E00168C90503D431
:10157000016821F008010160216C09B1204688470B
:1015800094F85C102020884030424FF0010631D0A2
:1015900021680968C9062DD5A86094F8350005288A
:1015A0002068016806D0490347D5006800031DD4B0
:1015B000616C1CE021F0160101602068416921F096
:1015C00080014161206C08B9A06C20B120680168DD
:1015D00021F00801016094F85C103F208840A86069
:1015E00084F8348084F83560216D1FE0E16B09B127
:1015F00020468847606D00282BD0606DC00714D04E
:10160000052084F835002068016821F0010101609F
:101610000098401C0090B84203D820680068C007BA
:10162000F6D184F8348084F83560E16C002910D05C
:1016300001B02046BDE8F04308470168C905D5D48C
:10164000016821F01001016084F8348084F835606D
:10165000CCE7BDE8F883000098000020010080007E
:101660002DE9F041044600F027FA06465CB100255A
:1016700084F83450022084F835002068016821F095
:10168000010101600DE00120BDE8F08100F014FAD5
:10169000801B052805D920206065032084F83500CB
:1016A000F2E720680068C007F0D1226811681F487F
:1016B0000140D4E901031843D4E903363343184306
:1016C00063691843A3691843E3691843236A1843FD
:1016D0000843616A042903D1D4E90B131943084371
:1016E000106020684069666A20F0070130460E43AA
:1016F000012704280AD1A06A06432046FFF760F8B4
:1017000020B14020606584F83570BCE720684661F0
:101710002046FFF741F894F85C203F21914081601A
:10172000656584F835700020AEE700003F8010F05A
:1017300070B5044690F83400002501280CD0012033
:1017400084F8340094F835600020012E06D084F827
:1017500034000225284670BD022070BD022684F8A0
:10176000356060652046FFF755F82068016841F054
:1017700001010160EEE731B500F09EF9044600F08A
:101780009BF90099001B8842F9D338BD2DE9F04739
:10179000044623480F46017E01290AD001218046D4
:1017A00001764CF250394846FFF7ACF9020003D0FD
:1017B00030E00220BDE8F0874FF0FF30386020684D
:1017C000184D012801D0A6681DE0207C6168FFF754
:1017D000EDF84846FFF796F90246286848F20401FA
:1017E0008843286014E0217C3046FFF785F848469E
:1017F000FFF788F90200286820F0FA00286001D07D
:101800003E6005E0761CD4E902100844B042EAD8F4
:10181000FFF7A2F8002188F818101046CAE7000068
:101820004C440020103C02400348016841F0004154
:101830000160002070470000103C02402DE9F04795
:101840001B4E05461446307E1F468946012808D0A7
:10185000012030764CF250384046FFF753F918B16A
:1018600014E00220BDE8F0879DB1012D16D0022DB5
:1018700019D022463B464846FFF7C8F84046FFF7D6
:1018800041F90C490A6822F001020A600021317610
:10189000E8E7E1B24846FFF7A9F8EFE7A1B248460A
:1018A000FFF7C8F8EAE721464846FFF7D5F8E5E72D
:1018B0004C440020103C024006480068002807DA2B
:1018C000044805490C380160044901600020704754
:1018D00001207047103C024023016745AB89EFCDE2
:1018E0002DE9F84FDFF890B100224FF001084FF0DA
:1018F000030A4FF00F090BF1040E00BF0B6808FA42
:1019000002F42340A3426ED14D68022D01D0122D66
:101910000ED1D50800EB850CDCF820505607F70EE9
:1019200009FA07F6B5430E69BE402E43CCF8206095
:10193000066855000F790AFA05FC07F0030726EA46
:101940000C06AF40374307604E68012E05D0022ECB
:1019500003D0112E01D0122E0ED18768CE6827EA4F
:101960000C07AE403E4386604668A6430C79C4F33C
:101970000014944034434460C4688E6824EA0C0424
:10198000AE402643C6604C68E4006FD53B4C2568EA
:1019900045F480452560246822F0030504F4804462
:1019A0000094374C2E19D6F8084895072F0F09FADE
:1019B00007F5AC43334DA84201D100252EE0324D4E
:1019C000A84201D1012529E0304DA84201D10225CC
:1019D00024E02F4DA84201D103251FE02D4DA84240
:1019E00002D104251AE041E02B4DA84201D1052582
:1019F00014E02A4DA84201D106250FE0284DA84247
:101A000001D107250AE0274DA84201D1082505E0AC
:101A1000254DA84201D1092500E00A25BD402543F6
:101A2000C6F80858DBF800405D464E689C43F60354
:101A300000D51C432C60DEF8004075464E689C4380
:101A4000B60300D51C432C600B4D08352C684E683E
:101A50009C43F60200D51C432C60074D0C352C68C6
:101A60004E689C43B60200D51C432C60521C102AC1
:101A7000FFF444AFBDE8F88F003C01404438024019
:101A80000030014000000240000402400008024013
:101A9000000C0240001002400014024000180240F6
:101AA000001C024000200240002402400AB1816173
:101AB00070470904FBE70000014800687047000018
:101AC000F800002002480168491C016070470000CE
:101AD000F80000200B4810B5016841F40071016066
:101AE000016841F480610160016841F48071016026
:101AF000032000F09BF8002000F006F800F03EF80C
:101B0000002010BD003C024010B5014688B0002204
:101B1000362000F06BF8362000F05CF81348002403
:101B2000016841F010010160006805A900F0100093
:101B30000690684600F0A2F900F0C6F90C49400092
:101B4000B0FBF1F10C480B4A491E026040F2E7324B
:101B5000C0E90324C0E9011400F04FFD10B10120D9
:101B600008B010BD044800F064FDF9E740380240B9
:101B700040420F00001000402C01002010B503204F
:101B800000F054F8002211466FF00B0000F02EF820
:101B9000002211466FF00A0000F028F800221146DA
:101BA0006FF0090000F022F800221146501F00F0EB
:101BB0001DF800221146101F00F018F800220F2116
:101BC000901E00F013F800220F21BDE81040501EB7
:101BD00000F00CB800F01F02012191404009800084
:101BE00000F1E020C0F8001170470000F0B40E4B87
:101BF0001B680C46C3F30223C3F10705042D00D96B
:101C00000425191D072901D2002300E0DB1E01264F
:101C100006FA05F1491E214099409E40761E164065
:101C20003143F0BC01F0CCBD0CED00E0064900F002
:101C3000070208684FF6FF03184040EA0220034AF3
:101C400010430860704700000CED00E00000FA054A
:101C5000BFF34F8F05480168054A01F4E061114365
:101C60000160BFF34F8F00BFFDE700000CED00E007
:101C70000400FA052DE9F8431E48016841F080513F
:101C800001600068012600F080500090300490FA56
:101C9000A0F0194FB0FA80F047F82060FFF70CFF72
:101CA00005464FF47A78154C05E000BFFFF704FFB6
:101CB000401B404515D86068C003F7D54FF400308D
:101CC00090FAA0F0B0FA80F047F82060FFF7F4FE39
:101CD0000546464608E000BFFFF7EEFE401BB04257
:101CE00002D90320BDE8F88360688003F4D50020A2
:101CF000F8E700004038024000000E42007000404B
:101D00002DE9F047DFF8649105460F46D9F8000049
:101D100000F00F01F8B28046B94208D2014689F8B6
:101D20000010D9F8000000F00F00B84274D12878F4
:101D30004F4C800705D52068A96820F0F0000843C3
:101D400020602878C00759D04949686808390128B7
:101D50001AD002281BD0032819D009688907002946
:101D60005ADA216821F0030101432160FFF7A4FE44
:101D70006968064641F28830012911D002291DD038
:101D80000329824627D035E009688903E7E7096817
:101D90008901E4E7FFF790FE811B514501D926E058
:101DA00082462068C0F381000128F3D126E000BFFD
:101DB000FFF782FE811B514501D918E08246206859
:101DC000C0F381000228F3D118E000BFFFF774FED2
:101DD000811B51450BD82068C0F381000328F5D141
:101DE0000CE000BFFFF768FE811B514502D90320BC
:101DF000BDE8F087206810F00C0FF3D1D9F800107F
:101E0000484601F00F01B94208D980F80080006807
:101E100000F00F00B84201D00120E9E72878400720
:101E200005D52068E96820F4E05008432060287850
:101E3000000706D52068296920F4604040EAC10007
:101E4000206000F071F82168F02292FAA2F201F00D
:101E5000F001B2FA82F2D140064A515CC84006490C
:101E600008600020FFF750FE0020C1E7003C024060
:101E70000838024004670008980000200F22026022
:101E80000C4A136803F003034360136803F0F00384
:101E90008360136803F4E053C36012684FF4E053A7
:101EA00003EAD20202610448006800F00F000860F3
:101EB0007047000008380240003C024001480068BA
:101EC0007047000098000020084809490068096828
:101ED0004FF4E05292FAA2F201F4E051B2FA82F227
:101EE000D140044A515CC84070470000980000206F
:101EF0000838024004670008084809490068096872
:101F00004FF4604292FAA2F201F46041B2FA82F216
:101F1000D140044A515CC84070470000980000203E
:101F2000083802400467000830B51948006810F00E
:101F30000C01184812D0184C04290ED008290DD1D4
:101F40001349091F0A6802F03F030A68550247F661
:101F5000C07204D5B4FBF3F003E0204630BDB0FB03
:101F6000F3F00B680968134092FAA2F2B2FA82F217
:101F7000D34058434FF4403292FAA2F201F4403178
:101F8000B2FA82F2D140491C4900B0FBF1F030BDF9
:101F9000083802400024F400001BB7002DE9F84F78
:101FA0000446DFF8CC820078A8F1040BC007ABF13F
:101FB000040537D0D8F800104046C1F3810101294B
:101FC00008D00068C0F3810002280AD1DBF80000C5
:101FD000400206D52868800324D56068002878D0A0
:101FE00020E0A3492079891F0870606868B1FFF775
:101FF00063FD064605E000BFFFF75EFD801B642819
:1020000068D828688003F7D50CE0FFF755FD064631
:1020100005E000BFFFF750FD801B6428F0D828685A
:102020008003F7D42078934E80074FF0010A4FF0D9
:10203000000742D5D8F80010404611F00C0F08D028
:102040000068C0F3810002280AD1DBF800004002DA
:1020500006D42868800714D5E068012839D110E03B
:10206000E068D8B1C6F800A0FFF726FD814605E07C
:10207000FFF722FDA0EB09000228C1D828688007DD
:10208000F6D52868F82292FAA2F22169B2FA82F211
:1020900020F0F8009140084328600EE03760FFF719
:1020A0000BFD814606E000BFFFF706FDA0EB09002F
:1020B00002280FD828688007F6D42078000728D592
:1020C0006D486169A1B1C0F800A0FFF7F5FC814639
:1020D00008E0CAE079E000BFFFF7EEFCA0EB0900E2
:1020E000022872D862486C3000688007F4D510E08E
:1020F0000760FFF7E1FC814606E000BFFFF7DCFC6C
:10210000A0EB0900022860D859486C3000688007AD
:10211000F4D42078400749D555483830016841F05B
:1021200080510160006800F08050009053480168C1
:1021300041F480710160FFF7BFFC814606E000BFFB
:10214000FFF7BAFCA0EB090002283ED84B48006814
:10215000C005F5D5DFF81891207A09F1680989F8EA
:102160000000A06888B1FFF7A7FC009008E000BF5E
:10217000FFF7A2FC0099411A41F2883081426CD8E5
:10218000D9F800008007F3D510E0FFF795FC009028
:1021900008E000BFFFF790FC0099411A41F2883037
:1021A00081425AD8D9F800008007F3D4A069E0B37F
:1021B000D8F80010C1F38101022956D002283766F1
:1021C00004D0FFF779FC04464AE046E0FFF774FCD0
:1021D000074604E0FFF770FCC01B02283DD82868C2
:1021E0008001F7D4D4E90701084347F6C07292FA98
:1021F000A2F2616AB2FA82F29140A26A4FF0FF3312
:1022000003EB52024FF4403393FAA3F3B3FA83F390
:102210009A40114308434FF0706292FAA2F2E16AC9
:10222000B2FA82F29140084300E01CE0CBF80000D3
:10223000C6F860A0FFF740FC044604E0FFF73CFC52
:10224000001B022809D828688001F7D50BE000BFE1
:10225000FFF732FC001B022802D90320BDE8F88FEB
:1022600028688001F4D40020F8E70120F6E7000098
:102270000838024000004742800E4742007000408C
:1022800070B5040005D00025A56294F8510010B186
:1022900006E0012070BD84F85050204600F030F870
:1022A000022084F851002068016821F0400101609B
:1022B000D4E901010843D4E90312114308436169D9
:1022C0000843218B01F400710843E1690843216A46
:1022D0000843A16A084321680860A069042101EA53
:1022E0001040616A0843216848602068C16921F490
:1022F0000061C1616565012084F85100002070BD56
:1023000000B500680E4987B0884217D10D480021FA
:10231000026842F480120260006800F480100590A8
:102320004FF4607000900220CDE90101032003907A
:102330000520049069460448FFF7D2FA07B000BDB3
:102340000050014044380240001402402DE9F84F8B
:10235000044690F8500000260A9F9A4693460D4680
:102360004FF0010801280ED0012084F85000FFF73B
:10237000A3FB814694F85100616801280CD0B1F5A7
:10238000827F07D102E00220BDE8F88FA16809B979
:10239000042801D00226BDE055B1BBF1000F07D0E3
:1023A000BAF1000F04D094F85100012802D004E0E3
:1023B0000126AFE0052084F8510000206065C4F8D4
:1023C00038B0A4F83EA0A4F83CA02563A4F836A039
:1023D000A4F834A02064606420680168490603D42E
:1023E000016841F040010160E068B0F5006F60688D
:1023F00004D0E8B3E08E01283BD06AE010B1E08E53
:1024000001282ED1216835F8020BC860E08E401EED
:10241000E08626E0B8F1000F0DD0E08E58B12068BC
:102420008168890707D535F8021BC160E08E401E20
:10243000E0864FF00008E08F58B120688168C90736
:1024400007D0C0682BF8020BE08F401EE0874FF0EA
:102450000108781C05D0FFF72FFBA0EB0900B8425C
:1024600046D2E08E0028D5D1E08F0028D2D136E0C8
:10247000FFE7216815F8010B0873E08E401EE08627
:1024800027E000BFB8F1000F0DD0E08E58B12068F2
:102490008168890707D515F8011B0173E08E401E7E
:1024A000E0864FF00008E08F58B120688168C907C6
:1024B00007D0C0680BF8010BE08F401EE0874FF09B
:1024C0000108781C05D0FFF7F7FAA0EB0900B84225
:1024D0000ED2E08E0028D5D1E08F0028D2D13B4625
:1024E000012202212046CDF8009001F095F908B1B3
:1024F00003260FE04A463946204601F07DF918B11F
:1025000001262020606505E0A06818B92068C16830
:1025100080680090012084F85100002084F8500069
:10252000304631E74FF0E0210428086903D020F05D
:1025300004000861704740F00400FAE710B5401E3F
:10254000B0F1807F01D3012010BD4FF0E024606125
:102550000F21601701F034F90020A06107202061ED
:10256000002010BD7047704730B590F83820012A20
:1025700019D0012200F8382F02234370D1E900342A
:102580002343D1E902452C4323430C6923434C697F
:10259000896923430B4350F8381C4B644270002177
:1025A0000170084630BD022030BD30B590F83820AB
:1025B000012A20D0012280F83820022380F8393007
:1025C00003685C6824F070045C6003685C680D68F4
:1025D0002C435C6003689C6824F080049C60036862
:1025E0009C6849680C439C6080F83920002180F881
:1025F0003810084630BD022030BD10B5040003D0AD
:1026000094F8390010B107E0012010BD002084F8D3
:102610003800204600F00CF8022084F83900211D13
:10262000206801F04DFA012084F83900002010BD27
:1026300070470168CA6842F00102CA600068016818
:1026400041F00101016000207047704770B50446F9
:10265000006801694FF00005C943890715D4C168B6
:10266000C943890711D4E91E016101202076206841
:1026700080698007204602D0FFF7E7FF04E000F002
:102680001DF9204600F0ECF9257620680169C94360
:10269000490717D4C168C943490713D46FF004012F
:1026A0000161022020762068806910F4407F204676
:1026B00002D0FFF7CAFF04E000F000F9204600F066
:1026C000CFF9257620680169C943090716D4C16886
:1026D000C943090712D46FF0080101610420207674
:1026E0002068C0698007204602D0FFF7AEFF04E0F3
:1026F00000F0E4F8204600F0B3F92576206801697F
:10270000C943C90617D4C168C943C90613D46FF0B9
:1027100010010161082020762068C06910F4407F14
:10272000204602D0FFF791FF04E000F0C7F82046F2
:1027300000F096F9257620680169C943C90708D1D8
:10274000C168C943C90704D1891E0161204600F050
:10275000A5F920680169C943090609D4C168C943BC
:10276000090605D46FF0800101612046FFF7FAFEEB
:1027700020680169C943490609D4C168C9434906AB
:1027800005D46FF040010161204600F091F9206806
:102790000169C94389060BD4C168C943890607D4B6
:1027A0006FF0200101612046BDE87040FFF7DBBEFD
:1027B00070BD0000F0B501680024022501263548EF
:1027C00085B0B1F1804F08D0334A91421CD13021FD
:1027D0000091CDE9015469463FE040F6084100917F
:1027E000CDE90154CDE903466946FFF779F84FF486
:1027F00000400090CDE90154CDE9034669462748E1
:10280000FFF76EF805B0F0BD254A914211D14FF4A3
:1028100040710091CDE901546946CDE90345FFF7C8
:102820005FF84FF440500090CDE9015469461D48CF
:1028300013E01D4A1D481E4F914211D10096CDE96B
:1028400001546946CDE90345FFF74AF84FF4E050DB
:102850000090CDE9015469463846CDE90345CFE7FC
:10286000144A914208D1E4210091CDE90154032199
:10287000CDE903416946C3E70F488142C2D14FF415
:1028800010700090CDE901540920CDE9034069465C
:102890003846B5E700040240000400400000024052
:1028A00000080040000C0240000C004000200240E4
:1028B000001C02400004014000180040704770B541
:1028C000044690F838000D4601280DD0012684F802
:1028D0003860022084F8390042B1042A18D0082A4E
:1028E0002AD00C2A4DD139E0022070BD206801F0B9
:1028F00053F92068816941F008018161206881698C
:1029000021F004018161206881692A69114311E085
:10291000206801F06DF92068816941F400618161EE
:102920002068816921F480618161206881692A6958
:1029300041EA0221816124E0206801F08BF92068DE
:10294000C16941F00801C1612068C16921F0040139
:10295000C1612068C1692A69114311E0206801F052
:10296000A9F92068C16941F40061C1612068C169A9
:1029700021F48061C1612068C1692A6941EA0221AC
:10298000C16184F83960002084F8380070BD10B54A
:10299000040003D094F8390010B107E0012010BD05
:1029A000002084F83800204600F00CF8022084F85B
:1029B0003900211D206801F083F8012084F83900D6
:1029C000002010BD08B501681F48B1F1804F0BD041
:1029D0001E4A914210D1016841F002010160006875
:1029E00000F00200009008BD016841F001010160A3
:1029F000006800F00100F5E7154A914207D101682F
:102A000041F004010160006800F00400EAE7114AA7
:102A1000914207D1016841F008010160006800F0AF
:102A20000800DFE70C4A914202D10748001DD2E7B7
:102A30000A4A9142D7D1016841F040010160006823
:102A400000F04000CEE700004038024000040040A3
:102A500000080040000C0040000401400018004045
:102A60007047000010B504460068012201F088F8A4
:102A700008492068884202D00749884203D1416C46
:102A800041F4004141642068016841F001010160A6
:102A9000002010BD0000014000040140006803490F
:102AA000884201D1FFF70EB87047000000100040C7
:102AB0007047704770B5026804461068D168536962
:102AC00010F00F0F50D003F0010501F4907635435C
:102AD0005DD0C20705D0CA0503D5E26B42F0010202
:102AE000E263420705D5DA0703D0E26B42F0020247
:102AF000E263820705D5DA0703D0E26B42F00402F5
:102B0000E263020705D5DA0703D0E26B42F0080260
:102B1000E263E26B002A33D0800604D5880602D532
:102B2000204601F02CF920684069E16BC0F3801069
:102B3000090700D428B3204601F0ECF82068416969
:102B400049061AD5416921F040014161606BA0B18D
:102B50001B490165606BFEF79CFC002810D0606B80
:102B6000016DBDE870400847830610D58B060ED571
:102B70002046BDE8704001F002B92046FFF799FFFA
:102B800070BD2046FFF795FF0020E06370BD03068F
:102B900006D50B0604D52046BDE8704001F08CBA7E
:102BA0004006F3D54806F1D5D168204621F0400112
:102BB000D160202184F8391000F0C2F970BD000006
:102BC000053D000870B5040004D094F839000025D4
:102BD00010B106E0012070BD84F83850204600F0A6
:102BE00023F8242084F839002068C16821F40051BA
:102BF000C160204601F00AF92068016921F4904182
:102C000001612068416921F02A0141612068C168A1
:102C100041F40051C160E563202084F8390084F854
:102C20003A00002070BD00002DE9F04F0546D0F8B5
:102C300000C00220DFF81C820024DFF81CA2012162
:102C4000032207238706460287B0C4453BD1DAF842
:102C5000008048F01008CAF80080DAF800C00DF1D2
:102C600004080CF0100CCDF814C04FF0C00CCDF8D7
:102C700000C088E80F0069467848FEF731FEDFF8AB
:102C8000E48177494046C8F80010C0E90174C0E902
:102C90000346C8F81440C8F81840C8F81C40C8F8E3
:102CA0002040C8F82440FEF7DBFC08B1FDF722FE07
:102CB000C5F83480002205212520C8F83850FEF7D9
:102CC00095FF252046E0DFF8A081DFF88C91DFF842
:102CD0009CB1A9F10409C44541D1D9F8008048F458
:102CE0000038C9F80080D9F800C00DF104080CF4D0
:102CF000003CCDF814C04FF0600CCDF800C088E85F
:102D00000F0069465846FEF7EBFDDFF85881584939
:102D100008F160084046C8F80010C0E90174C0E935
:102D20000346C8F81440C8F81840C8F81C40C8F852
:102D30002040C8F82440FEF793FC08B1FDF7DAFD07
:102D4000C5F83480002211462620C8F83850FEF716
:102D50004DFF2620FEF73EFF07B0BDE8F08FDFF8FD
:102D60001481C4453ED1D9F8008048F48028C9F8C0
:102D70000080D9F800C00DF104080CF4802CCDF8C7
:102D800014C04FF4407CCDF800C088E80F006946BD
:102D90005846FEF7A5FDDFF8CC80354908F1C0089C
:102DA00060394046C8F80010C0E90174C0E9034624
:102DB000C8F81440C8F81840C8F81C40C8F82040AB
:102DC000C8F82440FEF74CFC08B1FDF793FDC5F8A8
:102DD0003480002211462720C8F83850FEF706FF3D
:102DE0002720B7E7244B9C45B6D1DAF8007047F0AE
:102DF0002007CAF80070DAF8003001AF03F02003B2
:102E000005934FF48443009387E80700082004905B
:102E100069461A48FEF764FD1148194F18383860A2
:102E20008005C7E90104C7E903467C61BC61FC6118
:102E30003C6238467C62FEF713FC08B1FDF75AFD90
:102E40006F63002205214720BD63FEF7CFFE4720B8
:102E500080E70000001001404438024000040240B6
:102E6000406402404003002000440040000C024047
:102E700088600240004800400014014000180240F1
:102E80006004002070472DE9F843044690F83900AB
:102E90001E4617460D46202850D135B32FB394F85F
:102EA000380001284AD0012084F838004FF000088B
:102EB000C4F83C80212084F83900FEF7FDFDA7848A
:102EC000E78481464FF48057E08C4B46401EE084F7
:102ED000A0684FF00002B8424FF0800120460096F3
:102EE00011D101F01AF900BB02E00120BDE8F8831E
:102EF0002888C0F3080120684160206908B16D1C72
:102F000008E0AD1C06E001F008F970B9216815F879
:102F1000010B4860E08C0028D6D14B4600224021AE
:102F20002046009601F0F9F808B10320DEE72020E2
:102F300084F8390084F838800020D7E70220D5E7EC
:102F40007047FEE72DE9F04146490646884208D120
:102F50004549A1F17800FDF772FC072001F0EEFB76
:102F60007AE042498E4277D041498E4274D13E4A3E
:102F7000643A117855296FD15178AA296CD13D490D
:102F80000B685B1C0B609578D77814795379E91935
:102F900004EB030C8C449179D2798C440CF0FF0C37
:102FA000624559D167F3070064F30F202E4C63F399
:102FB0001740283461F31F603B2D05D204F1EC016A
:102FC00044F8250041F82500B7EE000A84ED3A0ADE
:102FD0003A21274802F04EFF112D0BD8264894ECD9
:102FE000030A816E884725480C3494EC030A0C3C94
:102FF000816E8847352D18D0372D0DD0382D2BD028
:10300000392D29D194ED390AB5EEC00AF1EE10FA46
:1030100022D0FEF71DFE1FE000242946144802F0CE
:1030200029FF641C3B2CF8DB16E094ED350AB5EE65
:10303000C00AF1EE10FA0FD0124911480860BFF330
:103040004F8F11480168114A01F4E061114301609A
:10305000BFF34F8F00BFFDE73046BDE8F04102F0FF
:103060009FBE000040020020C04600200003002058
:103070008002002008010020CC48002038490020B0
:1030800078563412004002400CED00E00400FA05CE
:10309000C006010E1C2002F037BBC006010E1B202B
:1030A00002F032BB0F4810B50D49016005214160A7
:1030B00000214FF400328160C0E903125201C0E9DF
:1030C00005210122C0E9072141628162C162FDF749
:1030D00037FF002803D0BDE81040FDF70BBC10BD42
:1030E0000064004068010020104810B50E490160DE
:1030F0000521416000214FF04072C0E902124FF4F7
:10310000003202615201C0E905210122C0E9072114
:1031100041628162C162FDF713FF002803D0BDE860
:103120001040FDF7E7BB10BD00680040A80100207B
:10313000194808B5016841F480010160016801F493
:1031400080010091016841F40011016000680022D3
:1031500000F40010009005210C20FEF747FD0C2024
:10316000FEF738FD002205211020FEF73FFD10205C
:10317000FEF730FD002205213920FEF737FD39200A
:10318000FEF728FD002205213A20FEF72FFDBDE8BD
:1031900008403A20FEF71EBD3038024000B595B019
:1031A000142215496846FDF7EFF80021684602F041
:1031B0001BFB1249142208600F4905A81431FDF7C2
:1031C000E3F8002105A802F00FFB0B491422283177
:1031D0000AA8FDF7D9F800210AA802F005FB064964
:1031E00014223C310FA8FDF7CFF800210FA802F000
:1031F000FBFA15B000BD0000B46600080000002016
:103200002DE9F0474B4886B00024016841F01001D9
:103210000160016801F010010591016841F00201AF
:103220000160016801F002010591016841F040016F
:103230000160016801F040010591016841F0080159
:103240000160016801F008010591016841F0010188
:103250000160016801F001010591016841F480718C
:103260000160016801F480710591016841F08001FD
:103270000160016801F080010591016841F02001C1
:1032800001600068DFF8B08000F0200005900022A7
:1032900088214046FEF70AFC012204214046FEF741
:1032A00005FCDFF898904FF400560022314648465E
:1032B000FEF7FCFBDFF888A044F240070022394605
:1032C0005046FEF7F3FB8C2000900125CDE9015418
:1032D000694640460394FEF703FB0220009019481C
:1032E000CDE9010569464046FEF7FAFA0096CDE9B8
:1032F0000154694648460394FEF7F2FA8020CDE96E
:103300000004694610480294FEF7EAFA0097CDE9F6
:103310000154694650460394FEF7E2FA0D200090EE
:103320000A48CDE9010469460948FEF7D9FA06B012
:10333000BDE8F0873038024000100240001802401B
:103340000014024000002110000C02400000111087
:1033500000000240104810B50E4901604FF4827120
:10336000416000218160C1604FF400720161C0E9D9
:1033700005123022C0E90721416281620A21C1623F
:10338000FEF77EFF002803D0BDE81040FDF7B2BA7B
:1033900010BD000000500140E801002010B51748A2
:1033A00088B01549016059210024C0E9011440F694
:1033B000C311C0E90314FFF7EAFA08B1FDF79AFA5E
:1033C000602000904FF47A70CDE901040022694634
:1033D0000A480494FFF773FA08B1FDF78BFA042248
:1033E00069460648FFF76BFA08B1FDF783FA034810
:1033F000FFF7E0F908B010BD00180040EC05002010
:1034000010B521488AB04FF080410024C0E9001473
:103410008460C4600461FFF7BAFA08B1FDF76AFA84
:10342000079407A918480894FFF7BFF808B1FDF7FB
:1034300061FA6020CDE90004029400226946124836
:103440000494FFF73CFA08B1FDF754FA04226946E8
:103450000D48FFF734FA08B1FDF74CFA0822694627
:103460000948FFF72CFA08B1FDF744FA0C22694627
:103470000548FFF724FA08B1FDF73CFA0248FFF7C8
:1034800099F90AB010BD0000C004002010B51A4818
:103490008AB018490160B3210024C0E90114C46056
:1034A0000461FFF774FA08B1FDF724FA079407A93D
:1034B00011480894FFF779F808B1FDF71BFA60206E
:1034C000CDE900040294002269460B480494FFF7FA
:1034D000F6F908B1FDF70EFA042269460648FFF72F
:1034E000EEF908B1FDF706FA0348FFF763F90AB0F1
:1034F00010BD000000040040FC04002010B521486D
:103500008AB01F490024C0E900148460C4600461CB
:10351000FFF73DFA08B1FDF7EDF9079407A919483F
:103520000894FFF742F808B1FDF7E4F96020CDE90F
:10353000000402940022694612480494FFF7BFF980
:1035400008B1FDF7D7F9042269460E48FFF7B7F92D
:1035500008B1FDF7CFF9082269460A48FFF7AFF92D
:1035600008B1FDF7C7F90C2269460648FFF7A7F92D
:1035700008B1FDF7BFF90348FFF71CF90AB010BD09
:10358000000800403805002010B524488AB02249C0
:10359000016059210024C0E9011440F6C311C0E9BB
:1035A0000314FFF7F4F908B1FDF7A4F9079407A98C
:1035B0001A480894FEF7F9FF08B1FDF79BF960205F
:1035C00000904FF47A70CDE9010400226946134857
:1035D0000494FFF774F908B1FDF78CF904226946E9
:1035E0000E48FFF76CF908B1FDF784F90822694627
:1035F0000A480194FFF763F908B1FDF77BF90C2243
:1036000069460648FFF75BF908B1FDF773F903480F
:10361000FFF7D0F80AB010BD000C00407405002080
:1036200010B52B4890B029490024C0E900148460EB
:10363000C46004614461FFF7AAF908B1FDF75AF9C3
:103640000E940EA922480F94FEF7AFFF08B1FDF7C4
:1036500051F90794089409944FF400500A94CDE965
:103660000B4007A91A480D94FEF77EFF08B1FDF73D
:1036700041F96020CDE90004029403940494059478
:103680000022694612480694FFF719F908B1FDF7C0
:1036900031F9042269460E48FFF711F908B1FDF728
:1036A00029F9082269460A48FFF709F908B1FDF728
:1036B00021F90C2269460648FFF701F908B1FDF728
:1036C00019F90348FFF776F810B010BD0004014067
:1036D000B00500200D4810B50B4901600C49416050
:1036E00000214FF480628160C0E903120C22C0E91E
:1036F0000521C161FFF766FA002803D0BDE810403C
:10370000FDF7F8B810BD0000001001404002002095
:10371000A08601000C4810B50A4901604FF4E13160
:103720004160002181600C22C160C0E90412816106
:10373000C161FFF747FA002803D0BDE81040FDF74C
:10374000D9B810BD00440040800200200C4810B5DC
:103750000A4901604FF4E1314160002181600C228F
:10376000C160C0E904128161C161FFF72BFA002832
:1037700003D0BDE81040FDF7BDB810BD00480040C3
:10378000C00200200C4810B50A4901604FF4E13135
:103790004160002181600C22C160C0E90412816196
:1037A000C161FFF70FFA002803D0BDE81040FDF714
:1037B000A1B810BD0014014000030020FEE77047CF
:1037C0000907090E002806DA00F00F0000F1E020DA
:1037D00080F8141D704700F1E02080F80014704755
:1037E00030B4034C4466034C846630BC02F02CB900
:1037F000495A0008575A000838B50B46009204464B
:103800000022802100F008F8002804D0606D40F00C
:1038100020006065032038BD2DE9F0411D461746A4
:103820000E460446DDF8188035E0681C33D02DB113
:10383000FEF742F9A0EB0800A8422CD320684168AB
:1038400021F0E00141606068B0F5827F0BD1A06893
:10385000B0F5004F02D0B0F5806F04D12068016848
:1038600021F040010160A06AB0F5005F0AD1206834
:1038700001684DF6FF72114001602068016841F453
:1038800000510160012084F85100002084F85000AC
:103890000320BDE8F0812068806836EA000004D08B
:1038A0000020B842C1D10020F3E70120F9E74FF42E
:1038B0007A742046FDF75FFF642001F07FFFF8E790
:1038C00001F07CFA642001F079FF4FF48049DFF8C1
:1038D000C0A0304CDFF8C080FEF7EEF800273E466F
:1038E0004FEA0705FEF7E8F804EB05114A68821A6B
:1038F000C86862F30F00C860886880071BD5C86875
:10390000CA6880B2B0EB124F15D9886840F0010048
:10391000886084F8C8508868761CC0F38500B84277
:103920000DDD8868091DC0F38507216058F8250062
:10393000C4F8C40003E0886820F0010088606D1CB2
:103940000C2DCFDB0EB90020206020682746D0B1B7
:103950004068060A5FF0000506FA05F000F09EFDDB
:10396000642001F02BFF6D1C202DF5DB0122494660
:103970005046FEF79BF8D8F80000C7F8C400322084
:1039800001F01CFFA8E7002000F088FD0022EEE710
:1039900000140240900600205000002010B502F0F4
:1039A0009BFD044C2168884202D102F0A9FDA06071
:1039B00010BD00008000002001F00CBF30B526488B
:1039C00093B00025016841F080510160006800F06B
:1039D000805011902148016841F440410160006825
:1039E000022400F4404011900120009001908005D5
:1039F000CDE9064006200890B420CDE90904042052
:103A00000B906846FEF7CAFA00B1FEE7FEF732F9FE
:103A100000B1FEE70CA90F2081E831004FF4A0505F
:103A20000F904FF48050109005210CA8FEF768F914
:103A300000B1FEE7FEF742FA4FF47A71B0FBF1F005
:103A4000FEF77CFD0420FEF76DFD00220F21501EC5
:103A5000FEF7CCF813B030BD403802400070004093
:103A60001048016841F4700101600F48016841F09D
:103A7000010101600C4A00210832116002680B4B01
:103A80001A400260031D0A4A1A60026822F480226A
:103A9000026005480C300160024958068039086010
:103AA0007047000088ED00E000380240FFFFF6FE9E
:103AB000103000240148FEF7C9BD00002C01002091
:103AC000F0B50268234B244D244E254F254C4FF072
:103AD000804C984209D0604507D0A84205D0B0423A
:103AE00003D0B84201D0A04204D122F0700E4A683F
:103AF00042EA0E0298421BD0604519D0A84217D066
:103B0000B04215D0B84213D0A04211D0164DA842F1
:103B10000ED0164DA8420BD0154DA84208D0154D19
:103B2000A84205D0144DA84202D0144DA84203D19A
:103B300022F44075CA682A4302608A68C2620A6831
:103B40008262984201D0A04201D10969016301213A
:103B50004161F0BD00000140000400400008004049
:103B6000000C0040000401400040014000440140BE
:103B70000048014000180040001C004000200040A8
:103B800010B50123046A8B409C430462036A8A4097
:103B90001343036210BD000030B5026A22F0010237
:103BA0000262026A436884690D6824F07304254345
:103BB00022F002048A6822430B4CA04202D00B4C34
:103BC000A0420BD122F00804CA6823F440732243B8
:103BD0004C6922F004021C438B69234343608561D6
:103BE00049684163026230BD0000014000040140A9
:103BF00030B5026A22F010020262026A43688469E8
:103C00000D6824F4E64444EA05248D6822F020027D
:103C100042EA05120D4DA84202D00D4DA8420ED128
:103C2000CD6822F0800242EA05124D6923F4406318
:103C300043EA85038D6922F0400243EA850343602D
:103C4000846149688163026230BD00000000014068
:103C50000004014030B5026A22F480720262036AF5
:103C60004268C46923F4007324F073050C682C4384
:103C70008D6843EA05230D4DA84202D00C4DA842A1
:103C80000ED1CD6823F4006343EA05234D6922F485
:103C9000405242EA05128D6923F4806342EA05121C
:103CA0004260C4614968C163036230BD00000140E5
:103CB0000004014030B5026A22F480520262046AB4
:103CC0004268C3690D6823F4E64343EA05238D681F
:103CD00024F4005444EA0534084DA84202D0084DAB
:103CE000A84204D14D6922F4804242EA8512426022
:103CF000C36149680164046230BD000000000140F6
:103D00000004014010B5806B0021C185C184FEF71D
:103D1000D0FE10BD0168CA6822F49072CA600168C2
:103D20004A6922F001024A61202180F83A10704766
:103D300070B5044690F83A0020281ED1D9B1D2B10E
:103D400094F83800012818D0012084F83800A162C6
:103D5000A2850025E563134626680A46311D606B7F
:103D6000FDF7E6FC2068416941F04001416184F8BB
:103D70003850002070BD012070BD022070BD10B50C
:103D800090F83A10222901D0022010BD8168B1F5C7
:103D9000805F11D00169002901681FD0496801F0D6
:103DA0007F03816A4A1C82620B70C18D491E09041F
:103DB000090CC18518D026E00269816A002A0268D0
:103DC000526805D0D2B20A80816A491C8162ECE750
:103DD000C2F308020A80816A891CF7E74A68816A8F
:103DE0004B1C83620A70E0E70168CA6822F4907293
:103DF000CA6001684A6922F001024A61202180F804
:103E00003A10FFF73FF8002010BD00002DE9F04107
:103E100004460068016921F44052E16811430161E0
:103E20002168C86849F20C6290432369A268E56979
:103E30001A4363692B431A430243CA6021684869E5
:103E400020F44072A06910434861E1696425B1F52E
:103E5000004F9748974A21684FF032083FD091426F
:103E600001D081427CD1FEF747F800EBC00101EBA5
:103E7000001061688900B0FBF1F6FEF73DF800EB39
:103E8000C00101EB001061688900B0FBF1F0B0FBEC
:103E9000F5F06FF01801484306EB800108EB0110C4
:103EA000B0FBF5F000F0F006FEF726F800EBC001DD
:103EB00001EB001061688900B0FBF1F0B0FBF5F098
:103EC00006EB0016FEF718F800EBC00101EB00103E
:103ED00061688900B0FBF1F7FEF70EF8D2E091427D
:103EE00001D081423DD1FEF707F800EBC00101EBA4
:103EF000001061684900B0FBF1F0B0FBF5F006017D
:103F0000FDF7FAFF00EBC00101EB0010616849000A
:103F1000B0FBF1F7FDF7F0FF00EBC00101EB001083
:103F200061684900B0FBF1F0B0FBF5F06FF01801EB
:103F3000484307EB800108EBC100B0FBF5F000F04F
:103F4000F80006EB4006FDF7D7FF00EBC00101EBE0
:103F5000001061684900B0FBF1F7FDF7CDFF3CE0D0
:103F600055E0FDF7B1FF00EBC00101EB0010616807
:103F70004900B0FBF1F0B0FBF5F00601FDF7A4FF3E
:103F800000EBC00101EB001061684900B0FBF1F7E4
:103F9000FDF79AFF00EBC00101EB001061684900DA
:103FA000B0FBF1F0B0FBF5F06FF01801484307EB00
:103FB000800108EBC100B0FBF5F000F0F80006EB63
:103FC0004006FDF781FF00EBC00101EB00106168C6
:103FD0004900B0FBF1F7FDF777FF00EBC00101EB03
:103FE000001061684900B0FBF1F0B0FBF5F06FF034
:103FF0001801484307EB800108EBC100B0FBF5F066
:1040000000F00700216830448860BDE8F081FDF7CA
:104010005BFF00EBC00101EB001061688900B0FBA1
:10402000F1F6FDF751FF00EBC00101EB00106168F4
:104030008900B0FBF1F0B0FBF5F06FF018014843D8
:1040400006EB800108EB0110B0FBF5F000F0F00684
:10405000FDF73AFF00EBC00101EB00106168890039
:10406000B0FBF1F0B0FBF5F006EB0016FDF72CFF0E
:1040700000EBC00101EB001061688900B0FBF1F7B3
:10408000FDF722FF00EBC00101EB00106168890021
:10409000B0FBF1F0B0FBF5F06FF01801484307EB0F
:1040A000800108EB0110B0FBF5F000F00F00A9E76C
:1040B000001401400010014090F83910212901D06E
:1040C000022070478168B1F5805F016A0BD04A1CFD
:1040D0000262026809785160C18C491E0904090C0A
:1040E000C1840ED017E009880268C1F3080151604D
:1040F00001690029016A02D0491C0162ECE7891CB0
:10410000FBE70168CA6822F08002CA600068C168E3
:1041100041F04001C160002070472DE9F041984610
:1041200017460E460446069D1DE0681C1BD02DB1A7
:10413000FDF7C2FCA0EB0800A84214D92068C168B2
:1041400021F4D071C1602068416921F00101416111
:10415000202084F8390084F83A00002084F83800E0
:104160000320BDE8F0812068006836EA000004D032
:104170000020B842D9D00020F3E70120F9E7000081
:1041800010B50448FEF7DEFEBDE810400148FEF71A
:1041900091BC00004002002010B50448FEF7D2FE9A
:1041A000BDE810400148FEF785BC000080020020F9
:1041B00010B50448FEF7C6FEBDE810400148FEF702
:1041C00079BC0000C002002010B50448FEF7BAFE1A
:1041D000BDE810400148FEF76DBC00000003002060
:1041E000FEE74100080218BF04200A0E18BF40F085
:1041F00001004FF07F4232EA010108BF40F00200A7
:10420000012808BF0520704710EE100A10B510EE07
:10421000901A4FF0684202EB40032DED028BB3F190
:10422000654F3CBF02EB4102B2F1654F7CD200BF4B
:10423000C0F3C753C1F3C7529A1A1B2A09DD10F005
:10424000004F14BF9FED6E0A9FED6E0ABDEC028B0E
:1042500010BD12F11A0F1BDA11F0004F09D010F047
:10426000004F0CBF9FED680A9FED680ABDEC028B02
:1042700010BD80EE208A18EE100AFFF7B2FF042866
:1042800008BF00F0EDF8B0EE480ABDEC028B10BD9F
:104290004200B2EB410F37D910F0004F19BFDFEDEC
:1042A0005C1A9FED5C1ADFED5C1A9FED5C1AB0EEB4
:1042B000602A0A46F1EE400A80F00041B0EE420A60
:1042C00010460A1A5200B2F1807F34D2484010F0F2
:1042D000004FDFED532A9FED533A1DBFBEEE002A7B
:1042E00071EEE21A31EE431AB6EE002A04BF71EE07
:1042F000A21A31EE031AF0EE402A42EE602A40EE96
:10430000020A82EEA02A18E011F0004F04BF9FEDD0
:10431000461AF0EE411AD4D010F0004F1CBFDFED6A
:10432000431A9FED431A00E026E004BFDFED411A77
:104330009FED411AC5E780EE202A22EE020ADFED4A
:104340003F0ADFED3F2ABDEC028B40EE202ADFED75
:104350003D0A40EE220ADFED3C2A40EE202ADFED46
:104360003B0A40EE220A22EE000A00EE201A31EE4D
:10437000020A30EE210A10BD4FF07F42B2EB400F2F
:1043800028BFB2EB410F05D2BDEC028BBDE8104057
:1043900000F062B840EA01035B0008BF41F0FF4152
:1043A0000BD0B2EB400F08BFB2EB410F08D120F0A9
:1043B000804000EE100A21F0804100EE901A37E7AD
:1043C000B2EB400F12BF5FEA410240F0FF4001F044
:1043D00000413FF42DAF4A0092EA40033FF528AF79
:1043E000002AACBF9FED1A1A9FED1A1A20EE010A9F
:1043F00060EE810A10EE100A10EE901A18E7000025
:10440000DB0FC9BFDB0FC93FDB0F4940DB0F49C0E2
:104410000000C9BF22AAFDB90000C93F22AAFD3988
:104420000060ED3EC30ACE3700000000000049C026
:1044300022AA7DBA0000494022AA7D3A2DAD65BD71
:104440008FB8D53D0FB511BE61C84C3EA8AAAABE13
:104450000000804F0000802F30EE200A70470000DF
:104460009FED020A20EE000A7047000000000010D5
:10447000D0ED000AF4EEC00AF1EE10FA01DD80ED95
:10448000000AD0ED000AB1EE400AF4EEC00AF1EEE7
:1044900010FA01D280ED000A70470000064A40F28F
:1044A000E7311160054B002801DA002200E001220B
:1044B00080211846FDF7FABA2C0400400010024093
:1044C000F0B4134B40F2FF141D6B2C601D6B0024E5
:1044D000AC601D6BEC601E6B082535611E6B050A18
:1044E00035751D6B68751D6B080AA875186BC1754D
:1044F000196B100A0876186B4FF47A714276186BB4
:104500008476186BC476F0BC1846FCF7F7BE000042
:10451000A80100202DED028B82B00024DFED6F8A10
:1045200044F620659FED6E8A6E4E00BF04EBC4001A
:1045300000EB400006EB8000B0EE481AF0EE680A8F
:10454000B1EE000A2A462B460321FFF749F9641C05
:10455000042CEBDB9FED641A4FF49672F0EE480AE0
:10456000B6EE000A134603216048FFF739F99FEDC4
:10457000600A5E4880ED140AB2EE040A80ED150A66
:104580004FF47A70FDF7F7F85B4DDFF8689105F1AD
:10459000400BDFF86881DFF868A15A4F01F040F95D
:1045A000574800F0D9F8287E062853D0072859D05C
:1045B000052801D085ED028A95ED000AB0EEC00A0B
:1045C00010EE101A494501DA85ED008A95ED010AD1
:1045D000B0EEC00A10EE101A494501DA85ED018AE5
:1045E000A86B08B185ED028A594695EC030A4FF491
:1045F0007A7000F071FE002405EB4400B0F9400031
:1046000000EB8000400000EE100A04EB440000EBD9
:10461000C401F8EEC00A38F9210000EE100A04EBDC
:10462000C40000EB4000B8EEC00A06EB800001F0C9
:1046300029F9BDEEC00A10EE100A27F81400641C18
:10464000042CD9DB287E042823D09AF809000128FD
:104650001FD11AE0687E0628ACD095ED080A85EDDA
:10466000070AA7E79AF809000328A3D02648F0EE26
:10467000480AB0F9000000EE100A1C48B8EEC00A63
:1046800001F000F985ED020A96E72048806FC00727
:104690000AD000203860786086ED0D8A86ED288A81
:1046A00086ED438A86ED5E8A164896ED030A083049
:1046B00080ED000A96ED060A80ED010AB7F90600C2
:1046C0000090B7F90430B7F90220B7F9001010488C
:1046D00001F03EFB0A2001F071F85FE7CDCC4C3DC4
:1046E00000000000E84A00206666A63F984C0020C3
:1046F00000A0AA440000A04028060020804400201A
:1047000048460020080000201E00002090060020DF
:1047100068010020074882B0006801684168009184
:10472000C16841F01001C16014220349014802B080
:10473000FFF7FEBA40020020C046002010B5054930
:1047400001EB0014A068800702D5FDF7B5F96060A1
:1047500010BD00009006002031490A7E4A76027A98
:10476000012A04D0022A29D0032A04D101E003221D
:1047700000E005220A760B7E032B21D0294A9FED0B
:104780002A1A052B92EC020A21D0072B15D1B0F979
:104790000020524201EE902AF8EEE11A41EE810A21
:1047A000C1ED010AB0F90200404200EE900AF8EEB5
:1047B000E00A00EE810A81ED000A70470722D9E77E
:1047C0009FED1A0A81ED000A81ED010A24E0B0F99B
:1047D0000020524201EE902AF8EEE11A41EE810AE1
:1047E000C1ED010AB0F90220524200EE902AF8EE23
:1047F000E00A00EE810A81ED000AB0F90420B0F968
:104800000A0002EBD272521000EB800002EB400073
:1048100000EE100AB8EEC00A81ED020A70470000EF
:10482000280600206C4400209A99993E0000000060
:1048300030B5048944814A6B6FF00405928A52BAFC
:1048400002814B6BDB8A5BBA438003804B6B1B8B13
:104850005BBA1BB293FBF5F38380496B131BB3F573
:10486000805F897E8171016901DD491E03E013F5D6
:10487000805F01DA491C016102EB41318289891AAA
:10488000416130BD496B898A49BA01818181704794
:10489000421A13B2B1F5805F08DBA1F5805188425E
:1048A00001DD1846704702F5005205E001F5805120
:1048B0008842F6DDA2F5005210B270470948417AED
:1048C00001290DD108490989A0F80710074909896C
:1048D00020F8051F5521417100210171FBF732BEFF
:1048E00070470000A04E0020B0450020DC450020AD
:1048F0002DED088BDFEDFE8A4FF47A7A4FF47A645F
:10490000B0EE681AF0EE680AB7EE000A5646534653
:1049100022460321F748FEF763FF4FF4C875B0EE57
:10492000681AF0EE680AB2EE0C0A2B462246032102
:10493000F148FEF755FFB0EE681AF0EE680A9FEDF9
:10494000EF9A2B462246B0EE490A0321EC48FEF7C7
:1049500047FFB0EE681AF0EE680AB3EE090A2B467C
:1049600022460321E748FEF73BFFB0EE681AF0EE5F
:10497000680A9FEDE58A41F288343346B0EE480A72
:1049800022460321E148FEF72BFFB0EE681AF0EE55
:10499000680AB0EE000A334622460321DC48FEF7DF
:1049A0001FFF40F2E732B0EE681AF0EE480AB0EEB0
:1049B000490A13460321D748FEF712FF00F03CFDD9
:1049C000D548817A552900D0FEE78346B0F9051015
:1049D000D248D34D02464161CF4900F13009DFF89A
:1049E0001483B1F907101161022189F800109FEDBD
:1049F000CD9AF3EE059A9FEDCCAAF6EE00AA9FEDB4
:104A0000CBBACB4FC54CB7F90C0000EE100AC14829
:104A1000F8EEC00A80EE890A30EE290A84ED0B0A0E
:104A2000D4ED080A00F02EFFBA48C24990ED0F0AF3
:104A3000BCEEC00A10EE100A086000F02DFDFFF772
:104A40003DFF99F801004E46012804D13078012835
:104A500001D0C4ED038AB5F90600B749404200EE23
:104A6000100AB5F90C00B8EEC00A00EE900A20EE6C
:104A70000A0AF8EEE00A20EE2A0A00EE8B0AD4EDCC
:104A8000030A30EE200A10EE100A84ED030A884271
:104A900003D99FEDAA0A84ED030A10EE100AA84973
:104AA000884203DD9FEDA70A84ED030A3078707019
:104AB000697A012906D0022914D0032912D00228CC
:104AC00002D00AE002203070B5F90400404200EE46
:104AD000100AB8EEC00A84ED020AA06990B1A0786D
:104AE00040B902E001203070F7E7297C8B4800F0E4
:104AF0005EFB38B19449E0694843A16A0844A0626A
:104B00000020A070687A01280DD1A06958B1287AD8
:104B1000022808D1E06900EB4001C1EBC010A16A96
:104B200001EB0010A0627D48697C401C00F03FFB57
:104B300040B9606A032809D1287A012806D1687A29
:104B4000012803D1A06938B10020A061287A6062F1
:104B5000687A012802D005E00120F6E77B48806FE3
:104B6000C00721D07A49C1F800A0091FC1F800A0F0
:104B70005FF000024FF400517648FCF797FF76484B
:104B8000A18AB0F9080009B2FFF782FEE0807348FD
:104B9000218AB0F9080009B2FFF77AFEA0803078C8
:104BA000B146022808D018E0694840F2DC510160A3
:104BB000001F01600122DDE794ED020A9FED681AF3
:104BC000B4F90600C0EE010A00EE100A4C48F8EEF7
:104BD000C01A81EE810A00F055FE494EBAEE041A61
:104BE000B7F9120096ED0F0AB2EE048AC0EE010A80
:104BF00000EE100A4348B8EEC01A81EE080A00F031
:104C000041FEB4F90400D4ED030A00EE100A39485D
:104C1000B8EEC00A00F036FE98ED0F0AB7F91000A2
:104C2000C0EE080A00EE100A3348B8EEC01A81EE52
:104C3000080A00F027FEA16A642091FBF0F1494FB9
:104C400000EE101A7969F8EEC00A91FBF0F000EE60
:104C5000100A2F48B8EEC00A00F014FEB7F90000A1
:104C60002B4C00EE100A2948D4ED0F0AB8EEC00A0A
:104C700000F008FE687A012813D19BF80A00552835
:104C80000FD199F8000001280BD03048816FC90777
:104C900007D1D0F89810C90703D1D0F8A800C007F1
:104CA0006ED00022C4ED0D8A11461046FFF708FCB5
:104CB00014492D4891ED060A80ED000A91ED030A92
:104CC0000D4980ED010A96ED060A80ED020A96ED87
:104CD000030A80ED030A91ED060A103080ED000A08
:104CE00091ED030A80ED010A98ED060A3EE047E0E7
:104CF00000000000384900207C4A002000003443B6
:104D0000A4490020104A0020CDCCCC3D704D00209D
:104D1000044D0020DC4D0020A04E00201800002093
:104D2000484600205CEFA643CDCC4C3DCDCC4C3F5B
:104D3000564E002038040040000096C3000096C381
:104D40000000964300009643B71202009006002030
:104D50003818004000180240DC450020B045002013
:104D60000000B641084600207006002080ED020ACF
:104D700098ED030A80ED030A052000F01FFD40E6D0
:104D800094ED0F0ABDEEC00A10EE100A02B20948F7
:104D900090ED0F0AB1EE400ABDEEC00A10EE100A07
:104DA00001B2054890ED0F0ABDEEC00A10EE100AE0
:104DB00000B27BE77C4A0020104A002070B56948A9
:104DC00000220260816F21F001018167816F21F073
:104DD000FC0128318167816F40F2033363F31F21A7
:104DE0008167C16F89B201F5C801C167C16F6FF3F7
:104DF0000F01C1674267816F41F0020181675A4C20
:104E0000002300BF00EB03118D6A25F001058D62C0
:104E10008E6A9D1D65F387068E628D6A64F31F2579
:104E20008D62CD6AADB205F54805CD62CD6A6FF3EE
:104E30000F05CD624A628D6A45F002058D625B1CEA
:104E4000042BDFDB50F8181F21F00101016001681D
:104E500021F0FC0114310160444B016863F31F2110
:104E600002C0016889B201F5202140F82C1B50F8DE
:104E70002C1C6FF30F0140F82C1C40F8342C50F818
:104E8000301C41F0020140F8301C016A21F00101A0
:104E90000162016A21F0FC01103101623449036AA8
:104EA00061F31F230362436A9BB203F54803436225
:104EB000436A6FF30F034362C261036E23F0010381
:104EC0000366036E23F0FC0320330366036E61F375
:104ED0001F230366436E9BB203F548034366436E8C
:104EE0006FF30F034366C265036E43F0020303666C
:104EF000036D23F001030365036D23F0FC032033EE
:104F00000365036D61F31F230365436D9BB203F5D6
:104F100048034365436D6FF30F034365C264036D3C
:104F200043F002030365036F23F001030367036F7C
:104F300023F0FC0308330367036F61F31F23036748
:104F4000416F89B201F548014167416F6FF30F016D
:104F50004167C266016F41F00201016705490968B6
:104F6000C16770BD90060020010F0F00010F010006
:104F7000010101005000002000EB4002F0B427487E
:104F800000EB8202507C012846D124480023937410
:104F90000C38B1F90050046825440560B1F902608D
:104FA000446834444460B1F9041086680E441C49D6
:104FB00086600F687F1C0F60642F2DDB00EE105A97
:104FC0000B60F8EEC00A9FED170A80EE801AFDEE26
:104FD000C10A10EE901A00EE904A22F80B1FF8EE6C
:104FE000E00A80EE801AFDEEC10A10EE901A00EE83
:104FF000906A5180F8EEE00A80EE801ABDEEC10A98
:1050000010EE101A91808360436003609371552005
:10501000D071F0BCFBF796BAF0BC7047A04E0020F0
:10502000280100200000C84206220146492000F065
:105030003DBB10B530216A2000F066FB0A2000F06D
:10504000BDFB0D21242000F05FFB0A2000F0B6FB21
:105050000E21282000F058FB0A2000F0AFFB8E2123
:10506000312000F051FB0A2000F0A8FB01210B20A9
:1050700000F07BF80A2000F0A1FB002000F059F8B6
:10508000102801D0012010BD01210B2000F06DF887
:105090000A2000F093FB00210A2000F066F80A20A5
:1050A00000F047F808B1022010BD0A2000F086FB8E
:1050B00000210B2000F059F80B2000F03AF808B15D
:1050C000032010BD0A2000F079FB2421412000F0CC
:1050D0004CF8412000F02DF8242801D0042010BD08
:1050E0000A2000F06BFBC021422000F03EF8422075
:1050F00000F01FF8C02801D0052010BD0A2000F0E4
:105100005DFB00212A2000F0FFFA0A2000F056FB88
:105110000021342000F0F8FA0A2000F04FFB0622AC
:1051200003210E2000F052FA642000F047FB00201B
:1051300010BD10B50146322000F0E6FA0A2000F05A
:105140003DFB8021342000F0DFFA0A2000F036FB1E
:10515000352000F083FA04460021342000F0D4FA10
:105160000A2000F02BFB204610BD70B50D4604460A
:1051700000212A2000F0C8FA022000F01FFB21467F
:10518000292000F0C1FA022000F018FB2946642013
:1051900000F0BAFA022000F011FB81212A2000F071
:1051A000B3FABDE870400A2000F008BB704710B5A4
:1051B000047800222CB10023012C06D0022C0BD144
:1051C00008E049B10121017006E021B1022101701E
:1051D000012201E001B90370104610BDFCF77AFC12
:1051E000FEF7ECFBFEF70CF8FDF7A2FFFDF75AFF08
:1051F000FEF770FAFEF7AEF8FEF7A8FAFEF7C2FA6D
:10520000FDF772FFFEF7C0F9FEF7FAF8FEF73EF978
:10521000FEF774F9FEF704FAFEF7C0F8FEF77AFA23
:10522000FFF778FAFFF7C2FF00F042F8184800F0E5
:1052300095FA184800F092FA00F05AFD4FF4FA601F
:10524000FCF799FA00211248FBF78EFF0021114864
:10525000FBF78AFF00211048FDF704FC04210F48EA
:10526000FDF700FC00210D48FDF7FCFB00210C4878
:10527000FDF7F8FB04210A48FDF7F4FBFBF744F9BE
:10528000FBF756F9FDF78AFF00F09FFAFEE70000F2
:1052900068010020A801002074050020FC04002003
:1052A000EC05002001460020842900D0C81C70476E
:1052B000074882B00068016841680091C16841F008
:1052C0001001C16014220349014802B0FEF730BD4D
:1052D00000030020D44600203CB5DFED4E1A10EE4E
:1052E000104A4D4A9FED4D2A4D4BDFED4E2A944218
:1052F00002DDB0EE420A05E010EE104A9C4201D9F0
:10530000B0EE620A10EE904A944202DDF0EE420ADC
:1053100005E010EE902A9A4201D9F0EE620A11EEF1
:10532000102A414C414BA24202DD9FED411A05E09B
:1053300011EE102A9A4201D99FED3E1AB1EE402A91
:10534000002332EE602A6C4632EE012ABDEEC22AFC
:1053500012EE102A30EE602AADF8002032EE012A5B
:10536000BDEEC22A12EE102A30EEC02A30EE200A1C
:10537000ADF8022032EE012A30EE010ABDEEC22A5B
:10538000BDEEC00A12EE102AADF8042010EE102A6D
:10539000ADF8062034F91320002A01DD154600E09F
:1053A000554200EE105AB8EEC00AB4EEE10AF1EE32
:1053B00010FA06DD002A00DC524200EE102AF8EE58
:1053C000C01A5B1C042BE5DB00EE100AB8EEC00A25
:1053D000F4EEC01AF1EE10FA17DD00EE100A00200C
:1053E000F8EEC00A80EEA10A34F9102000EE902AEF
:1053F000F8EEE00A60EE800AFDEEE00A10EE902A78
:1054000024F81020401C0428EEDB00980860019866
:1054100048603CBD00000000000025440000254419
:10542000000025C4000025C400009643000096C378
:1054300000009643000096C330B585B0642000F0AC
:10544000BDF9752000F00AF9114900241422887072
:1054500010496846FAF798FF4FEA0D0505EB44003E
:10546000417815F8140000F04FF9012000F0A6F97A
:10547000641CE4B20A2CF1D30320FDF70EFE0220D7
:10548000FDF706FEFFF7D5FD05B0002030BD00009A
:105490000C0100201C67000870B50E222DED028B58
:1054A0003B20454900F002F9434800F10E04018811
:1054B00049BA2180418849BA6180818849BAA1806E
:1054C000C18849BAA181018949BAE181418949BAB2
:1054D0002182808940BA60823848FFF7A5FD374DA8
:1054E0003548083D9FED361AA9684161A9890183B5
:1054F000D0F80E104162D0F812108162D0F8161068
:10550000C162B4F90C009FED308A00EE100A04F17C
:105510001600F8EEC00A80EE810AF3EE050A30EEBE
:10552000200A80ED030AB4F90E1000EE101AB8EE4E
:10553000C01A9FED240AC1EE000A80EE881A80EDA1
:10554000041AB4F9101000EE901AB8EEE01AC1EE89
:10555000000A80EE881A80ED051AB4F9121000EEE8
:10556000901AB8EEE01AC1EE000A80EE880A80EDCB
:10557000060AB4F9060000EE100AB4F90800F8EEC5
:10558000C00A00EE100AB8EEC00AFEF73DFE20EE9B
:10559000080A04F10E01002085ED010AFFF7ECFC7A
:1055A00021460120FFF7E8FCA11DBDEC028B022083
:1055B000BDE87040FFF7E0BC484E00201401002019
:1055C0005CEFA6436F1283413333654270B50E46DC
:1055D000044601461546282000F096F8022000F007
:1055E000EDF80A21292000F08FF8022000F0E6F8FB
:1055F0000121642000F088F8022000F0DFF844F078
:105600008001252000F080F8022000F0D7F8314614
:10561000262000F079F8022000F0D0F80321342091
:1056200000F072F8022000F0C9F80321672000F0B2
:105630006BF8022000F0C2F881212A2000F064F803
:10564000062000F0BBF845F08001272000F05CF850
:10565000BDE87040022000F0B1B80000F8B5104E6F
:105660000446002240213046FCF720FA44F0800036
:105670000C4C3725621C20700123511E0A480095EE
:10568000FCF764FE621C0123511E07480095FCF7DD
:105690005DFE012240213046FCF708FA6078F8BD33
:1056A000001402400C010020E8010020F8B5134F5F
:1056B00015460E460446002240213846FCF7F6F90E
:1056C0000F4944F08000372408700E31A1F10D021B
:1056D000087001230E390B480094FCF737FE084987
:1056E0002B4632460E3107480094FCF72FFE01226C
:1056F00040213846FCF7DAF90020F8BD00140240DA
:105700000C010020E8010020F8B5114F0E460446B8
:10571000002240213846FCF7C9F904F07F000D4C07
:105720003725621C20700123511E0B480095FCF7A1
:105730000DFE2670621C0123511E07480095FCF7E0
:1057400005FE012240213846FCF7B0F90020F8BDE3
:10575000001402400C010020E801002030B58BB09D
:1057600004460020012103900490CDE906010E2596
:10577000CDE90815059000900190029069462046F9
:10578000FBF7AAFA694620460595FBF7A5FA0848F3
:10579000844203D1074820631C306063064884427A
:1057A00004D10448403020631C3060630BB030BD2E
:1057B0006801002030450020A801002010B500B984
:1057C000012000F081FC002010BD10B500F0B0FCFD
:1057D000002010BD10B500F085FE012803D0BDE803
:1057E000104000F085BD10BD30B5044685B00D46B3
:1057F000B0F90800FFF756FD002104AA0090CDE99A
:1058000001210391208A2B4682B2D4E9001000F0D6
:1058100085FD012802D0002005B030BD0498FBE7CB
:105820001548DFED171AF9EE000A418A1348CA0736
:10583000B1EE001A90ED000A02D030EE200A03E02B
:105840008A0704D530EE010A80ED000A01E0C0EDC0
:10585000001A0A4B4A0793ED010A02D530EE010AFD
:1058600003E0090704D530EE200A80ED010A7047F5
:10587000C0ED011A70470000484600206C4400202B
:105880000000000000B530EEC01A80ED080AC0ED3F
:10589000050A80ED0B1AD0ED141A01469FED692A16
:1058A00030EEC00AF5EEC01AB1EE400AF1EE10FA81
:1058B0000ED0B5EEC01AF1EE10FA02DDF0EE410A9C
:1058C00001E0F0EE400AF4EEE10AF1EE10FA12DC2B
:1058D000D1ED150AF5EEC00AF1EE10FA0ED0B5EED4
:1058E000C01AF1EE10FA01DDB0EE410AB4EEE00AA2
:1058F000F1EE10FA02D2B0EE420A00BD886D01F15D
:105900003402032802D0042838D07AE091ED000A4E
:10591000104620EE010A81ED0C0A91ED0D0AD1ED41
:10592000010A00EE810A81ED0D0A91ED0A0AD1ED1E
:10593000020A31EE400A20EE200A81ED0E0A91EDB6
:10594000180AB8EE400AFEF793FD91ED0C0AD1ED6E
:105950000D0A01F13C0030EE200AD1ED0E0A30EEC6
:10596000200A81ED0F0A91ED170AB8EE400AFEF702
:105970007FFD91ED0F0A81ED100A42E091ED0A0AD8
:10598000D1ED001A104671EE400A60EEA10AC1ED99
:105990000C0AD1ED010A60EE810AC1ED0D0AF0EEAC
:1059A000000A00EE601A91ED090AD1ED020A31EE0B
:1059B000000A20EE200A81ED0E0A91ED180AB8EED9
:1059C000400AFEF755FD91ED0C0AD1ED0D0A01F1EB
:1059D000480030EE200AD1ED0E0A30EE200A81EDAB
:1059E000110AD1ED130A30EE800A81ED120A91ED11
:1059F000170AB8EE400AFEF73BFD91ED120A81ED61
:105A0000130A91ED0A0A81ED090A91ED0B0A81ED65
:105A10000A0A91ED070A81ED060A91ED080A81ED67
:105A2000070A91ED040A81ED030A91ED050A81ED63
:105A3000040A886D032802D091ED120A00BD91ED91
:105A40000F0A00BD0000000000F1580C8CE80E00A9
:105A500080EC030A704780EC030A704770B50B4C6A
:105A6000054620684560E0682168854205D2606B84
:105A7000BDE87040091D00F067BA206B091D00F0F9
:105A800063FAA06A854200D2A56270BDC000002002
:105A900070B5124E124C1AE000F07EFB3068D0B1A7
:105AA00000F0A0FD00F074FAF068C568281D00F051
:105AB00003FAA068401EA0606068401E606000F0AD
:105AC00087FA286B00F098FA284600F095FA60688B
:105AD0000028E1D170BD00F085FDF8E724440020E6
